{
  "contractName": "AssetType",
  "abi": [
    {
      "constant": true,
      "inputs": [],
      "name": "name",
      "outputs": [
        {
          "name": "",
          "type": "string"
        }
      ],
      "payable": false,
      "stateMutability": "view",
      "type": "function"
    },
    {
      "constant": true,
      "inputs": [],
      "name": "supplyLimit",
      "outputs": [
        {
          "name": "",
          "type": "uint256"
        }
      ],
      "payable": false,
      "stateMutability": "view",
      "type": "function"
    },
    {
      "constant": true,
      "inputs": [],
      "name": "symbol",
      "outputs": [
        {
          "name": "",
          "type": "string"
        }
      ],
      "payable": false,
      "stateMutability": "view",
      "type": "function"
    },
    {
      "constant": true,
      "inputs": [],
      "name": "uri",
      "outputs": [
        {
          "name": "",
          "type": "string"
        }
      ],
      "payable": false,
      "stateMutability": "view",
      "type": "function"
    },
    {
      "inputs": [
        {
          "name": "_name",
          "type": "string"
        },
        {
          "name": "_symbol",
          "type": "string"
        },
        {
          "name": "_supplyLimit",
          "type": "uint256"
        },
        {
          "name": "_uri",
          "type": "string"
        }
      ],
      "payable": false,
      "stateMutability": "nonpayable",
      "type": "constructor"
    }
  ],
  "bytecode": "0x608060405234801561001057600080fd5b506040516105d73803806105d78339810180604052810190808051820192919060200180518201929190602001805190602001909291908051820192919050505083600090805190602001906100679291906100d5565b50826001908051906020019061007e9291906100d5565b5080600390805190602001906100959291906100d5565b50600082146100a457816100c6565b7fffffffffffffffffffffffffffffffffffffffffffffffffffffffffffffffff5b6002819055505050505061017a565b828054600181600116156101000203166002900490600052602060002090601f016020900481019282601f1061011657805160ff1916838001178555610144565b82800160010185558215610144579182015b82811115610143578251825591602001919060010190610128565b5b5090506101519190610155565b5090565b61017791905b8082111561017357600081600090555060010161015b565b5090565b90565b61044e806101896000396000f300608060405260043610610062576000357c0100000000000000000000000000000000000000000000000000000000900463ffffffff16806306fdde031461006757806319d1997a146100f757806395d89b4114610122578063eac989f8146101b2575b600080fd5b34801561007357600080fd5b5061007c610242565b6040518080602001828103825283818151815260200191508051906020019080838360005b838110156100bc5780820151818401526020810190506100a1565b50505050905090810190601f1680156100e95780820380516001836020036101000a031916815260200191505b509250505060405180910390f35b34801561010357600080fd5b5061010c6102e0565b6040518082815260200191505060405180910390f35b34801561012e57600080fd5b506101376102e6565b6040518080602001828103825283818151815260200191508051906020019080838360005b8381101561017757808201518184015260208101905061015c565b50505050905090810190601f1680156101a45780820380516001836020036101000a031916815260200191505b509250505060405180910390f35b3480156101be57600080fd5b506101c7610384565b6040518080602001828103825283818151815260200191508051906020019080838360005b838110156102075780820151818401526020810190506101ec565b50505050905090810190601f1680156102345780820380516001836020036101000a031916815260200191505b509250505060405180910390f35b60008054600181600116156101000203166002900480601f0160208091040260200160405190810160405280929190818152602001828054600181600116156101000203166002900480156102d85780601f106102ad576101008083540402835291602001916102d8565b820191906000526020600020905b8154815290600101906020018083116102bb57829003601f168201915b505050505081565b60025481565b60018054600181600116156101000203166002900480601f01602080910402602001604051908101604052809291908181526020018280546001816001161561010002031660029004801561037c5780601f106103515761010080835404028352916020019161037c565b820191906000526020600020905b81548152906001019060200180831161035f57829003601f168201915b505050505081565b60038054600181600116156101000203166002900480601f01602080910402602001604051908101604052809291908181526020018280546001816001161561010002031660029004801561041a5780601f106103ef5761010080835404028352916020019161041a565b820191906000526020600020905b8154815290600101906020018083116103fd57829003601f168201915b5050505050815600a165627a7a72305820c55747aef4403a8d948789ef2b9685bc0725260f3036923c74f683422f8104ab0029",
  "source": "pragma solidity ^0.4.19;\r\n\r\nimport 'openzeppelin-solidity/contracts/token/ERC721/ERC721Token.sol';\r\nimport 'openzeppelin-solidity/contracts/ECRecovery.sol';\r\nimport './Controlled.sol';\r\n\r\ncontract AssetType {\r\n\r\n    // Asset type name\r\n    string public name;\r\n\r\n    // Asset type symbol\r\n    string public symbol;\r\n\r\n    //SupplyLimit\r\n    uint256 public supplyLimit;\r\n\r\n    // Asset type metadata uri,Pointing to a json file\r\n    string public uri;\r\n\r\n    constructor(string _name, string _symbol, uint256 _supplyLimit, string _uri) public {\r\n        name = _name;\r\n        symbol = _symbol;\r\n        uri = _uri;\r\n        supplyLimit = (_supplyLimit == 0 ? 2 ** 256 - 1 : _supplyLimit);\r\n    }\r\n}\r\n\r\ncontract StandardAsset is ERC721Token,Controlled {\r\n\r\n    /*\r\n     * 0x1b2b8ef1 ===\r\n     *  bytes4(keccak256('getAssetType()')) ^\r\n     *   bytes4(keccak256('burn(uint256)')) ^\r\n     *    bytes4(keccak256('mint(address,string)'))\r\n    */\r\n    bytes4 internal constant InterfaceId_StandardAsset = 0x1b2b8ef1;\r\n\r\n    using ECRecovery for bytes32;\r\n\r\n    uint256 internal id_;\r\n\r\n\r\n    AssetType private assetType;\r\n\r\n    modifier onlyOwnerOrController() {\r\n        require(msg.sender == controller || msg.sender == owner);\r\n        _;\r\n    }\r\n\r\n    /**\r\n     * @dev Constructor function\r\n     */\r\n    constructor(string _name, string _symbol, uint256 _supplyLimit, string _classURI, address _owner) public ERC721Token(_name, _symbol) {\r\n        assetType = new AssetType(_name, _symbol, _supplyLimit, _classURI);\r\n        owner = _owner;\r\n        super._registerInterface(InterfaceId_StandardAsset);\r\n\r\n    }\r\n\r\n    /**\r\n      * @dev create a new token\r\n      * @dev Reverts if the given token ID already exists\r\n      * @param _to address the beneficiary that will own the minted token\r\n      * @param _tokenURI token uri\r\n      */\r\n    function mint(address _to, string _tokenURI) onlyOwnerOrController payable public {\r\n        _mint(_to, _tokenURI);\r\n    }\r\n    /**\r\n      * @dev Internal function to mint a new token\r\n      * Reverts if the given token ID already exists\r\n      * @param _to address the beneficiary that will own the minted token\r\n      */\r\n    function _mint(address _to, string _tokenURI) internal {\r\n        uint256 tokenId = id_.add(1);\r\n        require(!exists(tokenId) && tokenId <= assetType.supplyLimit());\r\n        id_ = tokenId;\r\n        super._mint(_to, tokenId);\r\n        super._setTokenURI(tokenId, _tokenURI);\r\n    }\r\n\r\n    /**\r\n     * @dev create a new token\r\n     * @dev Reverts if the given token ID already exists\r\n     * @param _to address the beneficiary that will own the minted token\r\n     * @param _tokenURI token uri\r\n     *//*\r\n    function mint(address _to, string _tokenURI,bytes _sig) public {\r\n        bytes32 hash = keccak256(abi.encodePacked(_to, _tokenURI));\r\n        address addr = hash.recover(_sig);\r\n        require(addr == owner);\r\n        _mint(_to, _tokenURI);\r\n    }*/\r\n\r\n    /**\r\n     * @dev  burn a specific token by its owner\r\n     * @dev Reverts if the token does not exist\r\n     * @param _tokenId uint256 ID of the token being burned by the msg.sender\r\n     */\r\n    function burn(uint256 _tokenId) public {\r\n        super._burn(msg.sender, _tokenId);\r\n    }\r\n\r\n\r\n    function getAssetType() public view returns (AssetType){\r\n        return assetType;\r\n    }\r\n\r\n\r\n}\r\n",
  "sourcePath": "G:\\GitRepository\\udap\\uc3\\contracts\\StandardAsset.sol",
  "compiler": {
    "name": "solc",
    "version": "0.4.24+commit.e67f0147.Emscripten.clang"
  },
  "schemaVersion": "2.0.1",
  "updatedAt": "2018-09-14T10:36:56.054Z"
}