{
  "contractName": "AssetRegistry",
  "abi": [
    {
      "constant": true,
      "inputs": [
        {
          "name": "",
          "type": "uint256"
        }
      ],
      "name": "idAssets",
      "outputs": [
        {
          "name": "",
          "type": "address"
        }
      ],
      "payable": false,
      "stateMutability": "view",
      "type": "function"
    },
    {
      "constant": false,
      "inputs": [],
      "name": "renounceOwnership",
      "outputs": [],
      "payable": false,
      "stateMutability": "nonpayable",
      "type": "function"
    },
    {
      "constant": true,
      "inputs": [],
      "name": "owner",
      "outputs": [
        {
          "name": "",
          "type": "address"
        }
      ],
      "payable": false,
      "stateMutability": "view",
      "type": "function"
    },
    {
      "constant": false,
      "inputs": [
        {
          "name": "_newOwner",
          "type": "address"
        }
      ],
      "name": "transferOwnership",
      "outputs": [],
      "payable": false,
      "stateMutability": "nonpayable",
      "type": "function"
    },
    {
      "inputs": [],
      "payable": false,
      "stateMutability": "nonpayable",
      "type": "constructor"
    },
    {
      "anonymous": false,
      "inputs": [
        {
          "indexed": true,
          "name": "asset",
          "type": "address"
        },
        {
          "indexed": true,
          "name": "id",
          "type": "uint256"
        }
      ],
      "name": "AssetRegistered",
      "type": "event"
    },
    {
      "anonymous": false,
      "inputs": [
        {
          "indexed": true,
          "name": "previousOwner",
          "type": "address"
        }
      ],
      "name": "OwnershipRenounced",
      "type": "event"
    },
    {
      "anonymous": false,
      "inputs": [
        {
          "indexed": true,
          "name": "previousOwner",
          "type": "address"
        },
        {
          "indexed": true,
          "name": "newOwner",
          "type": "address"
        }
      ],
      "name": "OwnershipTransferred",
      "type": "event"
    },
    {
      "constant": false,
      "inputs": [
        {
          "name": "_name",
          "type": "string"
        },
        {
          "name": "_symbol",
          "type": "string"
        },
        {
          "name": "_supplyLimit",
          "type": "uint256"
        },
        {
          "name": "_uri",
          "type": "string"
        },
        {
          "name": "_owner",
          "type": "address"
        },
        {
          "name": "_controller",
          "type": "address"
        }
      ],
      "name": "registerClass",
      "outputs": [
        {
          "name": "",
          "type": "uint256"
        }
      ],
      "payable": false,
      "stateMutability": "nonpayable",
      "type": "function"
    },
    {
      "constant": true,
      "inputs": [
        {
          "name": "_name",
          "type": "string"
        },
        {
          "name": "_symbol",
          "type": "string"
        },
        {
          "name": "_uri",
          "type": "string"
        }
      ],
      "name": "getId",
      "outputs": [
        {
          "name": "",
          "type": "uint256"
        }
      ],
      "payable": false,
      "stateMutability": "pure",
      "type": "function"
    }
  ],
  "bytecode": "0x608060405234801561001057600080fd5b50336000806101000a81548173ffffffffffffffffffffffffffffffffffffffff021916908373ffffffffffffffffffffffffffffffffffffffff16021790555061394f806100606000396000f3006080604052600436106200007f576000357c0100000000000000000000000000000000000000000000000000000000900463ffffffff168063364006a214620000845780635cb5f98114620000f4578063715018a6146200024a5780638da5cb5b1462000264578063d6548bb114620002be578063f2fde38b14620003ca575b600080fd5b3480156200009157600080fd5b50620000b26004803603810190808035906020019092919050505062000410565b604051808273ffffffffffffffffffffffffffffffffffffffff1673ffffffffffffffffffffffffffffffffffffffff16815260200191505060405180910390f35b3480156200010157600080fd5b5062000234600480360381019080803590602001908201803590602001908080601f0160208091040260200160405190810160405280939291908181526020018383808284378201915050505050509192919290803590602001908201803590602001908080601f016020809104026020016040519081016040528093929190818152602001838380828437820191505050505050919291929080359060200190929190803590602001908201803590602001908080601f0160208091040260200160405190810160405280939291908181526020018383808284378201915050505050509192919290803573ffffffffffffffffffffffffffffffffffffffff169060200190929190803573ffffffffffffffffffffffffffffffffffffffff16906020019092919050505062000443565b6040518082815260200191505060405180910390f35b3480156200025757600080fd5b5062000262620004bd565b005b3480156200027157600080fd5b506200027c620005c0565b604051808273ffffffffffffffffffffffffffffffffffffffff1673ffffffffffffffffffffffffffffffffffffffff16815260200191505060405180910390f35b348015620002cb57600080fd5b50620003b4600480360381019080803590602001908201803590602001908080601f0160208091040260200160405190810160405280939291908181526020018383808284378201915050505050509192919290803590602001908201803590602001908080601f0160208091040260200160405190810160405280939291908181526020018383808284378201915050505050509192919290803590602001908201803590602001908080601f0160208091040260200160405190810160405280939291908181526020018383808284378201915050505050509192919290505050620005e5565b6040518082815260200191505060405180910390f35b348015620003d757600080fd5b506200040e600480360381019080803573ffffffffffffffffffffffffffffffffffffffff1690602001909291905050506200077a565b005b60016020528060005260406000206000915054906101000a900473ffffffffffffffffffffffffffffffffffffffff1681565b60008060009054906101000a900473ffffffffffffffffffffffffffffffffffffffff1673ffffffffffffffffffffffffffffffffffffffff163373ffffffffffffffffffffffffffffffffffffffff16141515620004a157600080fd5b620004b1878787878787620007e4565b90509695505050505050565b6000809054906101000a900473ffffffffffffffffffffffffffffffffffffffff1673ffffffffffffffffffffffffffffffffffffffff163373ffffffffffffffffffffffffffffffffffffffff161415156200051957600080fd5b6000809054906101000a900473ffffffffffffffffffffffffffffffffffffffff1673ffffffffffffffffffffffffffffffffffffffff167ff8df31144d9c2f0f6b59d69b8b98abd5459d07f2742c4df920b25aae33c6482060405160405180910390a260008060006101000a81548173ffffffffffffffffffffffffffffffffffffffff021916908373ffffffffffffffffffffffffffffffffffffffff160217905550565b6000809054906101000a900473ffffffffffffffffffffffffffffffffffffffff1681565b6000808484846040516020018084805190602001908083835b602083101515620006255780518252602082019150602081019050602083039250620005fe565b6001836020036101000a03801982511681845116808217855250505050505090500183805190602001908083835b6020831015156200067a578051825260208201915060208101905060208303925062000653565b6001836020036101000a03801982511681845116808217855250505050505090500182805190602001908083835b602083101515620006cf5780518252602082019150602081019050602083039250620006a8565b6001836020036101000a03801982511681845116808217855250505050505090500193505050506040516020818303038152906040526040518082805190602001908083835b6020831015156200073c578051825260208201915060208101905060208303925062000715565b6001836020036101000a0380198251168184511680821785525050505050509050019150506040518091039020600190049050809150509392505050565b6000809054906101000a900473ffffffffffffffffffffffffffffffffffffffff1673ffffffffffffffffffffffffffffffffffffffff163373ffffffffffffffffffffffffffffffffffffffff16141515620007d657600080fd5b620007e18162000af9565b50565b6000806000620007f6898988620005e5565b9150600073ffffffffffffffffffffffffffffffffffffffff166001600084815260200190815260200160002060009054906101000a900473ffffffffffffffffffffffffffffffffffffffff1673ffffffffffffffffffffffffffffffffffffffff161415156200086757600080fd5b8888888888886200087762000bf4565b808060200180602001878152602001806020018673ffffffffffffffffffffffffffffffffffffffff1673ffffffffffffffffffffffffffffffffffffffff1681526020018573ffffffffffffffffffffffffffffffffffffffff1673ffffffffffffffffffffffffffffffffffffffff16815260200184810384528a818151815260200191508051906020019080838360005b83811015620009285780820151818401526020810190506200090b565b50505050905090810190601f168015620009565780820380516001836020036101000a031916815260200191505b50848103835289818151815260200191508051906020019080838360005b838110156200099157808201518184015260208101905062000974565b50505050905090810190601f168015620009bf5780820380516001836020036101000a031916815260200191505b50848103825287818151815260200191508051906020019080838360005b83811015620009fa578082015181840152602081019050620009dd565b50505050905090810190601f16801562000a285780820380516001836020036101000a031916815260200191505b509950505050505050505050604051809103906000f08015801562000a51573d6000803e3d6000fd5b509050806001600084815260200190815260200160002060006101000a81548173ffffffffffffffffffffffffffffffffffffffff021916908373ffffffffffffffffffffffffffffffffffffffff160217905550818173ffffffffffffffffffffffffffffffffffffffff167ffd64e3f1068245597a589d8b057edbd3d3c312207d5c6d0d770825f68604ff1a60405160405180910390a381925050509695505050505050565b600073ffffffffffffffffffffffffffffffffffffffff168173ffffffffffffffffffffffffffffffffffffffff161415151562000b3657600080fd5b8073ffffffffffffffffffffffffffffffffffffffff166000809054906101000a900473ffffffffffffffffffffffffffffffffffffffff1673ffffffffffffffffffffffffffffffffffffffff167f8be0079c531659141344cd1fd0a4f28419497f9722a3daafe3b4186f6b6457e060405160405180910390a3806000806101000a81548173ffffffffffffffffffffffffffffffffffffffff021916908373ffffffffffffffffffffffffffffffffffffffff16021790555050565b604051612d1e8062000c0683390190560060806040523480156200001157600080fd5b5060405162002d1e38038062002d1e8339810180604052810190808051820192919060200180518201929190602001805190602001909291908051820192919060200180519060200190929190805190602001909291905050508585620000aa6301ffc9a77c01000000000000000000000000000000000000000000000000000000000262000375640100000000026401000000009004565b620000e76380ac58cd7c01000000000000000000000000000000000000000000000000000000000262000375640100000000026401000000009004565b62000124634f558e797c01000000000000000000000000000000000000000000000000000000000262000375640100000000026401000000009004565b81600590805190602001906200013c92919062000433565b5080600690805190602001906200015592919062000433565b506200019363780e9d637c01000000000000000000000000000000000000000000000000000000000262000375640100000000026401000000009004565b620001d0635b5e139f7c01000000000000000000000000000000000000000000000000000000000262000375640100000000026401000000009004565b505033600c60006101000a81548173ffffffffffffffffffffffffffffffffffffffff021916908373ffffffffffffffffffffffffffffffffffffffff16021790555033600d60006101000a81548173ffffffffffffffffffffffffffffffffffffffff021916908373ffffffffffffffffffffffffffffffffffffffff16021790555080600d60006101000a81548173ffffffffffffffffffffffffffffffffffffffff021916908373ffffffffffffffffffffffffffffffffffffffff1602179055508260109080519060200190620002ad92919062000433565b5060008414620002be5783620002e0565b7fffffffffffffffffffffffffffffffffffffffffffffffffffffffffffffffff5b600f8190555081600c60006101000a81548173ffffffffffffffffffffffffffffffffffffffff021916908373ffffffffffffffffffffffffffffffffffffffff16021790555062000369631b2b8ef17c010000000000000000000000000000000000000000000000000000000002620003756401000000000262002743176401000000009004565b505050505050620004e2565b63ffffffff7c010000000000000000000000000000000000000000000000000000000002817bffffffffffffffffffffffffffffffffffffffffffffffffffffffff191614151515620003c757600080fd5b6001600080837bffffffffffffffffffffffffffffffffffffffffffffffffffffffff19167bffffffffffffffffffffffffffffffffffffffffffffffffffffffff1916815260200190815260200160002060006101000a81548160ff02191690831515021790555050565b828054600181600116156101000203166002900490600052602060002090601f016020900481019282601f106200047657805160ff1916838001178555620004a7565b82800160010185558215620004a7579182015b82811115620004a657825182559160200191906001019062000489565b5b509050620004b69190620004ba565b5090565b620004df91905b80821115620004db576000816000905550600101620004c1565b5090565b90565b61282c80620004f26000396000f30060806040526004361061015f576000357c0100000000000000000000000000000000000000000000000000000000900463ffffffff16806301ffc9a71461016457806306fdde03146101c8578063081812fc14610258578063095ea7b3146102c557806318160ddd1461031257806319d1997a1461033d57806319fa8f501461036857806323b872dd146103d15780632f745c591461043e5780633cebb8231461049f57806342842e0e146104e257806342966c681461054f5780634f558e791461057c5780634f6ccce7146105c15780636352211e1461060257806370a082311461066f578063715018a6146106c65780638da5cb5b146106dd57806395d89b4114610734578063a22cb465146107c4578063b88d4fde14610813578063c87b56dd146108c6578063d0def5211461096c578063e985e9c5146109e8578063eac989f814610a63578063f2fde38b14610af3578063f77c479114610b36575b600080fd5b34801561017057600080fd5b506101ae60048036038101908080357bffffffffffffffffffffffffffffffffffffffffffffffffffffffff19169060200190929190505050610b8d565b604051808215151515815260200191505060405180910390f35b3480156101d457600080fd5b506101dd610bf4565b6040518080602001828103825283818151815260200191508051906020019080838360005b8381101561021d578082015181840152602081019050610202565b50505050905090810190601f16801561024a5780820380516001836020036101000a031916815260200191505b509250505060405180910390f35b34801561026457600080fd5b5061028360048036038101908080359060200190929190505050610c96565b604051808273ffffffffffffffffffffffffffffffffffffffff1673ffffffffffffffffffffffffffffffffffffffff16815260200191505060405180910390f35b3480156102d157600080fd5b50610310600480360381019080803573ffffffffffffffffffffffffffffffffffffffff16906020019092919080359060200190929190505050610cd3565b005b34801561031e57600080fd5b50610327610e18565b6040518082815260200191505060405180910390f35b34801561034957600080fd5b50610352610e25565b6040518082815260200191505060405180910390f35b34801561037457600080fd5b5061037d610e2b565b60405180827bffffffffffffffffffffffffffffffffffffffffffffffffffffffff19167bffffffffffffffffffffffffffffffffffffffffffffffffffffffff1916815260200191505060405180910390f35b3480156103dd57600080fd5b5061043c600480360381019080803573ffffffffffffffffffffffffffffffffffffffff169060200190929190803573ffffffffffffffffffffffffffffffffffffffff16906020019092919080359060200190929190505050610e52565b005b34801561044a57600080fd5b50610489600480360381019080803573ffffffffffffffffffffffffffffffffffffffff16906020019092919080359060200190929190505050610f5d565b6040518082815260200191505060405180910390f35b3480156104ab57600080fd5b506104e0600480360381019080803573ffffffffffffffffffffffffffffffffffffffff169060200190929190505050610fd4565b005b3480156104ee57600080fd5b5061054d600480360381019080803573ffffffffffffffffffffffffffffffffffffffff169060200190929190803573ffffffffffffffffffffffffffffffffffffffff16906020019092919080359060200190929190505050611074565b005b34801561055b57600080fd5b5061057a60048036038101908080359060200190929190505050611095565b005b34801561058857600080fd5b506105a7600480360381019080803590602001909291905050506110a2565b604051808215151515815260200191505060405180910390f35b3480156105cd57600080fd5b506105ec60048036038101908080359060200190929190505050611114565b6040518082815260200191505060405180910390f35b34801561060e57600080fd5b5061062d6004803603810190808035906020019092919050505061114c565b604051808273ffffffffffffffffffffffffffffffffffffffff1673ffffffffffffffffffffffffffffffffffffffff16815260200191505060405180910390f35b34801561067b57600080fd5b506106b0600480360381019080803573ffffffffffffffffffffffffffffffffffffffff1690602001909291905050506111ca565b6040518082815260200191505060405180910390f35b3480156106d257600080fd5b506106db61124e565b005b3480156106e957600080fd5b506106f2611353565b604051808273ffffffffffffffffffffffffffffffffffffffff1673ffffffffffffffffffffffffffffffffffffffff16815260200191505060405180910390f35b34801561074057600080fd5b50610749611379565b6040518080602001828103825283818151815260200191508051906020019080838360005b8381101561078957808201518184015260208101905061076e565b50505050905090810190601f1680156107b65780820380516001836020036101000a031916815260200191505b509250505060405180910390f35b3480156107d057600080fd5b50610811600480360381019080803573ffffffffffffffffffffffffffffffffffffffff16906020019092919080351515906020019092919050505061141b565b005b34801561081f57600080fd5b506108c4600480360381019080803573ffffffffffffffffffffffffffffffffffffffff169060200190929190803573ffffffffffffffffffffffffffffffffffffffff16906020019092919080359060200190929190803590602001908201803590602001908080601f0160208091040260200160405190810160405280939291908181526020018383808284378201915050505050509192919290505050611557565b005b3480156108d257600080fd5b506108f16004803603810190808035906020019092919050505061157f565b6040518080602001828103825283818151815260200191508051906020019080838360005b83811015610931578082015181840152602081019050610916565b50505050905090810190601f16801561095e5780820380516001836020036101000a031916815260200191505b509250505060405180910390f35b6109e6600480360381019080803573ffffffffffffffffffffffffffffffffffffffff169060200190929190803590602001908201803590602001908080601f0160208091040260200160405190810160405280939291908181526020018383808284378201915050505050509192919290505050611648565b005b3480156109f457600080fd5b50610a49600480360381019080803573ffffffffffffffffffffffffffffffffffffffff169060200190929190803573ffffffffffffffffffffffffffffffffffffffff16906020019092919050505061170a565b604051808215151515815260200191505060405180910390f35b348015610a6f57600080fd5b50610a7861179e565b6040518080602001828103825283818151815260200191508051906020019080838360005b83811015610ab8578082015181840152602081019050610a9d565b50505050905090810190601f168015610ae55780820380516001836020036101000a031916815260200191505b509250505060405180910390f35b348015610aff57600080fd5b50610b34600480360381019080803573ffffffffffffffffffffffffffffffffffffffff16906020019092919050505061183c565b005b348015610b4257600080fd5b50610b4b6118a4565b604051808273ffffffffffffffffffffffffffffffffffffffff1673ffffffffffffffffffffffffffffffffffffffff16815260200191505060405180910390f35b6000806000837bffffffffffffffffffffffffffffffffffffffffffffffffffffffff19167bffffffffffffffffffffffffffffffffffffffffffffffffffffffff1916815260200190815260200160002060009054906101000a900460ff169050919050565b606060058054600181600116156101000203166002900480601f016020809104026020016040519081016040528092919081815260200182805460018160011615610100020316600290048015610c8c5780601f10610c6157610100808354040283529160200191610c8c565b820191906000526020600020905b815481529060010190602001808311610c6f57829003601f168201915b5050505050905090565b60006002600083815260200190815260200160002060009054906101000a900473ffffffffffffffffffffffffffffffffffffffff169050919050565b6000610cde8261114c565b90508073ffffffffffffffffffffffffffffffffffffffff168373ffffffffffffffffffffffffffffffffffffffff1614151515610d1b57600080fd5b8073ffffffffffffffffffffffffffffffffffffffff163373ffffffffffffffffffffffffffffffffffffffff161480610d5b5750610d5a813361170a565b5b1515610d6657600080fd5b826002600084815260200190815260200160002060006101000a81548173ffffffffffffffffffffffffffffffffffffffff021916908373ffffffffffffffffffffffffffffffffffffffff160217905550818373ffffffffffffffffffffffffffffffffffffffff168273ffffffffffffffffffffffffffffffffffffffff167f8c5be1e5ebec7d5bd14f71427d1e84f3dd0314c0f7b2291e5b200ac8c7c3b92560405160405180910390a4505050565b6000600980549050905090565b600f5481565b6301ffc9a77c01000000000000000000000000000000000000000000000000000000000281565b610e5c33826118ca565b1515610e6757600080fd5b600073ffffffffffffffffffffffffffffffffffffffff168373ffffffffffffffffffffffffffffffffffffffff1614151515610ea357600080fd5b600073ffffffffffffffffffffffffffffffffffffffff168273ffffffffffffffffffffffffffffffffffffffff1614151515610edf57600080fd5b610ee9838261195f565b610ef38382611a62565b610efd8282611c1e565b808273ffffffffffffffffffffffffffffffffffffffff168473ffffffffffffffffffffffffffffffffffffffff167fddf252ad1be2c89b69c2b068fc378daa952ba7f163c4a11628f55a4df523b3ef60405160405180910390a4505050565b6000610f68836111ca565b82101515610f7557600080fd5b600760008473ffffffffffffffffffffffffffffffffffffffff1673ffffffffffffffffffffffffffffffffffffffff16815260200190815260200160002082815481101515610fc157fe5b9060005260206000200154905092915050565b600c60009054906101000a900473ffffffffffffffffffffffffffffffffffffffff1673ffffffffffffffffffffffffffffffffffffffff163373ffffffffffffffffffffffffffffffffffffffff1614151561103057600080fd5b80600d60006101000a81548173ffffffffffffffffffffffffffffffffffffffff021916908373ffffffffffffffffffffffffffffffffffffffff16021790555050565b6110908383836020604051908101604052806000815250611557565b505050565b61109f3382611cf5565b50565b6000806001600084815260200190815260200160002060009054906101000a900473ffffffffffffffffffffffffffffffffffffffff169050600073ffffffffffffffffffffffffffffffffffffffff168173ffffffffffffffffffffffffffffffffffffffff161415915050919050565b600061111e610e18565b8210151561112b57600080fd5b60098281548110151561113a57fe5b90600052602060002001549050919050565b6000806001600084815260200190815260200160002060009054906101000a900473ffffffffffffffffffffffffffffffffffffffff169050600073ffffffffffffffffffffffffffffffffffffffff168173ffffffffffffffffffffffffffffffffffffffff16141515156111c157600080fd5b80915050919050565b60008073ffffffffffffffffffffffffffffffffffffffff168273ffffffffffffffffffffffffffffffffffffffff161415151561120757600080fd5b600360008373ffffffffffffffffffffffffffffffffffffffff1673ffffffffffffffffffffffffffffffffffffffff168152602001908152602001600020549050919050565b600c60009054906101000a900473ffffffffffffffffffffffffffffffffffffffff1673ffffffffffffffffffffffffffffffffffffffff163373ffffffffffffffffffffffffffffffffffffffff161415156112aa57600080fd5b600c60009054906101000a900473ffffffffffffffffffffffffffffffffffffffff1673ffffffffffffffffffffffffffffffffffffffff167ff8df31144d9c2f0f6b59d69b8b98abd5459d07f2742c4df920b25aae33c6482060405160405180910390a26000600c60006101000a81548173ffffffffffffffffffffffffffffffffffffffff021916908373ffffffffffffffffffffffffffffffffffffffff160217905550565b600c60009054906101000a900473ffffffffffffffffffffffffffffffffffffffff1681565b606060068054600181600116156101000203166002900480601f0160208091040260200160405190810160405280929190818152602001828054600181600116156101000203166002900480156114115780601f106113e657610100808354040283529160200191611411565b820191906000526020600020905b8154815290600101906020018083116113f457829003601f168201915b5050505050905090565b3373ffffffffffffffffffffffffffffffffffffffff168273ffffffffffffffffffffffffffffffffffffffff161415151561145657600080fd5b80600460003373ffffffffffffffffffffffffffffffffffffffff1673ffffffffffffffffffffffffffffffffffffffff16815260200190815260200160002060008473ffffffffffffffffffffffffffffffffffffffff1673ffffffffffffffffffffffffffffffffffffffff16815260200190815260200160002060006101000a81548160ff0219169083151502179055508173ffffffffffffffffffffffffffffffffffffffff163373ffffffffffffffffffffffffffffffffffffffff167f17307eab39ab6107e8899845ad3d59bd9653f200f220920489ca2b5937696c3183604051808215151515815260200191505060405180910390a35050565b611562848484610e52565b61156e84848484611e2d565b151561157957600080fd5b50505050565b606061158a826110a2565b151561159557600080fd5b600b60008381526020019081526020016000208054600181600116156101000203166002900480601f01602080910402602001604051908101604052809291908181526020018280546001816001161561010002031660029004801561163c5780601f106116115761010080835404028352916020019161163c565b820191906000526020600020905b81548152906001019060200180831161161f57829003601f168201915b50505050509050919050565b600d60009054906101000a900473ffffffffffffffffffffffffffffffffffffffff1673ffffffffffffffffffffffffffffffffffffffff163373ffffffffffffffffffffffffffffffffffffffff1614806116f15750600c60009054906101000a900473ffffffffffffffffffffffffffffffffffffffff1673ffffffffffffffffffffffffffffffffffffffff163373ffffffffffffffffffffffffffffffffffffffff16145b15156116fc57600080fd5b611706828261204f565b5050565b6000600460008473ffffffffffffffffffffffffffffffffffffffff1673ffffffffffffffffffffffffffffffffffffffff16815260200190815260200160002060008373ffffffffffffffffffffffffffffffffffffffff1673ffffffffffffffffffffffffffffffffffffffff16815260200190815260200160002060009054906101000a900460ff16905092915050565b60108054600181600116156101000203166002900480601f0160208091040260200160405190810160405280929190818152602001828054600181600116156101000203166002900480156118345780601f1061180957610100808354040283529160200191611834565b820191906000526020600020905b81548152906001019060200180831161181757829003601f168201915b505050505081565b600c60009054906101000a900473ffffffffffffffffffffffffffffffffffffffff1673ffffffffffffffffffffffffffffffffffffffff163373ffffffffffffffffffffffffffffffffffffffff1614151561189857600080fd5b6118a1816120ac565b50565b600d60009054906101000a900473ffffffffffffffffffffffffffffffffffffffff1681565b6000806118d68361114c565b90508073ffffffffffffffffffffffffffffffffffffffff168473ffffffffffffffffffffffffffffffffffffffff16148061194557508373ffffffffffffffffffffffffffffffffffffffff1661192d84610c96565b73ffffffffffffffffffffffffffffffffffffffff16145b806119565750611955818561170a565b5b91505092915050565b8173ffffffffffffffffffffffffffffffffffffffff1661197f8261114c565b73ffffffffffffffffffffffffffffffffffffffff161415156119a157600080fd5b600073ffffffffffffffffffffffffffffffffffffffff166002600083815260200190815260200160002060009054906101000a900473ffffffffffffffffffffffffffffffffffffffff1673ffffffffffffffffffffffffffffffffffffffff16141515611a5e5760006002600083815260200190815260200160002060006101000a81548173ffffffffffffffffffffffffffffffffffffffff021916908373ffffffffffffffffffffffffffffffffffffffff1602179055505b5050565b6000806000611a7185856121a8565b60086000858152602001908152602001600020549250611add6001600760008873ffffffffffffffffffffffffffffffffffffffff1673ffffffffffffffffffffffffffffffffffffffff168152602001908152602001600020805490506122d790919063ffffffff16565b9150600760008673ffffffffffffffffffffffffffffffffffffffff1673ffffffffffffffffffffffffffffffffffffffff16815260200190815260200160002082815481101515611b2b57fe5b9060005260206000200154905080600760008773ffffffffffffffffffffffffffffffffffffffff1673ffffffffffffffffffffffffffffffffffffffff16815260200190815260200160002084815481101515611b8557fe5b9060005260206000200181905550600760008673ffffffffffffffffffffffffffffffffffffffff1673ffffffffffffffffffffffffffffffffffffffff168152602001908152602001600020805480919060019003611be5919061262a565b50600060086000868152602001908152602001600020819055508260086000838152602001908152602001600020819055505050505050565b6000611c2a83836122f0565b600760008473ffffffffffffffffffffffffffffffffffffffff1673ffffffffffffffffffffffffffffffffffffffff168152602001908152602001600020805490509050600760008473ffffffffffffffffffffffffffffffffffffffff1673ffffffffffffffffffffffffffffffffffffffff168152602001908152602001600020829080600181540180825580915050906001820390600052602060002001600090919290919091505550806008600084815260200190815260200160002081905550505050565b6000806000611d04858561244a565b6000600b6000868152602001908152602001600020805460018160011615610100020316600290049050141515611d5557600b60008581526020019081526020016000206000611d549190612656565b5b600a6000858152602001908152602001600020549250611d8460016009805490506122d790919063ffffffff16565b9150600982815481101515611d9557fe5b9060005260206000200154905080600984815481101515611db257fe5b90600052602060002001819055506000600983815481101515611dd157fe5b90600052602060002001819055506009805480919060019003611df4919061262a565b506000600a60008681526020019081526020016000208190555082600a6000838152602001908152602001600020819055505050505050565b600080611e4f8573ffffffffffffffffffffffffffffffffffffffff166124be565b1515611e5e5760019150612046565b8473ffffffffffffffffffffffffffffffffffffffff1663150b7a02338887876040518563ffffffff167c0100000000000000000000000000000000000000000000000000000000028152600401808573ffffffffffffffffffffffffffffffffffffffff1673ffffffffffffffffffffffffffffffffffffffff1681526020018473ffffffffffffffffffffffffffffffffffffffff1673ffffffffffffffffffffffffffffffffffffffff16815260200183815260200180602001828103825283818151815260200191508051906020019080838360005b83811015611f53578082015181840152602081019050611f38565b50505050905090810190601f168015611f805780820380516001836020036101000a031916815260200191505b5095505050505050602060405180830381600087803b158015611fa257600080fd5b505af1158015611fb6573d6000803e3d6000fd5b505050506040513d6020811015611fcc57600080fd5b8101908080519060200190929190505050905063150b7a027c0100000000000000000000000000000000000000000000000000000000027bffffffffffffffffffffffffffffffffffffffffffffffffffffffff1916817bffffffffffffffffffffffffffffffffffffffffffffffffffffffff19161491505b50949350505050565b60006120676001600e546124d190919063ffffffff16565b9050612072816110a2565b1580156120815750600f548111155b151561208c57600080fd5b80600e8190555061209d83826124ed565b6120a78183612544565b505050565b600073ffffffffffffffffffffffffffffffffffffffff168173ffffffffffffffffffffffffffffffffffffffff16141515156120e857600080fd5b8073ffffffffffffffffffffffffffffffffffffffff16600c60009054906101000a900473ffffffffffffffffffffffffffffffffffffffff1673ffffffffffffffffffffffffffffffffffffffff167f8be0079c531659141344cd1fd0a4f28419497f9722a3daafe3b4186f6b6457e060405160405180910390a380600c60006101000a81548173ffffffffffffffffffffffffffffffffffffffff021916908373ffffffffffffffffffffffffffffffffffffffff16021790555050565b8173ffffffffffffffffffffffffffffffffffffffff166121c88261114c565b73ffffffffffffffffffffffffffffffffffffffff161415156121ea57600080fd5b61223d6001600360008573ffffffffffffffffffffffffffffffffffffffff1673ffffffffffffffffffffffffffffffffffffffff168152602001908152602001600020546122d790919063ffffffff16565b600360008473ffffffffffffffffffffffffffffffffffffffff1673ffffffffffffffffffffffffffffffffffffffff1681526020019081526020016000208190555060006001600083815260200190815260200160002060006101000a81548173ffffffffffffffffffffffffffffffffffffffff021916908373ffffffffffffffffffffffffffffffffffffffff1602179055505050565b60008282111515156122e557fe5b818303905092915050565b600073ffffffffffffffffffffffffffffffffffffffff166001600083815260200190815260200160002060009054906101000a900473ffffffffffffffffffffffffffffffffffffffff1673ffffffffffffffffffffffffffffffffffffffff1614151561235e57600080fd5b816001600083815260200190815260200160002060006101000a81548173ffffffffffffffffffffffffffffffffffffffff021916908373ffffffffffffffffffffffffffffffffffffffff1602179055506124036001600360008573ffffffffffffffffffffffffffffffffffffffff1673ffffffffffffffffffffffffffffffffffffffff168152602001908152602001600020546124d190919063ffffffff16565b600360008473ffffffffffffffffffffffffffffffffffffffff1673ffffffffffffffffffffffffffffffffffffffff168152602001908152602001600020819055505050565b612454828261195f565b61245e8282611a62565b80600073ffffffffffffffffffffffffffffffffffffffff168373ffffffffffffffffffffffffffffffffffffffff167fddf252ad1be2c89b69c2b068fc378daa952ba7f163c4a11628f55a4df523b3ef60405160405180910390a45050565b600080823b905060008111915050919050565b600081830190508281101515156124e457fe5b80905092915050565b6124f78282612584565b600980549050600a60008381526020019081526020016000208190555060098190806001815401808255809150509060018203906000526020600020016000909192909190915055505050565b61254d826110a2565b151561255857600080fd5b80600b6000848152602001908152602001600020908051906020019061257f92919061269e565b505050565b600073ffffffffffffffffffffffffffffffffffffffff168273ffffffffffffffffffffffffffffffffffffffff16141515156125c057600080fd5b6125ca8282611c1e565b808273ffffffffffffffffffffffffffffffffffffffff16600073ffffffffffffffffffffffffffffffffffffffff167fddf252ad1be2c89b69c2b068fc378daa952ba7f163c4a11628f55a4df523b3ef60405160405180910390a45050565b81548183558181111561265157818360005260206000209182019101612650919061271e565b5b505050565b50805460018160011615610100020316600290046000825580601f1061267c575061269b565b601f01602090049060005260206000209081019061269a919061271e565b5b50565b828054600181600116156101000203166002900490600052602060002090601f016020900481019282601f106126df57805160ff191683800117855561270d565b8280016001018555821561270d579182015b8281111561270c5782518255916020019190600101906126f1565b5b50905061271a919061271e565b5090565b61274091905b8082111561273c576000816000905550600101612724565b5090565b90565b63ffffffff7c010000000000000000000000000000000000000000000000000000000002817bffffffffffffffffffffffffffffffffffffffffffffffffffffffff19161415151561279457600080fd5b6001600080837bffffffffffffffffffffffffffffffffffffffffffffffffffffffff19167bffffffffffffffffffffffffffffffffffffffffffffffffffffffff1916815260200190815260200160002060006101000a81548160ff021916908315150217905550505600a165627a7a72305820d188fd665e7a161dbb945c31ee49ecdfef0d45fa1e2b83ad918c0822dec7f6680029a165627a7a72305820bd6ab2c9caf02b97bda12e795b80acae7d5bf4139ee55e6d850f5f633a3e55b10029",
  "source": "pragma solidity ^0.4.19;\r\n\r\nimport './StandardAsset.sol';\r\nimport \"openzeppelin-solidity/contracts/ownership/Ownable.sol\";\r\n\r\ncontract AssetRegistry is Ownable {\r\n\r\n    event AssetRegistered(StandardAsset indexed asset, uint indexed id);\r\n\r\n    // Mapping from contract ID to StandardAsset\r\n    mapping(uint => StandardAsset) public idAssets;\r\n\r\n    constructor() public {\r\n\r\n    }\r\n\r\n    /**\r\n    * @dev  Registering a type of asset that has at most one asset\r\n    * @param _name AssetType name\r\n    * @param _symbol AssetType symbol\r\n    */\r\n    /*function registerClass(string _name, string _symbol, address _owner) onlyOwner public returns (uint){\r\n        return register(_name, _symbol, 0, \"\", _owner);\r\n    }*/\r\n\r\n    /**\r\n    * @dev  Registering a type of asset\r\n    * @param _name AssetType name\r\n    * @param _symbol AssetType symbol\r\n    * @param _supplyLimit supply limit\r\n    * @param _uri AssetType metadata uri\r\n    */\r\n    function registerClass(string _name, string _symbol, uint256 _supplyLimit, string _uri, address _owner,address _controller) onlyOwner public returns (uint){\r\n        return _register(_name, _symbol, _supplyLimit, _uri, _owner,_controller);\r\n    }\r\n\r\n\r\n    /**\r\n    * @dev internal function, Registering a type of asset\r\n    * @param _name AssetType name\r\n    * @param _symbol AssetType symbol\r\n    * @param _uri AssetType metadata uri\r\n    */\r\n    function _register(string _name, string _symbol, uint256 _supplyLimit, string _uri, address _owner,address _controller) internal returns (uint){\r\n        uint id = getId(_name, _symbol, _uri);\r\n        require(idAssets[id] == address(0x0));\r\n        StandardAsset asset = new StandardAsset(_name, _symbol, _supplyLimit, _uri, _owner,_controller);\r\n        idAssets[id] = asset;\r\n        emit AssetRegistered(asset, id);\r\n        return id;\r\n    }\r\n\r\n    /**\r\n    * @dev id generator\r\n    */\r\n    function getId(string _name, string _symbol, string _uri) public pure returns (uint){\r\n        uint256 id = uint256(keccak256(abi.encodePacked(_name, _symbol, _uri)));\r\n        return id;\r\n    }\r\n\r\n}\r\n",
  "sourcePath": "G:\\GitRepository\\udap\\uc3\\contracts\\AssetRegistry.sol",
  "compiler": {
    "name": "solc",
    "version": "0.4.24+commit.e67f0147.Emscripten.clang"
  },
  "schemaVersion": "2.0.1",
  "updatedAt": "2018-11-07T09:52:41.261Z"
}