{
  "contractName": "AssetRegistry",
  "abi": [
    {
      "constant": true,
      "inputs": [],
      "name": "owner",
      "outputs": [
        {
          "name": "",
          "type": "address"
        }
      ],
      "payable": false,
      "stateMutability": "view",
      "type": "function"
    },
    {
      "inputs": [],
      "payable": false,
      "stateMutability": "nonpayable",
      "type": "constructor"
    },
    {
      "anonymous": false,
      "inputs": [
        {
          "indexed": true,
          "name": "asset",
          "type": "address"
        },
        {
          "indexed": true,
          "name": "assetId",
          "type": "uint256"
        }
      ],
      "name": "AssetRegistered",
      "type": "event"
    },
    {
      "constant": false,
      "inputs": [
        {
          "name": "_owner",
          "type": "address"
        },
        {
          "name": "_nsi",
          "type": "bytes32"
        },
        {
          "name": "_transferrable",
          "type": "bool"
        },
        {
          "name": "_fungible",
          "type": "bool"
        },
        {
          "name": "data",
          "type": "string"
        },
        {
          "name": "_metadataRef",
          "type": "bytes32"
        }
      ],
      "name": "createAsset",
      "outputs": [
        {
          "name": "",
          "type": "address"
        }
      ],
      "payable": false,
      "stateMutability": "nonpayable",
      "type": "function"
    },
    {
      "constant": false,
      "inputs": [
        {
          "name": "_asset",
          "type": "address"
        }
      ],
      "name": "register",
      "outputs": [],
      "payable": false,
      "stateMutability": "nonpayable",
      "type": "function"
    },
    {
      "constant": true,
      "inputs": [],
      "name": "getCount",
      "outputs": [
        {
          "name": "",
          "type": "uint256"
        }
      ],
      "payable": false,
      "stateMutability": "view",
      "type": "function"
    },
    {
      "constant": true,
      "inputs": [
        {
          "name": "assetId",
          "type": "uint256"
        }
      ],
      "name": "getAsset",
      "outputs": [
        {
          "name": "",
          "type": "address"
        }
      ],
      "payable": false,
      "stateMutability": "view",
      "type": "function"
    },
    {
      "constant": true,
      "inputs": [],
      "name": "getOwnAssets",
      "outputs": [
        {
          "name": "",
          "type": "address[]"
        }
      ],
      "payable": false,
      "stateMutability": "view",
      "type": "function"
    }
  ],
  "bytecode": "0x606060405260008060006101000a81548160ff021916908315150217905550341561002957600080fd5b33600060016101000a81548173ffffffffffffffffffffffffffffffffffffffff021916908373ffffffffffffffffffffffffffffffffffffffff160217905550612675806100796000396000f3006060604052600436106200007f576000357c0100000000000000000000000000000000000000000000000000000000900463ffffffff168063106639ba14620000845780634420e48614620000f357806378b516fb146200012f5780638da5cb5b146200021e578063a87d942c1462000276578063eac8f5b814620002a2575b600080fd5b34156200009057600080fd5b6200009a62000308565b6040518080602001828103825283818151815260200191508051906020019060200280838360005b83811015620000df578082015181840152602081019050620000c2565b505050509050019250505060405180910390f35b3415620000ff57600080fd5b6200012d600480803573ffffffffffffffffffffffffffffffffffffffff16906020019091905050620003dd565b005b34156200013b57600080fd5b620001dc600480803573ffffffffffffffffffffffffffffffffffffffff16906020019091908035600019169060200190919080351515906020019091908035151590602001909190803590602001908201803590602001908080601f0160208091040260200160405190810160405280939291908181526020018383808284378201915050505050509190803560001916906020019091905050620008cc565b604051808273ffffffffffffffffffffffffffffffffffffffff1673ffffffffffffffffffffffffffffffffffffffff16815260200191505060405180910390f35b34156200022a57600080fd5b6200023462000eae565b604051808273ffffffffffffffffffffffffffffffffffffffff1673ffffffffffffffffffffffffffffffffffffffff16815260200191505060405180910390f35b34156200028257600080fd5b6200028c62000ed4565b6040518082815260200191505060405180910390f35b3415620002ae57600080fd5b620002c6600480803590602001909190505062000f3a565b604051808273ffffffffffffffffffffffffffffffffffffffff1673ffffffffffffffffffffffffffffffffffffffff16815260200191505060405180910390f35b6200031262000f77565b600360003373ffffffffffffffffffffffffffffffffffffffff1673ffffffffffffffffffffffffffffffffffffffff168152602001908152602001600020805480602002602001604051908101604052809291908181526020018280548015620003d357602002820191906000526020600020905b8160009054906101000a900473ffffffffffffffffffffffffffffffffffffffff1673ffffffffffffffffffffffffffffffffffffffff168152602001906001019080831162000388575b5050505050905090565b6000809054906101000a900460ff16151515620003f957600080fd5b60016000806101000a81548160ff02191690831515021790555080600260008273ffffffffffffffffffffffffffffffffffffffff1673ffffffffffffffffffffffffffffffffffffffff16815260200190815260200160002060009054906101000a900460ff161515156200046e57600080fd5b6001600260008473ffffffffffffffffffffffffffffffffffffffff1673ffffffffffffffffffffffffffffffffffffffff16815260200190815260200160002060006101000a81548160ff02191690831515021790555081600560008473ffffffffffffffffffffffffffffffffffffffff16635d1ca6316000604051602001526040518163ffffffff167c0100000000000000000000000000000000000000000000000000000000028152600401602060405180830381600087803b15156200053857600080fd5b6102c65a03f115156200054a57600080fd5b50505060405180519050815260200190815260200160002060006101000a81548173ffffffffffffffffffffffffffffffffffffffff021916908373ffffffffffffffffffffffffffffffffffffffff160217905550600460008373ffffffffffffffffffffffffffffffffffffffff166327ac4b706000604051602001526040518163ffffffff167c0100000000000000000000000000000000000000000000000000000000028152600401602060405180830381600087803b15156200061157600080fd5b6102c65a03f115156200062357600080fd5b5050506040518051905060001916600019168152602001908152602001600020805480600101828162000657919062000f8b565b9160005260206000209001600084909190916101000a81548173ffffffffffffffffffffffffffffffffffffffff021916908373ffffffffffffffffffffffffffffffffffffffff16021790555050600360008373ffffffffffffffffffffffffffffffffffffffff1663893d20e86000604051602001526040518163ffffffff167c0100000000000000000000000000000000000000000000000000000000028152600401602060405180830381600087803b15156200071757600080fd5b6102c65a03f115156200072957600080fd5b5050506040518051905073ffffffffffffffffffffffffffffffffffffffff1673ffffffffffffffffffffffffffffffffffffffff168152602001908152602001600020805480600101828162000781919062000f8b565b9160005260206000209001600084909190916101000a81548173ffffffffffffffffffffffffffffffffffffffff021916908373ffffffffffffffffffffffffffffffffffffffff160217905550506001600081548092919060010191905055508173ffffffffffffffffffffffffffffffffffffffff16635d1ca6316000604051602001526040518163ffffffff167c0100000000000000000000000000000000000000000000000000000000028152600401602060405180830381600087803b15156200084f57600080fd5b6102c65a03f115156200086157600080fd5b505050604051805190508273ffffffffffffffffffffffffffffffffffffffff167ffd64e3f1068245597a589d8b057edbd3d3c312207d5c6d0d770825f68604ff1a60405160405180910390a35060008060006101000a81548160ff02191690831515021790555050565b6000806000808860001916141562000902577f64656661756c740000000000000000000000000000000000000000000000000097505b338886604051808473ffffffffffffffffffffffffffffffffffffffff1673ffffffffffffffffffffffffffffffffffffffff166c01000000000000000000000000028152601401836000191660001916815260200182805190602001908083835b6020831015156200098b578051825260208201915060208101905060208303925062000964565b6001836020036101000a03801982511681845116808217855250505050505090500193505050506040518091039020600190049150851562000aff573389838a8a8989620009d862000fba565b808873ffffffffffffffffffffffffffffffffffffffff1673ffffffffffffffffffffffffffffffffffffffff1681526020018773ffffffffffffffffffffffffffffffffffffffff1673ffffffffffffffffffffffffffffffffffffffff168152602001868152602001856000191660001916815260200184151515158152602001806020018360001916600019168152602001828103825284818151815260200191508051906020019080838360005b8381101562000aa757808201518184015260208101905062000a8a565b50505050905090810190601f16801562000ad55780820380516001836020036101000a031916815260200191505b5098505050505050505050604051809103906000f080151562000af757600080fd5b905062000c3b565b3389838a8a8989600062000b1262000fcb565b808973ffffffffffffffffffffffffffffffffffffffff1673ffffffffffffffffffffffffffffffffffffffff1681526020018873ffffffffffffffffffffffffffffffffffffffff1673ffffffffffffffffffffffffffffffffffffffff168152602001878152602001866000191660001916815260200185151515158152602001806020018460001916600019168152602001838152602001828103825285818151815260200191508051906020019080838360005b8381101562000be757808201518184015260208101905062000bca565b50505050905090810190601f16801562000c155780820380516001836020036101000a031916815260200191505b509950505050505050505050604051809103906000f080151562000c3857600080fd5b90505b6001600260008373ffffffffffffffffffffffffffffffffffffffff1673ffffffffffffffffffffffffffffffffffffffff16815260200190815260200160002060006101000a81548160ff021916908315150217905550600460008960001916600019168152602001908152602001600020805480600101828162000cc2919062000f8b565b9160005260206000209001600083909190916101000a81548173ffffffffffffffffffffffffffffffffffffffff021916908373ffffffffffffffffffffffffffffffffffffffff16021790555050600360008273ffffffffffffffffffffffffffffffffffffffff1663893d20e86000604051602001526040518163ffffffff167c0100000000000000000000000000000000000000000000000000000000028152600401602060405180830381600087803b151562000d8257600080fd5b6102c65a03f1151562000d9457600080fd5b5050506040518051905073ffffffffffffffffffffffffffffffffffffffff1673ffffffffffffffffffffffffffffffffffffffff168152602001908152602001600020805480600101828162000dec919062000f8b565b9160005260206000209001600083909190916101000a81548173ffffffffffffffffffffffffffffffffffffffff021916908373ffffffffffffffffffffffffffffffffffffffff16021790555050806005600084815260200190815260200160002060006101000a81548173ffffffffffffffffffffffffffffffffffffffff021916908373ffffffffffffffffffffffffffffffffffffffff16021790555060016000815480929190600101919050555080925050509695505050505050565b600060019054906101000a900473ffffffffffffffffffffffffffffffffffffffff1681565b60008060019054906101000a900473ffffffffffffffffffffffffffffffffffffffff1673ffffffffffffffffffffffffffffffffffffffff163373ffffffffffffffffffffffffffffffffffffffff1614151562000f3257600080fd5b600154905090565b60006005600083815260200190815260200160002060009054906101000a900473ffffffffffffffffffffffffffffffffffffffff169050919050565b602060405190810160405280600081525090565b81548183558181151162000fb55781836000526020600020918201910162000fb4919062000fdc565b5b505050565b604051610c11806200100583390190565b604051610a348062001c1683390190565b6200100191905b8082111562000ffd57600081600090555060010162000fe3565b5090565b9056006060604052341561000f57600080fd5b604051610c11380380610c1183398101604052808051906020019091908051906020019091908051906020019091908051906020019091908051906020019091908051820191906020018051906020019091905050848787600073ffffffffffffffffffffffffffffffffffffffff168273ffffffffffffffffffffffffffffffffffffffff16141580156100d15750600073ffffffffffffffffffffffffffffffffffffffff168173ffffffffffffffffffffffffffffffffffffffff1614155b15156100dc57600080fd5b8260008190555081600160006101000a81548173ffffffffffffffffffffffffffffffffffffffff021916908373ffffffffffffffffffffffffffffffffffffffff16021790555080600260006101000a81548173ffffffffffffffffffffffffffffffffffffffff021916908373ffffffffffffffffffffffffffffffffffffffff1602179055506000543073ffffffffffffffffffffffffffffffffffffffff167f20df459a0f7f1bc64a42346a9e6536111a3512be01de7a0f5327a4e13b33703860405160405180910390a350505060c060405190810160405280856000191681526020018873ffffffffffffffffffffffffffffffffffffffff1681526020018415158152602001600015158152602001838152602001826000191681525060036000820151816000019060001916905560208201518160010160006101000a81548173ffffffffffffffffffffffffffffffffffffffff021916908373ffffffffffffffffffffffffffffffffffffffff16021790555060408201518160010160146101000a81548160ff02191690831515021790555060608201518160010160156101000a81548160ff02191690831515021790555060808201518160020190805190602001906102b4929190610318565b5060a08201518160030190600019169055905050843073ffffffffffffffffffffffffffffffffffffffff167f20df459a0f7f1bc64a42346a9e6536111a3512be01de7a0f5327a4e13b33703860405160405180910390a3505050505050506103bd565b828054600181600116156101000203166002900490600052602060002090601f016020900481019282601f1061035957805160ff1916838001178555610387565b82800160010185558215610387579182015b8281111561038657825182559160200191906001019061036b565b5b5090506103949190610398565b5090565b6103ba91905b808211156103b657600081600090555060010161039e565b5090565b90565b610845806103cc6000396000f3006060604052600436106100af576000357c0100000000000000000000000000000000000000000000000000000000900463ffffffff16806318e6b367146100b45780631a695230146100e157806327ac4b701461011a5780633bc5de301461014b57806352556421146101d95780635d1ca6311461022e57806383197ef014610257578063893d20e81461026c578063a89c2e5a146102c1578063c5178024146102ee578063d2786ba41461031f575b600080fd5b34156100bf57600080fd5b6100c7610414565b604051808215151515815260200191505060405180910390f35b34156100ec57600080fd5b610118600480803573ffffffffffffffffffffffffffffffffffffffff1690602001909190505061042e565b005b341561012557600080fd5b61012d610550565b60405180826000191660001916815260200191505060405180910390f35b341561015657600080fd5b61015e61055d565b6040518080602001828103825283818151815260200191508051906020019080838360005b8381101561019e578082015181840152602081019050610183565b50505050905090810190601f1680156101cb5780820380516001836020036101000a031916815260200191505b509250505060405180910390f35b34156101e457600080fd5b6101ec610608565b604051808273ffffffffffffffffffffffffffffffffffffffff1673ffffffffffffffffffffffffffffffffffffffff16815260200191505060405180910390f35b341561023957600080fd5b610241610632565b6040518082815260200191505060405180910390f35b341561026257600080fd5b61026a61063b565b005b341561027757600080fd5b61027f610699565b604051808273ffffffffffffffffffffffffffffffffffffffff1673ffffffffffffffffffffffffffffffffffffffff16815260200191505060405180910390f35b34156102cc57600080fd5b6102d46106c3565b604051808215151515815260200191505060405180910390f35b34156102f957600080fd5b6103016106dd565b60405180826000191660001916815260200191505060405180910390f35b341561032a57600080fd5b6103326106e9565b6040518087600019166000191681526020018673ffffffffffffffffffffffffffffffffffffffff1673ffffffffffffffffffffffffffffffffffffffff1681526020018515151515815260200184151515158152602001806020018360001916600019168152602001828103825284818151815260200191508051906020019080838360005b838110156103d45780820151818401526020810190506103b9565b50505050905090810190601f1680156104015780820380516001836020036101000a031916815260200191505b5097505050505050505060405180910390f35b6000600360010160149054906101000a900460ff16905090565b600260009054906101000a900473ffffffffffffffffffffffffffffffffffffffff1673ffffffffffffffffffffffffffffffffffffffff163373ffffffffffffffffffffffffffffffffffffffff1614151561048a57600080fd5b600073ffffffffffffffffffffffffffffffffffffffff168173ffffffffffffffffffffffffffffffffffffffff16141515156104c657600080fd5b80600260006101000a81548173ffffffffffffffffffffffffffffffffffffffff021916908373ffffffffffffffffffffffffffffffffffffffff1602179055506000548173ffffffffffffffffffffffffffffffffffffffff167fff67663330fcde57965a89e0eed2698c4f260f4f4dfa83e4d8a1c1db935fa23560405160405180910390a350565b6000600360000154905090565b610565610805565b60036002018054600181600116156101000203166002900480601f0160208091040260200160405190810160405280929190818152602001828054600181600116156101000203166002900480156105fe5780601f106105d3576101008083540402835291602001916105fe565b820191906000526020600020905b8154815290600101906020018083116105e157829003601f168201915b5050505050905090565b6000600160009054906101000a900473ffffffffffffffffffffffffffffffffffffffff16905090565b60008054905090565b600260009054906101000a900473ffffffffffffffffffffffffffffffffffffffff1673ffffffffffffffffffffffffffffffffffffffff163373ffffffffffffffffffffffffffffffffffffffff1614151561069757600080fd5b565b6000600260009054906101000a900473ffffffffffffffffffffffffffffffffffffffff16905090565b6000600360010160159054906101000a900460ff16905090565b60006003800154905090565b6000806000806106f7610805565b6000600360000154600360010160009054906101000a900473ffffffffffffffffffffffffffffffffffffffff16600360010160149054906101000a900460ff16600360010160159054906101000a900460ff1660036002016003800154818054600181600116156101000203166002900480601f0160208091040260200160405190810160405280929190818152602001828054600181600116156101000203166002900480156107ea5780601f106107bf576101008083540402835291602001916107ea565b820191906000526020600020905b8154815290600101906020018083116107cd57829003601f168201915b50505050509150955095509550955095509550909192939495565b6020604051908101604052806000815250905600a165627a7a7230582021e507c880e70c43819c47df3ccce2e16cee1cfdf8ce092520f11b69538f26f500296060604052341561000f57600080fd5b604051610a34380380610a3483398101604052808051906020019091908051906020019091908051906020019091908051906020019091908051906020019091908051820191906020018051906020019091908051906020019091905050858888600073ffffffffffffffffffffffffffffffffffffffff168273ffffffffffffffffffffffffffffffffffffffff16141580156100da5750600073ffffffffffffffffffffffffffffffffffffffff168173ffffffffffffffffffffffffffffffffffffffff1614155b15156100e557600080fd5b8260008190555081600160006101000a81548173ffffffffffffffffffffffffffffffffffffffff021916908373ffffffffffffffffffffffffffffffffffffffff16021790555080600260006101000a81548173ffffffffffffffffffffffffffffffffffffffff021916908373ffffffffffffffffffffffffffffffffffffffff1602179055506000543073ffffffffffffffffffffffffffffffffffffffff167f20df459a0f7f1bc64a42346a9e6536111a3512be01de7a0f5327a4e13b33703860405160405180910390a350505060c060405190810160405280866000191681526020018973ffffffffffffffffffffffffffffffffffffffff1681526020018515158152602001600115158152602001848152602001836000191681525060036000820151816000019060001916905560208201518160010160006101000a81548173ffffffffffffffffffffffffffffffffffffffff021916908373ffffffffffffffffffffffffffffffffffffffff16021790555060408201518160010160146101000a81548160ff02191690831515021790555060608201518160010160156101000a81548160ff02191690831515021790555060808201518160020190805190602001906102bd9291906102e5565b5060a0820151816003019060001916905590505080600781905550505050505050505061038a565b828054600181600116156101000203166002900490600052602060002090601f016020900481019282601f1061032657805160ff1916838001178555610354565b82800160010185558215610354579182015b82811115610353578251825591602001919060010190610338565b5b5090506103619190610365565b5090565b61038791905b8082111561038357600081600090555060010161036b565b5090565b90565b61069b806103996000396000f300606060405260043610610099576000357c0100000000000000000000000000000000000000000000000000000000900463ffffffff1680631a6952301461009e57806327ac4b70146100d757806352556421146101085780635d1ca6311461015d57806383197ef014610186578063893d20e81461019b578063bf5a29e5146101f0578063d2786ba414610221578063d321fe2914610316575b600080fd5b34156100a957600080fd5b6100d5600480803573ffffffffffffffffffffffffffffffffffffffff1690602001909190505061033f565b005b34156100e257600080fd5b6100ea610461565b60405180826000191660001916815260200191505060405180910390f35b341561011357600080fd5b61011b61046e565b604051808273ffffffffffffffffffffffffffffffffffffffff1673ffffffffffffffffffffffffffffffffffffffff16815260200191505060405180910390f35b341561016857600080fd5b610170610498565b6040518082815260200191505060405180910390f35b341561019157600080fd5b6101996104a1565b005b34156101a657600080fd5b6101ae6104ff565b604051808273ffffffffffffffffffffffffffffffffffffffff1673ffffffffffffffffffffffffffffffffffffffff16815260200191505060405180910390f35b34156101fb57600080fd5b610203610529565b60405180826000191660001916815260200191505060405180910390f35b341561022c57600080fd5b610234610535565b6040518087600019166000191681526020018673ffffffffffffffffffffffffffffffffffffffff1673ffffffffffffffffffffffffffffffffffffffff1681526020018515151515815260200184151515158152602001806020018360001916600019168152602001828103825284818151815260200191508051906020019080838360005b838110156102d65780820151818401526020810190506102bb565b50505050905090810190601f1680156103035780820380516001836020036101000a031916815260200191505b5097505050505050505060405180910390f35b341561032157600080fd5b610329610651565b6040518082815260200191505060405180910390f35b600260009054906101000a900473ffffffffffffffffffffffffffffffffffffffff1673ffffffffffffffffffffffffffffffffffffffff163373ffffffffffffffffffffffffffffffffffffffff1614151561039b57600080fd5b600073ffffffffffffffffffffffffffffffffffffffff168173ffffffffffffffffffffffffffffffffffffffff16141515156103d757600080fd5b80600260006101000a81548173ffffffffffffffffffffffffffffffffffffffff021916908373ffffffffffffffffffffffffffffffffffffffff1602179055506000548173ffffffffffffffffffffffffffffffffffffffff167fff67663330fcde57965a89e0eed2698c4f260f4f4dfa83e4d8a1c1db935fa23560405160405180910390a350565b6000600360000154905090565b6000600160009054906101000a900473ffffffffffffffffffffffffffffffffffffffff16905090565b60008054905090565b600260009054906101000a900473ffffffffffffffffffffffffffffffffffffffff1673ffffffffffffffffffffffffffffffffffffffff163373ffffffffffffffffffffffffffffffffffffffff161415156104fd57600080fd5b565b6000600260009054906101000a900473ffffffffffffffffffffffffffffffffffffffff16905090565b60006003800154905090565b60008060008061054361065b565b6000600360000154600360010160009054906101000a900473ffffffffffffffffffffffffffffffffffffffff16600360010160149054906101000a900460ff16600360010160159054906101000a900460ff1660036002016003800154818054600181600116156101000203166002900480601f0160208091040260200160405190810160405280929190818152602001828054600181600116156101000203166002900480156106365780601f1061060b57610100808354040283529160200191610636565b820191906000526020600020905b81548152906001019060200180831161061957829003601f168201915b50505050509150955095509550955095509550909192939495565b6000600754905090565b6020604051908101604052806000815250905600a165627a7a7230582095ddf4cb8827f72c5f246ed82fedb87249e8b834db336d11736f703e428fee0d0029a165627a7a72305820a83afd09439083a5cf6c8fa338c26b7a9e831458e21739c078c1e1aaf4b2a89f0029",
  "source": "pragma solidity ^0.4.19;\r\n\r\nimport './Asset.sol';\r\nimport './StandardAsset.sol';\r\nimport './FungibleAsset.sol';\r\n\r\nimport 'zeppelin-solidity/contracts/ReentrancyGuard.sol';\r\n\r\ncontract AssetRegistry is ReentrancyGuard {\r\n  event AssetRegistered(address indexed asset, uint indexed assetId);\r\n\r\n  // default namespace id\r\n  bytes32 constant DEFAULT_NSI = \"default\";\r\n\r\n  address public owner;\r\n\r\n  // number of assets in the registry\r\n  uint256 private numOfAssets;\r\n\r\n  // map asset addr to a bool\r\n  mapping(address=>bool) private registeredAssets;\r\n\r\n  //Someone has a lot of assets\r\n  mapping(address=>address[]) private ownAssets;\r\n\r\n  // index by namespace\r\n  mapping(bytes32=>address[]) private assetsByNamespace;\r\n  // indexed by id\r\n  mapping(uint=>address) private assetsById;\r\n\r\n  modifier assetNotRegistered(address _asset) {\r\n      require(!registeredAssets[_asset]);\r\n      _;\r\n  }\r\n\r\n  modifier onlyOwner() {\r\n      require(msg.sender == owner);\r\n      _;\r\n  }\r\n\r\n  function AssetRegistry() public {\r\n    owner = msg.sender;\r\n  }\r\n  /**\r\n   * @dev create and register a new asset\r\n   * @param _nsi the namespace identifier\r\n   * @param _transferrable is the asset transferrable?\r\n   * @param _fungible is the asset fungible?\r\n   * @param _metadataRef a multihash of the metadata\r\n   */\r\n  function createAsset(address _owner,bytes32 _nsi, bool _transferrable, bool _fungible,string data,bytes32 _metadataRef)\r\n    public returns (address) {\r\n\r\n    if (_nsi == '') {\r\n      _nsi = DEFAULT_NSI;\r\n    }\r\n    // generate a unique asset id\r\n    uint id = uint(keccak256(msg.sender, _nsi, data));\r\n    Asset newAsset;\r\n    if (_fungible) {\r\n      newAsset = new StandardAsset(msg.sender,_owner, id, _nsi, _transferrable,data,_metadataRef);\r\n    } else {\r\n      newAsset = new FungibleAsset(msg.sender,_owner, id, _nsi, _transferrable,data,_metadataRef,0);\r\n    }\r\n    registeredAssets[newAsset] = true;\r\n    assetsByNamespace[_nsi].push(address(newAsset));\r\n    ownAssets[newAsset.getOwner()].push(address(newAsset));\r\n    assetsById[id] = address(newAsset);\r\n    numOfAssets++;\r\n    return address(newAsset);\r\n  }\r\n\r\n  /**\r\n   * @dev register an asset\r\n   * @param _asset the address of the asset to be registered\r\n   */\r\n  function register(address _asset) public nonReentrant assetNotRegistered(_asset) {\r\n    registeredAssets[_asset] = true;\r\n    assetsById[Asset(_asset).getId()] = _asset;\r\n    assetsByNamespace[Asset(_asset).getNamespace()].push(_asset);\r\n    ownAssets[Asset(_asset).getOwner()].push(address(_asset));\r\n    numOfAssets++;\r\n    AssetRegistered(_asset,Asset(_asset).getId());\r\n  }\r\n\r\n  /**\r\n   * @dev return number of assets\r\n   */\r\n  function getCount() public view onlyOwner returns (uint) {\r\n    return numOfAssets;\r\n  }\r\n\r\n  function getAsset(uint assetId) public view returns (address) {\r\n      return assetsById[assetId];\r\n  }\r\n\r\n  function getOwnAssets() public view returns (address[]) {\r\n    return ownAssets[msg.sender];\r\n  }\r\n\r\n}\r\n",
  "sourcePath": "G:\\GitRepository\\udap\\uc3\\contracts\\AssetRegistry.sol",
  "compiler": {
    "name": "solc",
    "version": "0.4.19+commit.c4cbbb05.Emscripten.clang"
  },
  "schemaVersion": "2.0.0",
  "updatedAt": "2018-05-07T04:16:23.670Z"
}