{
  "contractName": "AssetRegistry",
  "abi": [
    {
      "constant": true,
      "inputs": [
        {
          "name": "",
          "type": "uint256"
        }
      ],
      "name": "idAssets",
      "outputs": [
        {
          "name": "",
          "type": "address"
        }
      ],
      "payable": false,
      "stateMutability": "view",
      "type": "function"
    },
    {
      "constant": false,
      "inputs": [],
      "name": "renounceOwnership",
      "outputs": [],
      "payable": false,
      "stateMutability": "nonpayable",
      "type": "function"
    },
    {
      "constant": true,
      "inputs": [],
      "name": "owner",
      "outputs": [
        {
          "name": "",
          "type": "address"
        }
      ],
      "payable": false,
      "stateMutability": "view",
      "type": "function"
    },
    {
      "constant": false,
      "inputs": [
        {
          "name": "_newOwner",
          "type": "address"
        }
      ],
      "name": "transferOwnership",
      "outputs": [],
      "payable": false,
      "stateMutability": "nonpayable",
      "type": "function"
    },
    {
      "inputs": [],
      "payable": false,
      "stateMutability": "nonpayable",
      "type": "constructor"
    },
    {
      "anonymous": false,
      "inputs": [
        {
          "indexed": true,
          "name": "asset",
          "type": "address"
        },
        {
          "indexed": true,
          "name": "id",
          "type": "uint256"
        }
      ],
      "name": "AssetRegistered",
      "type": "event"
    },
    {
      "anonymous": false,
      "inputs": [
        {
          "indexed": true,
          "name": "previousOwner",
          "type": "address"
        }
      ],
      "name": "OwnershipRenounced",
      "type": "event"
    },
    {
      "anonymous": false,
      "inputs": [
        {
          "indexed": true,
          "name": "previousOwner",
          "type": "address"
        },
        {
          "indexed": true,
          "name": "newOwner",
          "type": "address"
        }
      ],
      "name": "OwnershipTransferred",
      "type": "event"
    },
    {
      "constant": false,
      "inputs": [
        {
          "name": "_name",
          "type": "string"
        },
        {
          "name": "_symbol",
          "type": "string"
        },
        {
          "name": "_owner",
          "type": "address"
        }
      ],
      "name": "registerClass",
      "outputs": [
        {
          "name": "",
          "type": "uint256"
        }
      ],
      "payable": false,
      "stateMutability": "nonpayable",
      "type": "function"
    },
    {
      "constant": false,
      "inputs": [
        {
          "name": "_name",
          "type": "string"
        },
        {
          "name": "_symbol",
          "type": "string"
        },
        {
          "name": "_supplyLimit",
          "type": "uint256"
        },
        {
          "name": "_uri",
          "type": "string"
        },
        {
          "name": "_owner",
          "type": "address"
        }
      ],
      "name": "registerClass",
      "outputs": [
        {
          "name": "",
          "type": "uint256"
        }
      ],
      "payable": false,
      "stateMutability": "nonpayable",
      "type": "function"
    },
    {
      "constant": true,
      "inputs": [
        {
          "name": "_name",
          "type": "string"
        },
        {
          "name": "_symbol",
          "type": "string"
        },
        {
          "name": "_uri",
          "type": "string"
        }
      ],
      "name": "getId",
      "outputs": [
        {
          "name": "",
          "type": "uint256"
        }
      ],
      "payable": false,
      "stateMutability": "pure",
      "type": "function"
    }
  ],
  "bytecode": "0x608060405234801561001057600080fd5b50336000806101000a81548173ffffffffffffffffffffffffffffffffffffffff021916908373ffffffffffffffffffffffffffffffffffffffff16021790555061428b806100606000396000f3006080604052600436106200008b576000357c0100000000000000000000000000000000000000000000000000000000900463ffffffff168063364006a21462000090578063496b62741462000100578063658150ef14620001e6578063715018a6146200031c5780638da5cb5b1462000336578063d6548bb11462000390578063f2fde38b146200049c575b600080fd5b3480156200009d57600080fd5b50620000be60048036038101908080359060200190929190505050620004e2565b604051808273ffffffffffffffffffffffffffffffffffffffff1673ffffffffffffffffffffffffffffffffffffffff16815260200191505060405180910390f35b3480156200010d57600080fd5b50620001d0600480360381019080803590602001908201803590602001908080601f0160208091040260200160405190810160405280939291908181526020018383808284378201915050505050509192919290803590602001908201803590602001908080601f0160208091040260200160405190810160405280939291908181526020018383808284378201915050505050509192919290803573ffffffffffffffffffffffffffffffffffffffff16906020019092919050505062000515565b6040518082815260200191505060405180910390f35b348015620001f357600080fd5b5062000306600480360381019080803590602001908201803590602001908080601f0160208091040260200160405190810160405280939291908181526020018383808284378201915050505050509192919290803590602001908201803590602001908080601f016020809104026020016040519081016040528093929190818152602001838380828437820191505050505050919291929080359060200190929190803590602001908201803590602001908080601f0160208091040260200160405190810160405280939291908181526020018383808284378201915050505050509192919290803573ffffffffffffffffffffffffffffffffffffffff1690602001909291905050506200059c565b6040518082815260200191505060405180910390f35b3480156200032957600080fd5b506200033462000614565b005b3480156200034357600080fd5b506200034e62000717565b604051808273ffffffffffffffffffffffffffffffffffffffff1673ffffffffffffffffffffffffffffffffffffffff16815260200191505060405180910390f35b3480156200039d57600080fd5b5062000486600480360381019080803590602001908201803590602001908080601f0160208091040260200160405190810160405280939291908181526020018383808284378201915050505050509192919290803590602001908201803590602001908080601f0160208091040260200160405190810160405280939291908181526020018383808284378201915050505050509192919290803590602001908201803590602001908080601f01602080910402602001604051908101604052809392919081815260200183838082843782019150505050505091929192905050506200073c565b6040518082815260200191505060405180910390f35b348015620004a957600080fd5b50620004e0600480360381019080803573ffffffffffffffffffffffffffffffffffffffff169060200190929190505050620008d1565b005b60016020528060005260406000206000915054906101000a900473ffffffffffffffffffffffffffffffffffffffff1681565b60008060009054906101000a900473ffffffffffffffffffffffffffffffffffffffff1673ffffffffffffffffffffffffffffffffffffffff163373ffffffffffffffffffffffffffffffffffffffff161415156200057357600080fd5b62000593848460016020604051908101604052806000815250866200093b565b90509392505050565b60008060009054906101000a900473ffffffffffffffffffffffffffffffffffffffff1673ffffffffffffffffffffffffffffffffffffffff163373ffffffffffffffffffffffffffffffffffffffff16141515620005fa57600080fd5b6200060986868686866200093b565b905095945050505050565b6000809054906101000a900473ffffffffffffffffffffffffffffffffffffffff1673ffffffffffffffffffffffffffffffffffffffff163373ffffffffffffffffffffffffffffffffffffffff161415156200067057600080fd5b6000809054906101000a900473ffffffffffffffffffffffffffffffffffffffff1673ffffffffffffffffffffffffffffffffffffffff167ff8df31144d9c2f0f6b59d69b8b98abd5459d07f2742c4df920b25aae33c6482060405160405180910390a260008060006101000a81548173ffffffffffffffffffffffffffffffffffffffff021916908373ffffffffffffffffffffffffffffffffffffffff160217905550565b6000809054906101000a900473ffffffffffffffffffffffffffffffffffffffff1681565b6000808484846040516020018084805190602001908083835b6020831015156200077c578051825260208201915060208101905060208303925062000755565b6001836020036101000a03801982511681845116808217855250505050505090500183805190602001908083835b602083101515620007d15780518252602082019150602081019050602083039250620007aa565b6001836020036101000a03801982511681845116808217855250505050505090500182805190602001908083835b602083101515620008265780518252602082019150602081019050602083039250620007ff565b6001836020036101000a03801982511681845116808217855250505050505090500193505050506040516020818303038152906040526040518082805190602001908083835b6020831015156200089357805182526020820191506020810190506020830392506200086c565b6001836020036101000a0380198251168184511680821785525050505050509050019150506040518091039020600190049050809150509392505050565b6000809054906101000a900473ffffffffffffffffffffffffffffffffffffffff1673ffffffffffffffffffffffffffffffffffffffff163373ffffffffffffffffffffffffffffffffffffffff161415156200092d57600080fd5b620009388162000c1b565b50565b60008060006200094d8888876200073c565b9150600073ffffffffffffffffffffffffffffffffffffffff166001600084815260200190815260200160002060009054906101000a900473ffffffffffffffffffffffffffffffffffffffff1673ffffffffffffffffffffffffffffffffffffffff16141515620009be57600080fd5b8787878787620009cd62000d16565b808060200180602001868152602001806020018573ffffffffffffffffffffffffffffffffffffffff1673ffffffffffffffffffffffffffffffffffffffff168152602001848103845289818151815260200191508051906020019080838360005b8381101562000a4c57808201518184015260208101905062000a2f565b50505050905090810190601f16801562000a7a5780820380516001836020036101000a031916815260200191505b50848103835288818151815260200191508051906020019080838360005b8381101562000ab557808201518184015260208101905062000a98565b50505050905090810190601f16801562000ae35780820380516001836020036101000a031916815260200191505b50848103825286818151815260200191508051906020019080838360005b8381101562000b1e57808201518184015260208101905062000b01565b50505050905090810190601f16801562000b4c5780820380516001836020036101000a031916815260200191505b5098505050505050505050604051809103906000f08015801562000b74573d6000803e3d6000fd5b509050806001600084815260200190815260200160002060006101000a81548173ffffffffffffffffffffffffffffffffffffffff021916908373ffffffffffffffffffffffffffffffffffffffff160217905550818173ffffffffffffffffffffffffffffffffffffffff167ffd64e3f1068245597a589d8b057edbd3d3c312207d5c6d0d770825f68604ff1a60405160405180910390a3819250505095945050505050565b600073ffffffffffffffffffffffffffffffffffffffff168173ffffffffffffffffffffffffffffffffffffffff161415151562000c5857600080fd5b8073ffffffffffffffffffffffffffffffffffffffff166000809054906101000a900473ffffffffffffffffffffffffffffffffffffffff1673ffffffffffffffffffffffffffffffffffffffff167f8be0079c531659141344cd1fd0a4f28419497f9722a3daafe3b4186f6b6457e060405160405180910390a3806000806101000a81548173ffffffffffffffffffffffffffffffffffffffff021916908373ffffffffffffffffffffffffffffffffffffffff16021790555050565b6040516135388062000d2883390190560060806040523480156200001157600080fd5b50604051620035383803806200353883398101806040528101908080518201929190602001805182019291906020018051906020019092919080518201929190602001805190602001909291905050508484620000a06301ffc9a77c01000000000000000000000000000000000000000000000000000000000262000459640100000000026401000000009004565b620000dd6380ac58cd7c01000000000000000000000000000000000000000000000000000000000262000459640100000000026401000000009004565b6200011a634f558e797c01000000000000000000000000000000000000000000000000000000000262000459640100000000026401000000009004565b81600590805190602001906200013292919062000517565b5080600690805190602001906200014b92919062000517565b506200018963780e9d637c01000000000000000000000000000000000000000000000000000000000262000459640100000000026401000000009004565b620001c6635b5e139f7c01000000000000000000000000000000000000000000000000000000000262000459640100000000026401000000009004565b505033600c60006101000a81548173ffffffffffffffffffffffffffffffffffffffff021916908373ffffffffffffffffffffffffffffffffffffffff16021790555084848484620002176200059e565b80806020018060200185815260200180602001848103845288818151815260200191508051906020019080838360005b838110156200026457808201518184015260208101905062000247565b50505050905090810190601f168015620002925780820380516001836020036101000a031916815260200191505b50848103835287818151815260200191508051906020019080838360005b83811015620002cd578082015181840152602081019050620002b0565b50505050905090810190601f168015620002fb5780820380516001836020036101000a031916815260200191505b50848103825285818151815260200191508051906020019080838360005b838110156200033657808201518184015260208101905062000319565b50505050905090810190601f168015620003645780820380516001836020036101000a031916815260200191505b50975050505050505050604051809103906000f0801580156200038b573d6000803e3d6000fd5b50600f60006101000a81548173ffffffffffffffffffffffffffffffffffffffff021916908373ffffffffffffffffffffffffffffffffffffffff16021790555080600c60006101000a81548173ffffffffffffffffffffffffffffffffffffffff021916908373ffffffffffffffffffffffffffffffffffffffff16021790555080600e60006101000a81548173ffffffffffffffffffffffffffffffffffffffff021916908373ffffffffffffffffffffffffffffffffffffffff1602179055505050505050620005d7565b63ffffffff7c010000000000000000000000000000000000000000000000000000000002817bffffffffffffffffffffffffffffffffffffffffffffffffffffffff191614151515620004ab57600080fd5b6001600080837bffffffffffffffffffffffffffffffffffffffffffffffffffffffff19167bffffffffffffffffffffffffffffffffffffffffffffffffffffffff1916815260200190815260200160002060006101000a81548160ff02191690831515021790555050565b828054600181600116156101000203166002900490600052602060002090601f016020900481019282601f106200055a57805160ff19168380011785556200058b565b828001600101855582156200058b579182015b828111156200058a5782518255916020019190600101906200056d565b5b5090506200059a9190620005af565b5090565b6040516105d78062002f6183390190565b620005d491905b80821115620005d0576000816000905550600101620005b6565b5090565b90565b61297a80620005e76000396000f300608060405260043610610154576000357c0100000000000000000000000000000000000000000000000000000000900463ffffffff16806301ffc9a71461015957806306fdde03146101bd578063081812fc1461024d578063095ea7b3146102ba57806318160ddd1461030757806319fa8f50146103325780631d1438481461039b57806323b872dd146103f25780632f745c591461045f57806342842e0e146104c057806342966c681461052d5780634f558e791461055a5780634f6ccce71461059f5780636352211e146105e057806370a082311461064d578063715018a6146106a4578063896317b8146106bb5780638d75533f146107125780638da5cb5b146107e157806395d89b4114610838578063a22cb465146108c8578063b88d4fde14610917578063c87b56dd146109ca578063d0def52114610a70578063e985e9c514610af9578063f2fde38b14610b74575b600080fd5b34801561016557600080fd5b506101a360048036038101908080357bffffffffffffffffffffffffffffffffffffffffffffffffffffffff19169060200190929190505050610bb7565b604051808215151515815260200191505060405180910390f35b3480156101c957600080fd5b506101d2610c1e565b6040518080602001828103825283818151815260200191508051906020019080838360005b838110156102125780820151818401526020810190506101f7565b50505050905090810190601f16801561023f5780820380516001836020036101000a031916815260200191505b509250505060405180910390f35b34801561025957600080fd5b5061027860048036038101908080359060200190929190505050610cc0565b604051808273ffffffffffffffffffffffffffffffffffffffff1673ffffffffffffffffffffffffffffffffffffffff16815260200191505060405180910390f35b3480156102c657600080fd5b50610305600480360381019080803573ffffffffffffffffffffffffffffffffffffffff16906020019092919080359060200190929190505050610cfd565b005b34801561031357600080fd5b5061031c610e42565b6040518082815260200191505060405180910390f35b34801561033e57600080fd5b50610347610e4f565b60405180827bffffffffffffffffffffffffffffffffffffffffffffffffffffffff19167bffffffffffffffffffffffffffffffffffffffffffffffffffffffff1916815260200191505060405180910390f35b3480156103a757600080fd5b506103b0610e76565b604051808273ffffffffffffffffffffffffffffffffffffffff1673ffffffffffffffffffffffffffffffffffffffff16815260200191505060405180910390f35b3480156103fe57600080fd5b5061045d600480360381019080803573ffffffffffffffffffffffffffffffffffffffff169060200190929190803573ffffffffffffffffffffffffffffffffffffffff16906020019092919080359060200190929190505050610e9c565b005b34801561046b57600080fd5b506104aa600480360381019080803573ffffffffffffffffffffffffffffffffffffffff16906020019092919080359060200190929190505050610fa7565b6040518082815260200191505060405180910390f35b3480156104cc57600080fd5b5061052b600480360381019080803573ffffffffffffffffffffffffffffffffffffffff169060200190929190803573ffffffffffffffffffffffffffffffffffffffff1690602001909291908035906020019092919050505061101e565b005b34801561053957600080fd5b506105586004803603810190808035906020019092919050505061103f565b005b34801561056657600080fd5b506105856004803603810190808035906020019092919050505061104c565b604051808215151515815260200191505060405180910390f35b3480156105ab57600080fd5b506105ca600480360381019080803590602001909291905050506110be565b6040518082815260200191505060405180910390f35b3480156105ec57600080fd5b5061060b600480360381019080803590602001909291905050506110f6565b604051808273ffffffffffffffffffffffffffffffffffffffff1673ffffffffffffffffffffffffffffffffffffffff16815260200191505060405180910390f35b34801561065957600080fd5b5061068e600480360381019080803573ffffffffffffffffffffffffffffffffffffffff169060200190929190505050611174565b6040518082815260200191505060405180910390f35b3480156106b057600080fd5b506106b96111f8565b005b3480156106c757600080fd5b506106d06112fd565b604051808273ffffffffffffffffffffffffffffffffffffffff1673ffffffffffffffffffffffffffffffffffffffff16815260200191505060405180910390f35b34801561071e57600080fd5b506107df600480360381019080803573ffffffffffffffffffffffffffffffffffffffff169060200190929190803590602001908201803590602001908080601f0160208091040260200160405190810160405280939291908181526020018383808284378201915050505050509192919290803590602001908201803590602001908080601f0160208091040260200160405190810160405280939291908181526020018383808284378201915050505050509192919290505050611327565b005b3480156107ed57600080fd5b506107f66114c4565b604051808273ffffffffffffffffffffffffffffffffffffffff1673ffffffffffffffffffffffffffffffffffffffff16815260200191505060405180910390f35b34801561084457600080fd5b5061084d6114ea565b6040518080602001828103825283818151815260200191508051906020019080838360005b8381101561088d578082015181840152602081019050610872565b50505050905090810190601f1680156108ba5780820380516001836020036101000a031916815260200191505b509250505060405180910390f35b3480156108d457600080fd5b50610915600480360381019080803573ffffffffffffffffffffffffffffffffffffffff16906020019092919080351515906020019092919050505061158c565b005b34801561092357600080fd5b506109c8600480360381019080803573ffffffffffffffffffffffffffffffffffffffff169060200190929190803573ffffffffffffffffffffffffffffffffffffffff16906020019092919080359060200190929190803590602001908201803590602001908080601f01602080910402602001604051908101604052809392919081815260200183838082843782019150505050505091929192905050506116c8565b005b3480156109d657600080fd5b506109f5600480360381019080803590602001909291905050506116f0565b6040518080602001828103825283818151815260200191508051906020019080838360005b83811015610a35578082015181840152602081019050610a1a565b50505050905090810190601f168015610a625780820380516001836020036101000a031916815260200191505b509250505060405180910390f35b348015610a7c57600080fd5b50610af7600480360381019080803573ffffffffffffffffffffffffffffffffffffffff169060200190929190803590602001908201803590602001908080601f01602080910402602001604051908101604052809392919081815260200183838082843782019150505050505091929192905050506117b9565b005b348015610b0557600080fd5b50610b5a600480360381019080803573ffffffffffffffffffffffffffffffffffffffff169060200190929190803573ffffffffffffffffffffffffffffffffffffffff169060200190929190505050611823565b604051808215151515815260200191505060405180910390f35b348015610b8057600080fd5b50610bb5600480360381019080803573ffffffffffffffffffffffffffffffffffffffff1690602001909291905050506118b7565b005b6000806000837bffffffffffffffffffffffffffffffffffffffffffffffffffffffff19167bffffffffffffffffffffffffffffffffffffffffffffffffffffffff1916815260200190815260200160002060009054906101000a900460ff169050919050565b606060058054600181600116156101000203166002900480601f016020809104026020016040519081016040528092919081815260200182805460018160011615610100020316600290048015610cb65780601f10610c8b57610100808354040283529160200191610cb6565b820191906000526020600020905b815481529060010190602001808311610c9957829003601f168201915b5050505050905090565b60006002600083815260200190815260200160002060009054906101000a900473ffffffffffffffffffffffffffffffffffffffff169050919050565b6000610d08826110f6565b90508073ffffffffffffffffffffffffffffffffffffffff168373ffffffffffffffffffffffffffffffffffffffff1614151515610d4557600080fd5b8073ffffffffffffffffffffffffffffffffffffffff163373ffffffffffffffffffffffffffffffffffffffff161480610d855750610d848133611823565b5b1515610d9057600080fd5b826002600084815260200190815260200160002060006101000a81548173ffffffffffffffffffffffffffffffffffffffff021916908373ffffffffffffffffffffffffffffffffffffffff160217905550818373ffffffffffffffffffffffffffffffffffffffff168273ffffffffffffffffffffffffffffffffffffffff167f8c5be1e5ebec7d5bd14f71427d1e84f3dd0314c0f7b2291e5b200ac8c7c3b92560405160405180910390a4505050565b6000600980549050905090565b6301ffc9a77c01000000000000000000000000000000000000000000000000000000000281565b600e60009054906101000a900473ffffffffffffffffffffffffffffffffffffffff1681565b610ea6338261191f565b1515610eb157600080fd5b600073ffffffffffffffffffffffffffffffffffffffff168373ffffffffffffffffffffffffffffffffffffffff1614151515610eed57600080fd5b600073ffffffffffffffffffffffffffffffffffffffff168273ffffffffffffffffffffffffffffffffffffffff1614151515610f2957600080fd5b610f3383826119b4565b610f3d8382611ab7565b610f478282611c73565b808273ffffffffffffffffffffffffffffffffffffffff168473ffffffffffffffffffffffffffffffffffffffff167fddf252ad1be2c89b69c2b068fc378daa952ba7f163c4a11628f55a4df523b3ef60405160405180910390a4505050565b6000610fb283611174565b82101515610fbf57600080fd5b600760008473ffffffffffffffffffffffffffffffffffffffff1673ffffffffffffffffffffffffffffffffffffffff1681526020019081526020016000208281548110151561100b57fe5b9060005260206000200154905092915050565b61103a83838360206040519081016040528060008152506116c8565b505050565b6110493382611d4a565b50565b6000806001600084815260200190815260200160002060009054906101000a900473ffffffffffffffffffffffffffffffffffffffff169050600073ffffffffffffffffffffffffffffffffffffffff168173ffffffffffffffffffffffffffffffffffffffff161415915050919050565b60006110c8610e42565b821015156110d557600080fd5b6009828154811015156110e457fe5b90600052602060002001549050919050565b6000806001600084815260200190815260200160002060009054906101000a900473ffffffffffffffffffffffffffffffffffffffff169050600073ffffffffffffffffffffffffffffffffffffffff168173ffffffffffffffffffffffffffffffffffffffff161415151561116b57600080fd5b80915050919050565b60008073ffffffffffffffffffffffffffffffffffffffff168273ffffffffffffffffffffffffffffffffffffffff16141515156111b157600080fd5b600360008373ffffffffffffffffffffffffffffffffffffffff1673ffffffffffffffffffffffffffffffffffffffff168152602001908152602001600020549050919050565b600c60009054906101000a900473ffffffffffffffffffffffffffffffffffffffff1673ffffffffffffffffffffffffffffffffffffffff163373ffffffffffffffffffffffffffffffffffffffff1614151561125457600080fd5b600c60009054906101000a900473ffffffffffffffffffffffffffffffffffffffff1673ffffffffffffffffffffffffffffffffffffffff167ff8df31144d9c2f0f6b59d69b8b98abd5459d07f2742c4df920b25aae33c6482060405160405180910390a26000600c60006101000a81548173ffffffffffffffffffffffffffffffffffffffff021916908373ffffffffffffffffffffffffffffffffffffffff160217905550565b6000600f60009054906101000a900473ffffffffffffffffffffffffffffffffffffffff16905090565b6000808484604051602001808373ffffffffffffffffffffffffffffffffffffffff1673ffffffffffffffffffffffffffffffffffffffff166c0100000000000000000000000002815260140182805190602001908083835b6020831015156113a55780518252602082019150602081019050602083039250611380565b6001836020036101000a038019825116818451168082178552505050505050905001925050506040516020818303038152906040526040518082805190602001908083835b60208310151561140f57805182526020820191506020810190506020830392506113ea565b6001836020036101000a03801982511681845116808217855250505050505090500191505060405180910390209150611455838360001916611e8290919063ffffffff16565b9050600c60009054906101000a900473ffffffffffffffffffffffffffffffffffffffff1673ffffffffffffffffffffffffffffffffffffffff168173ffffffffffffffffffffffffffffffffffffffff161415156114b357600080fd5b6114bd8585611f7a565b5050505050565b600c60009054906101000a900473ffffffffffffffffffffffffffffffffffffffff1681565b606060068054600181600116156101000203166002900480601f0160208091040260200160405190810160405280929190818152602001828054600181600116156101000203166002900480156115825780601f1061155757610100808354040283529160200191611582565b820191906000526020600020905b81548152906001019060200180831161156557829003601f168201915b5050505050905090565b3373ffffffffffffffffffffffffffffffffffffffff168273ffffffffffffffffffffffffffffffffffffffff16141515156115c757600080fd5b80600460003373ffffffffffffffffffffffffffffffffffffffff1673ffffffffffffffffffffffffffffffffffffffff16815260200190815260200160002060008473ffffffffffffffffffffffffffffffffffffffff1673ffffffffffffffffffffffffffffffffffffffff16815260200190815260200160002060006101000a81548160ff0219169083151502179055508173ffffffffffffffffffffffffffffffffffffffff163373ffffffffffffffffffffffffffffffffffffffff167f17307eab39ab6107e8899845ad3d59bd9653f200f220920489ca2b5937696c3183604051808215151515815260200191505060405180910390a35050565b6116d3848484610e9c565b6116df84848484612095565b15156116ea57600080fd5b50505050565b60606116fb8261104c565b151561170657600080fd5b600b60008381526020019081526020016000208054600181600116156101000203166002900480601f0160208091040260200160405190810160405280929190818152602001828054600181600116156101000203166002900480156117ad5780601f10611782576101008083540402835291602001916117ad565b820191906000526020600020905b81548152906001019060200180831161179057829003601f168201915b50505050509050919050565b600c60009054906101000a900473ffffffffffffffffffffffffffffffffffffffff1673ffffffffffffffffffffffffffffffffffffffff163373ffffffffffffffffffffffffffffffffffffffff1614151561181557600080fd5b61181f8282611f7a565b5050565b6000600460008473ffffffffffffffffffffffffffffffffffffffff1673ffffffffffffffffffffffffffffffffffffffff16815260200190815260200160002060008373ffffffffffffffffffffffffffffffffffffffff1673ffffffffffffffffffffffffffffffffffffffff16815260200190815260200160002060009054906101000a900460ff16905092915050565b600c60009054906101000a900473ffffffffffffffffffffffffffffffffffffffff1673ffffffffffffffffffffffffffffffffffffffff163373ffffffffffffffffffffffffffffffffffffffff1614151561191357600080fd5b61191c816122b7565b50565b60008061192b836110f6565b90508073ffffffffffffffffffffffffffffffffffffffff168473ffffffffffffffffffffffffffffffffffffffff16148061199a57508373ffffffffffffffffffffffffffffffffffffffff1661198284610cc0565b73ffffffffffffffffffffffffffffffffffffffff16145b806119ab57506119aa8185611823565b5b91505092915050565b8173ffffffffffffffffffffffffffffffffffffffff166119d4826110f6565b73ffffffffffffffffffffffffffffffffffffffff161415156119f657600080fd5b600073ffffffffffffffffffffffffffffffffffffffff166002600083815260200190815260200160002060009054906101000a900473ffffffffffffffffffffffffffffffffffffffff1673ffffffffffffffffffffffffffffffffffffffff16141515611ab35760006002600083815260200190815260200160002060006101000a81548173ffffffffffffffffffffffffffffffffffffffff021916908373ffffffffffffffffffffffffffffffffffffffff1602179055505b5050565b6000806000611ac685856123b3565b60086000858152602001908152602001600020549250611b326001600760008873ffffffffffffffffffffffffffffffffffffffff1673ffffffffffffffffffffffffffffffffffffffff168152602001908152602001600020805490506124e290919063ffffffff16565b9150600760008673ffffffffffffffffffffffffffffffffffffffff1673ffffffffffffffffffffffffffffffffffffffff16815260200190815260200160002082815481101515611b8057fe5b9060005260206000200154905080600760008773ffffffffffffffffffffffffffffffffffffffff1673ffffffffffffffffffffffffffffffffffffffff16815260200190815260200160002084815481101515611bda57fe5b9060005260206000200181905550600760008673ffffffffffffffffffffffffffffffffffffffff1673ffffffffffffffffffffffffffffffffffffffff168152602001908152602001600020805480919060019003611c3a9190612835565b50600060086000868152602001908152602001600020819055508260086000838152602001908152602001600020819055505050505050565b6000611c7f83836124fb565b600760008473ffffffffffffffffffffffffffffffffffffffff1673ffffffffffffffffffffffffffffffffffffffff168152602001908152602001600020805490509050600760008473ffffffffffffffffffffffffffffffffffffffff1673ffffffffffffffffffffffffffffffffffffffff168152602001908152602001600020829080600181540180825580915050906001820390600052602060002001600090919290919091505550806008600084815260200190815260200160002081905550505050565b6000806000611d598585612655565b6000600b6000868152602001908152602001600020805460018160011615610100020316600290049050141515611daa57600b60008581526020019081526020016000206000611da99190612861565b5b600a6000858152602001908152602001600020549250611dd960016009805490506124e290919063ffffffff16565b9150600982815481101515611dea57fe5b9060005260206000200154905080600984815481101515611e0757fe5b90600052602060002001819055506000600983815481101515611e2657fe5b90600052602060002001819055506009805480919060019003611e499190612835565b506000600a60008681526020019081526020016000208190555082600a6000838152602001908152602001600020819055505050505050565b60008060008060418551141515611e9c5760009350611f71565b6020850151925060408501519150606085015160001a9050601b8160ff161015611ec757601b810190505b601b8160ff1614158015611edf5750601c8160ff1614155b15611eed5760009350611f71565b600186828585604051600081526020016040526040518085600019166000191681526020018460ff1660ff1681526020018360001916600019168152602001826000191660001916815260200194505050505060206040516020810390808403906000865af1158015611f64573d6000803e3d6000fd5b5050506020604051035193505b50505092915050565b6000611f926001600d546126c990919063ffffffff16565b9050611f9d8161104c565b15801561206a5750600f60009054906101000a900473ffffffffffffffffffffffffffffffffffffffff1673ffffffffffffffffffffffffffffffffffffffff166319d1997a6040518163ffffffff167c0100000000000000000000000000000000000000000000000000000000028152600401602060405180830381600087803b15801561202b57600080fd5b505af115801561203f573d6000803e3d6000fd5b505050506040513d602081101561205557600080fd5b81019080805190602001909291905050508111155b151561207557600080fd5b80600d8190555061208683826126e5565b612090818361273c565b505050565b6000806120b78573ffffffffffffffffffffffffffffffffffffffff1661277c565b15156120c657600191506122ae565b8473ffffffffffffffffffffffffffffffffffffffff1663150b7a02338887876040518563ffffffff167c0100000000000000000000000000000000000000000000000000000000028152600401808573ffffffffffffffffffffffffffffffffffffffff1673ffffffffffffffffffffffffffffffffffffffff1681526020018473ffffffffffffffffffffffffffffffffffffffff1673ffffffffffffffffffffffffffffffffffffffff16815260200183815260200180602001828103825283818151815260200191508051906020019080838360005b838110156121bb5780820151818401526020810190506121a0565b50505050905090810190601f1680156121e85780820380516001836020036101000a031916815260200191505b5095505050505050602060405180830381600087803b15801561220a57600080fd5b505af115801561221e573d6000803e3d6000fd5b505050506040513d602081101561223457600080fd5b8101908080519060200190929190505050905063150b7a027c0100000000000000000000000000000000000000000000000000000000027bffffffffffffffffffffffffffffffffffffffffffffffffffffffff1916817bffffffffffffffffffffffffffffffffffffffffffffffffffffffff19161491505b50949350505050565b600073ffffffffffffffffffffffffffffffffffffffff168173ffffffffffffffffffffffffffffffffffffffff16141515156122f357600080fd5b8073ffffffffffffffffffffffffffffffffffffffff16600c60009054906101000a900473ffffffffffffffffffffffffffffffffffffffff1673ffffffffffffffffffffffffffffffffffffffff167f8be0079c531659141344cd1fd0a4f28419497f9722a3daafe3b4186f6b6457e060405160405180910390a380600c60006101000a81548173ffffffffffffffffffffffffffffffffffffffff021916908373ffffffffffffffffffffffffffffffffffffffff16021790555050565b8173ffffffffffffffffffffffffffffffffffffffff166123d3826110f6565b73ffffffffffffffffffffffffffffffffffffffff161415156123f557600080fd5b6124486001600360008573ffffffffffffffffffffffffffffffffffffffff1673ffffffffffffffffffffffffffffffffffffffff168152602001908152602001600020546124e290919063ffffffff16565b600360008473ffffffffffffffffffffffffffffffffffffffff1673ffffffffffffffffffffffffffffffffffffffff1681526020019081526020016000208190555060006001600083815260200190815260200160002060006101000a81548173ffffffffffffffffffffffffffffffffffffffff021916908373ffffffffffffffffffffffffffffffffffffffff1602179055505050565b60008282111515156124f057fe5b818303905092915050565b600073ffffffffffffffffffffffffffffffffffffffff166001600083815260200190815260200160002060009054906101000a900473ffffffffffffffffffffffffffffffffffffffff1673ffffffffffffffffffffffffffffffffffffffff1614151561256957600080fd5b816001600083815260200190815260200160002060006101000a81548173ffffffffffffffffffffffffffffffffffffffff021916908373ffffffffffffffffffffffffffffffffffffffff16021790555061260e6001600360008573ffffffffffffffffffffffffffffffffffffffff1673ffffffffffffffffffffffffffffffffffffffff168152602001908152602001600020546126c990919063ffffffff16565b600360008473ffffffffffffffffffffffffffffffffffffffff1673ffffffffffffffffffffffffffffffffffffffff168152602001908152602001600020819055505050565b61265f82826119b4565b6126698282611ab7565b80600073ffffffffffffffffffffffffffffffffffffffff168373ffffffffffffffffffffffffffffffffffffffff167fddf252ad1be2c89b69c2b068fc378daa952ba7f163c4a11628f55a4df523b3ef60405160405180910390a45050565b600081830190508281101515156126dc57fe5b80905092915050565b6126ef828261278f565b600980549050600a60008381526020019081526020016000208190555060098190806001815401808255809150509060018203906000526020600020016000909192909190915055505050565b6127458261104c565b151561275057600080fd5b80600b600084815260200190815260200160002090805190602001906127779291906128a9565b505050565b600080823b905060008111915050919050565b600073ffffffffffffffffffffffffffffffffffffffff168273ffffffffffffffffffffffffffffffffffffffff16141515156127cb57600080fd5b6127d58282611c73565b808273ffffffffffffffffffffffffffffffffffffffff16600073ffffffffffffffffffffffffffffffffffffffff167fddf252ad1be2c89b69c2b068fc378daa952ba7f163c4a11628f55a4df523b3ef60405160405180910390a45050565b81548183558181111561285c5781836000526020600020918201910161285b9190612929565b5b505050565b50805460018160011615610100020316600290046000825580601f1061288757506128a6565b601f0160209004906000526020600020908101906128a59190612929565b5b50565b828054600181600116156101000203166002900490600052602060002090601f016020900481019282601f106128ea57805160ff1916838001178555612918565b82800160010185558215612918579182015b828111156129175782518255916020019190600101906128fc565b5b5090506129259190612929565b5090565b61294b91905b8082111561294757600081600090555060010161292f565b5090565b905600a165627a7a723058206980104fafc2f0f1997e20fbd23c660329ba964b1290041675007e78623d94940029608060405234801561001057600080fd5b506040516105d73803806105d78339810180604052810190808051820192919060200180518201929190602001805190602001909291908051820192919050505083600090805190602001906100679291906100d5565b50826001908051906020019061007e9291906100d5565b5080600390805190602001906100959291906100d5565b50600082146100a457816100c6565b7fffffffffffffffffffffffffffffffffffffffffffffffffffffffffffffffff5b6002819055505050505061017a565b828054600181600116156101000203166002900490600052602060002090601f016020900481019282601f1061011657805160ff1916838001178555610144565b82800160010185558215610144579182015b82811115610143578251825591602001919060010190610128565b5b5090506101519190610155565b5090565b61017791905b8082111561017357600081600090555060010161015b565b5090565b90565b61044e806101896000396000f300608060405260043610610062576000357c0100000000000000000000000000000000000000000000000000000000900463ffffffff16806306fdde031461006757806319d1997a146100f757806395d89b4114610122578063eac989f8146101b2575b600080fd5b34801561007357600080fd5b5061007c610242565b6040518080602001828103825283818151815260200191508051906020019080838360005b838110156100bc5780820151818401526020810190506100a1565b50505050905090810190601f1680156100e95780820380516001836020036101000a031916815260200191505b509250505060405180910390f35b34801561010357600080fd5b5061010c6102e0565b6040518082815260200191505060405180910390f35b34801561012e57600080fd5b506101376102e6565b6040518080602001828103825283818151815260200191508051906020019080838360005b8381101561017757808201518184015260208101905061015c565b50505050905090810190601f1680156101a45780820380516001836020036101000a031916815260200191505b509250505060405180910390f35b3480156101be57600080fd5b506101c7610384565b6040518080602001828103825283818151815260200191508051906020019080838360005b838110156102075780820151818401526020810190506101ec565b50505050905090810190601f1680156102345780820380516001836020036101000a031916815260200191505b509250505060405180910390f35b60008054600181600116156101000203166002900480601f0160208091040260200160405190810160405280929190818152602001828054600181600116156101000203166002900480156102d85780601f106102ad576101008083540402835291602001916102d8565b820191906000526020600020905b8154815290600101906020018083116102bb57829003601f168201915b505050505081565b60025481565b60018054600181600116156101000203166002900480601f01602080910402602001604051908101604052809291908181526020018280546001816001161561010002031660029004801561037c5780601f106103515761010080835404028352916020019161037c565b820191906000526020600020905b81548152906001019060200180831161035f57829003601f168201915b505050505081565b60038054600181600116156101000203166002900480601f01602080910402602001604051908101604052809291908181526020018280546001816001161561010002031660029004801561041a5780601f106103ef5761010080835404028352916020019161041a565b820191906000526020600020905b8154815290600101906020018083116103fd57829003601f168201915b5050505050815600a165627a7a7230582031926cfade0ed1d8e0179d4d69fff90e71b0e2e7fa54f298f68b15a25460c6830029a165627a7a723058200f0a969dd955048b73a510ae019e9d75af9aa6ccb5192cd2ad6e39a320cd2cf70029",
  "source": "pragma solidity ^0.4.19;\r\n\r\nimport './StandardAsset.sol';\r\nimport \"openzeppelin-solidity/contracts/ownership/Ownable.sol\";\r\n\r\ncontract AssetRegistry is Ownable {\r\n\r\n    event AssetRegistered(StandardAsset indexed asset, uint indexed id);\r\n\r\n    // Mapping from contract ID to StandardAsset\r\n    mapping(uint => StandardAsset) public idAssets;\r\n\r\n    constructor() public {\r\n\r\n    }\r\n\r\n    /**\r\n    * @dev  Registering a type of asset that has at most one asset\r\n    * @param _name AssetType name\r\n    * @param _symbol AssetType symbol\r\n    */\r\n    function registerClass(string _name, string _symbol, address _owner) onlyOwner public returns (uint){\r\n        return register(_name, _symbol, 1, \"\", _owner);\r\n    }\r\n\r\n    /**\r\n    * @dev  Registering a type of asset\r\n    * @param _name AssetType name\r\n    * @param _symbol AssetType symbol\r\n    * @param _supplyLimit supply limit\r\n    * @param _uri AssetType metadata uri\r\n    */\r\n    function registerClass(string _name, string _symbol, uint256 _supplyLimit, string _uri, address _owner) onlyOwner public returns (uint){\r\n        return register(_name, _symbol, _supplyLimit, _uri, _owner);\r\n    }\r\n\r\n    /* function registerClass(AssetType _type) onlyOwner public returns (uint) {\r\n         uint id = getId(_type.name(), _type.symbol(), _type.uri());\r\n         require(idAssets[id] == address(0x0));\r\n         idAssets[id] = id;\r\n         emit AssetRegistered(_type, id);\r\n         return id;\r\n     }   */\r\n\r\n    /**\r\n    * @dev internal function, Registering a type of asset\r\n    * @param _name AssetType name\r\n    * @param _symbol AssetType symbol\r\n    * @param _uri AssetType metadata uri\r\n    */\r\n    function register(string _name, string _symbol, uint256 _supplyLimit, string _uri, address _owner) internal returns (uint){\r\n        uint id = getId(_name, _symbol, _uri);\r\n        require(idAssets[id] == address(0x0));\r\n        StandardAsset asset = new StandardAsset(_name, _symbol, _supplyLimit, _uri, _owner);\r\n        idAssets[id] = asset;\r\n        emit AssetRegistered(asset, id);\r\n        return id;\r\n    }\r\n\r\n    /**\r\n    * @dev id generator\r\n    */\r\n    function getId(string _name, string _symbol, string _uri) public pure returns (uint){\r\n        uint256 id = uint256(keccak256(abi.encodePacked(_name, _symbol, _uri)));\r\n        return id;\r\n    }\r\n\r\n}\r\n",
  "sourcePath": "G:\\GitRepository\\udap\\uc3\\contracts\\AssetRegistry.sol",
  "compiler": {
    "name": "solc",
    "version": "0.4.24+commit.e67f0147.Emscripten.clang"
  },
  "schemaVersion": "2.0.1",
  "updatedAt": "2018-08-31T04:23:12.647Z"
}