{
  "contractName": "AssetType",
  "abi": [
    {
      "constant": true,
      "inputs": [],
      "name": "name",
      "outputs": [
        {
          "name": "",
          "type": "string"
        }
      ],
      "payable": false,
      "stateMutability": "view",
      "type": "function"
    },
    {
      "constant": true,
      "inputs": [],
      "name": "symbol",
      "outputs": [
        {
          "name": "",
          "type": "string"
        }
      ],
      "payable": false,
      "stateMutability": "view",
      "type": "function"
    },
    {
      "constant": true,
      "inputs": [],
      "name": "uri",
      "outputs": [
        {
          "name": "",
          "type": "string"
        }
      ],
      "payable": false,
      "stateMutability": "view",
      "type": "function"
    },
    {
      "inputs": [
        {
          "name": "_name",
          "type": "string"
        },
        {
          "name": "_symbol",
          "type": "string"
        },
        {
          "name": "_uri",
          "type": "string"
        }
      ],
      "payable": false,
      "stateMutability": "nonpayable",
      "type": "constructor"
    }
  ],
  "bytecode": "0x608060405234801561001057600080fd5b5060405161055a38038061055a833981018060405281019080805182019291906020018051820192919060200180518201929190505050826000908051906020019061005d929190610094565b508160019080519060200190610074929190610094565b50806002908051906020019061008b929190610094565b50505050610139565b828054600181600116156101000203166002900490600052602060002090601f016020900481019282601f106100d557805160ff1916838001178555610103565b82800160010185558215610103579182015b828111156101025782518255916020019190600101906100e7565b5b5090506101109190610114565b5090565b61013691905b8082111561013257600081600090555060010161011a565b5090565b90565b610412806101486000396000f300608060405260043610610057576000357c0100000000000000000000000000000000000000000000000000000000900463ffffffff16806306fdde031461005c57806395d89b41146100ec578063eac989f81461017c575b600080fd5b34801561006857600080fd5b5061007161020c565b6040518080602001828103825283818151815260200191508051906020019080838360005b838110156100b1578082015181840152602081019050610096565b50505050905090810190601f1680156100de5780820380516001836020036101000a031916815260200191505b509250505060405180910390f35b3480156100f857600080fd5b506101016102aa565b6040518080602001828103825283818151815260200191508051906020019080838360005b83811015610141578082015181840152602081019050610126565b50505050905090810190601f16801561016e5780820380516001836020036101000a031916815260200191505b509250505060405180910390f35b34801561018857600080fd5b50610191610348565b6040518080602001828103825283818151815260200191508051906020019080838360005b838110156101d15780820151818401526020810190506101b6565b50505050905090810190601f1680156101fe5780820380516001836020036101000a031916815260200191505b509250505060405180910390f35b60008054600181600116156101000203166002900480601f0160208091040260200160405190810160405280929190818152602001828054600181600116156101000203166002900480156102a25780601f10610277576101008083540402835291602001916102a2565b820191906000526020600020905b81548152906001019060200180831161028557829003601f168201915b505050505081565b60018054600181600116156101000203166002900480601f0160208091040260200160405190810160405280929190818152602001828054600181600116156101000203166002900480156103405780601f1061031557610100808354040283529160200191610340565b820191906000526020600020905b81548152906001019060200180831161032357829003601f168201915b505050505081565b60028054600181600116156101000203166002900480601f0160208091040260200160405190810160405280929190818152602001828054600181600116156101000203166002900480156103de5780601f106103b3576101008083540402835291602001916103de565b820191906000526020600020905b8154815290600101906020018083116103c157829003601f168201915b5050505050815600a165627a7a72305820477088ba1eddc793a476a3d6c616629152b457f795f7fa17d4f24e7cbaa238420029",
  "source": "pragma solidity ^0.4.19;\r\n\r\nimport 'openzeppelin-solidity/contracts/token/ERC721/ERC721Token.sol';\r\n\r\ncontract AssetType {\r\n\r\n    // Asset type name\r\n    string public name;\r\n\r\n    // Asset type symbol\r\n    string public symbol;\r\n\r\n    // Asset type metadata uri,Pointing to a json file\r\n    string public uri;\r\n\r\n    constructor(string _name, string _symbol,string _uri) public {\r\n        name = _name;\r\n        symbol = _symbol;\r\n        uri = _uri;\r\n    }\r\n}\r\n\r\ncontract StandardAsset is ERC721Token {\r\n\r\n     uint256 internal id_;\r\n\r\n    // Mapping from token ID to issuer\r\n    mapping (uint256 => address) internal tokenIssuers;\r\n\r\n    AssetType private assetType;\r\n\r\n    /**\r\n   * @dev Constructor function\r\n   */\r\n    constructor(string _name, string _symbol,string _classURI) public ERC721Token(_name,_symbol) {\r\n        assetType = new AssetType(_name,_symbol,_classURI);\r\n    }\r\n\r\n    /**\r\n       * @dev create a new token\r\n       * @dev Reverts if the given token ID already exists\r\n       * @param _to address the beneficiary that will own the minted token\r\n       * @param _tokenURI token uri\r\n       */\r\n    function mint(address _to,string _tokenURI) public {\r\n        uint256 tokenId = id_ ++ ;\r\n        require(!exists(tokenId));\r\n        super._mint(_to, tokenId);\r\n        super._setTokenURI(tokenId,_tokenURI);\r\n        tokenIssuers[tokenId] = msg.sender;\r\n    }\r\n\r\n    /**\r\n   * @dev  burn a specific token\r\n   * @dev Reverts if the token does not exist\r\n   * @param _owner owner of the token to burn\r\n   * @param _tokenId uint256 ID of the token being burned by the msg.sender\r\n   */\r\n    function burn(address _owner, uint256 _tokenId) public {\r\n        super._burn(_owner, _tokenId);\r\n        delete tokenIssuers[_tokenId];\r\n    }\r\n\r\n    /**\r\n   * @dev Returns issuer for a given token ID\r\n   * @dev Throws if the token ID does not exist.\r\n   * @param _tokenId uint256 ID of the token to query\r\n   */\r\n    function tokenIssuer(uint256 _tokenId) public view returns (address) {\r\n        require(exists(_tokenId));\r\n        return tokenIssuers[_tokenId];\r\n    }\r\n\r\n    /**\r\n   * @dev Returns token IDs of owner\r\n   * @param _owner token owner\r\n   */\r\n    function getOwnedTokens(address _owner)public view returns(uint256[]){\r\n        return ownedTokens[_owner];\r\n    }\r\n\r\n    function getAssetType() public view returns(AssetType){\r\n        return assetType;\r\n    }\r\n\r\n\r\n\r\n\r\n\r\n\r\n\r\n}\r\n",
  "sourcePath": "G:\\GitRepository\\udap\\uc3\\contracts\\StandardAsset.sol",
  "compiler": {
    "name": "solc",
    "version": "0.4.24+commit.e67f0147.Emscripten.clang"
  },
  "schemaVersion": "2.0.0",
  "updatedAt": "2018-06-11T08:06:38.514Z"
}