{
  "contractName": "CompositeAsset",
  "abi": [
    {
      "constant": true,
      "inputs": [],
      "name": "isTransferrable",
      "outputs": [
        {
          "name": "",
          "type": "bool"
        }
      ],
      "payable": false,
      "stateMutability": "view",
      "type": "function"
    },
    {
      "constant": true,
      "inputs": [],
      "name": "getNamespace",
      "outputs": [
        {
          "name": "nsi",
          "type": "bytes32"
        }
      ],
      "payable": false,
      "stateMutability": "view",
      "type": "function"
    },
    {
      "constant": true,
      "inputs": [],
      "name": "getData",
      "outputs": [
        {
          "name": "",
          "type": "string"
        }
      ],
      "payable": false,
      "stateMutability": "view",
      "type": "function"
    },
    {
      "constant": true,
      "inputs": [],
      "name": "getIssuer",
      "outputs": [
        {
          "name": "",
          "type": "address"
        }
      ],
      "payable": false,
      "stateMutability": "view",
      "type": "function"
    },
    {
      "constant": true,
      "inputs": [],
      "name": "getId",
      "outputs": [
        {
          "name": "",
          "type": "uint256"
        }
      ],
      "payable": false,
      "stateMutability": "view",
      "type": "function"
    },
    {
      "constant": false,
      "inputs": [],
      "name": "destroy",
      "outputs": [],
      "payable": false,
      "stateMutability": "nonpayable",
      "type": "function"
    },
    {
      "constant": true,
      "inputs": [],
      "name": "getOwner",
      "outputs": [
        {
          "name": "",
          "type": "address"
        }
      ],
      "payable": false,
      "stateMutability": "view",
      "type": "function"
    },
    {
      "constant": true,
      "inputs": [],
      "name": "isFungible",
      "outputs": [
        {
          "name": "",
          "type": "bool"
        }
      ],
      "payable": false,
      "stateMutability": "view",
      "type": "function"
    },
    {
      "constant": true,
      "inputs": [],
      "name": "getDataRef",
      "outputs": [
        {
          "name": "",
          "type": "bytes32"
        }
      ],
      "payable": false,
      "stateMutability": "view",
      "type": "function"
    },
    {
      "constant": true,
      "inputs": [],
      "name": "getMetaData",
      "outputs": [
        {
          "name": "",
          "type": "bytes32"
        },
        {
          "name": "",
          "type": "address"
        },
        {
          "name": "",
          "type": "bool"
        },
        {
          "name": "",
          "type": "bool"
        },
        {
          "name": "",
          "type": "string"
        },
        {
          "name": "",
          "type": "bytes32"
        }
      ],
      "payable": false,
      "stateMutability": "view",
      "type": "function"
    },
    {
      "inputs": [
        {
          "name": "_issuer",
          "type": "address"
        },
        {
          "name": "_id",
          "type": "uint256"
        },
        {
          "name": "_nsi",
          "type": "bytes32"
        },
        {
          "name": "_transferrable",
          "type": "bool"
        },
        {
          "name": "data",
          "type": "string"
        },
        {
          "name": "_mdHash",
          "type": "bytes32"
        },
        {
          "name": "_assets",
          "type": "address[]"
        }
      ],
      "payable": false,
      "stateMutability": "nonpayable",
      "type": "constructor"
    },
    {
      "anonymous": false,
      "inputs": [
        {
          "indexed": true,
          "name": "_asset",
          "type": "address"
        },
        {
          "indexed": true,
          "name": "_id",
          "type": "uint256"
        }
      ],
      "name": "AssetCreated",
      "type": "event"
    },
    {
      "anonymous": false,
      "inputs": [
        {
          "indexed": true,
          "name": "_to",
          "type": "address"
        },
        {
          "indexed": true,
          "name": "_id",
          "type": "uint256"
        }
      ],
      "name": "AssetTransferred",
      "type": "event"
    },
    {
      "anonymous": false,
      "inputs": [
        {
          "indexed": true,
          "name": "_assetId",
          "type": "uint256"
        }
      ],
      "name": "AssetDestroyed",
      "type": "event"
    },
    {
      "constant": false,
      "inputs": [],
      "name": "getAmount",
      "outputs": [
        {
          "name": "",
          "type": "uint256"
        }
      ],
      "payable": false,
      "stateMutability": "nonpayable",
      "type": "function"
    },
    {
      "constant": false,
      "inputs": [
        {
          "name": "idx",
          "type": "uint256"
        }
      ],
      "name": "getAsset",
      "outputs": [
        {
          "name": "",
          "type": "address"
        }
      ],
      "payable": false,
      "stateMutability": "nonpayable",
      "type": "function"
    },
    {
      "constant": false,
      "inputs": [
        {
          "name": "_to",
          "type": "address"
        }
      ],
      "name": "transfer",
      "outputs": [],
      "payable": false,
      "stateMutability": "nonpayable",
      "type": "function"
    },
    {
      "constant": false,
      "inputs": [
        {
          "name": "_to",
          "type": "address"
        },
        {
          "name": "_assetId",
          "type": "uint256"
        }
      ],
      "name": "transfer",
      "outputs": [],
      "payable": false,
      "stateMutability": "nonpayable",
      "type": "function"
    }
  ],
  "bytecode": "0x606060405234156200001057600080fd5b6040516200119a3803806200119a83398101604052808051906020019091908051906020019091908051906020019091908051906020019091908051820191906020018051906020019091908051820191905050600080888888888888848687600073ffffffffffffffffffffffffffffffffffffffff168273ffffffffffffffffffffffffffffffffffffffff1614158015620000db5750600073ffffffffffffffffffffffffffffffffffffffff168173ffffffffffffffffffffffffffffffffffffffff1614155b1515620000e757600080fd5b8260008190555081600160006101000a81548173ffffffffffffffffffffffffffffffffffffffff021916908373ffffffffffffffffffffffffffffffffffffffff16021790555080600260006101000a81548173ffffffffffffffffffffffffffffffffffffffff021916908373ffffffffffffffffffffffffffffffffffffffff1602179055506000543073ffffffffffffffffffffffffffffffffffffffff167f20df459a0f7f1bc64a42346a9e6536111a3512be01de7a0f5327a4e13b33703860405160405180910390a350505060c060405190810160405280856000191681526020018773ffffffffffffffffffffffffffffffffffffffff1681526020018415158152602001600015158152602001838152602001826000191681525060036000820151816000019060001916905560208201518160010160006101000a81548173ffffffffffffffffffffffffffffffffffffffff021916908373ffffffffffffffffffffffffffffffffffffffff16021790555060408201518160010160146101000a81548160ff02191690831515021790555060608201518160010160156101000a81548160ff0219169083151502179055506080820151816002019080519060200190620002c1929190620004d8565b5060a08201518160030190600019169055905050843073ffffffffffffffffffffffffffffffffffffffff167f20df459a0f7f1bc64a42346a9e6536111a3512be01de7a0f5327a4e13b33703860405160405180910390a3505050505050600091505b8251821015620004c95782828151811015156200033d57fe5b9060200190602002015173ffffffffffffffffffffffffffffffffffffffff16635d1ca6316000604051602001526040518163ffffffff167c0100000000000000000000000000000000000000000000000000000000028152600401602060405180830381600087803b1515620003b357600080fd5b6102c65a03f11515620003c557600080fd5b50505060405180519050905060006007600084815260200190815260200160002060009054906101000a900473ffffffffffffffffffffffffffffffffffffffff1673ffffffffffffffffffffffffffffffffffffffff16141515620004bb5782828151811015156200043457fe5b906020019060200201516007600083815260200190815260200160002060006101000a81548173ffffffffffffffffffffffffffffffffffffffff021916908373ffffffffffffffffffffffffffffffffffffffff16021790555060088054806001018281620004a591906200055f565b9160005260206000209001600083909190915055505b818060010192505062000324565b505050505050505050620005b6565b828054600181600116156101000203166002900490600052602060002090601f016020900481019282601f106200051b57805160ff19168380011785556200054c565b828001600101855582156200054c579182015b828111156200054b5782518255916020019190600101906200052e565b5b5090506200055b91906200058e565b5090565b81548183558181151162000589578183600052602060002091820191016200058891906200058e565b5b505050565b620005b391905b80821115620005af57600081600090555060010162000595565b5090565b90565b610bd480620005c66000396000f3006060604052600436106100d0576000357c0100000000000000000000000000000000000000000000000000000000900463ffffffff16806318e6b367146100d55780631a6952301461010257806327ac4b701461013b5780633bc5de301461016c57806352556421146101fa5780635d1ca6311461024f57806383197ef014610278578063893d20e81461028d578063a89c2e5a146102e2578063a9059cbb1461030f578063c517802414610351578063d2786ba414610382578063d321fe2914610477578063eac8f5b8146104a0575b600080fd5b34156100e057600080fd5b6100e8610503565b604051808215151515815260200191505060405180910390f35b341561010d57600080fd5b610139600480803573ffffffffffffffffffffffffffffffffffffffff1690602001909190505061051d565b005b341561014657600080fd5b61014e61063f565b60405180826000191660001916815260200191505060405180910390f35b341561017757600080fd5b61017f61064c565b6040518080602001828103825283818151815260200191508051906020019080838360005b838110156101bf5780820151818401526020810190506101a4565b50505050905090810190601f1680156101ec5780820380516001836020036101000a031916815260200191505b509250505060405180910390f35b341561020557600080fd5b61020d6106f7565b604051808273ffffffffffffffffffffffffffffffffffffffff1673ffffffffffffffffffffffffffffffffffffffff16815260200191505060405180910390f35b341561025a57600080fd5b610262610721565b6040518082815260200191505060405180910390f35b341561028357600080fd5b61028b61072a565b005b341561029857600080fd5b6102a0610788565b604051808273ffffffffffffffffffffffffffffffffffffffff1673ffffffffffffffffffffffffffffffffffffffff16815260200191505060405180910390f35b34156102ed57600080fd5b6102f56107b2565b604051808215151515815260200191505060405180910390f35b341561031a57600080fd5b61034f600480803573ffffffffffffffffffffffffffffffffffffffff169060200190919080359060200190919050506107cc565b005b341561035c57600080fd5b6103646109f5565b60405180826000191660001916815260200191505060405180910390f35b341561038d57600080fd5b610395610a01565b6040518087600019166000191681526020018673ffffffffffffffffffffffffffffffffffffffff1673ffffffffffffffffffffffffffffffffffffffff1681526020018515151515815260200184151515158152602001806020018360001916600019168152602001828103825284818151815260200191508051906020019080838360005b8381101561043757808201518184015260208101905061041c565b50505050905090810190601f1680156104645780820380516001836020036101000a031916815260200191505b5097505050505050505060405180910390f35b341561048257600080fd5b61048a610b1d565b6040518082815260200191505060405180910390f35b34156104ab57600080fd5b6104c16004808035906020019091905050610b2a565b604051808273ffffffffffffffffffffffffffffffffffffffff1673ffffffffffffffffffffffffffffffffffffffff16815260200191505060405180910390f35b6000600360010160149054906101000a900460ff16905090565b600260009054906101000a900473ffffffffffffffffffffffffffffffffffffffff1673ffffffffffffffffffffffffffffffffffffffff163373ffffffffffffffffffffffffffffffffffffffff1614151561057957600080fd5b600073ffffffffffffffffffffffffffffffffffffffff168173ffffffffffffffffffffffffffffffffffffffff16141515156105b557600080fd5b80600260006101000a81548173ffffffffffffffffffffffffffffffffffffffff021916908373ffffffffffffffffffffffffffffffffffffffff1602179055506000548173ffffffffffffffffffffffffffffffffffffffff167fff67663330fcde57965a89e0eed2698c4f260f4f4dfa83e4d8a1c1db935fa23560405160405180910390a350565b6000600360000154905090565b610654610b94565b60036002018054600181600116156101000203166002900480601f0160208091040260200160405190810160405280929190818152602001828054600181600116156101000203166002900480156106ed5780601f106106c2576101008083540402835291602001916106ed565b820191906000526020600020905b8154815290600101906020018083116106d057829003601f168201915b5050505050905090565b6000600160009054906101000a900473ffffffffffffffffffffffffffffffffffffffff16905090565b60008054905090565b600260009054906101000a900473ffffffffffffffffffffffffffffffffffffffff1673ffffffffffffffffffffffffffffffffffffffff163373ffffffffffffffffffffffffffffffffffffffff1614151561078657600080fd5b565b6000600260009054906101000a900473ffffffffffffffffffffffffffffffffffffffff16905090565b6000600360010160159054906101000a900460ff16905090565b6000806000806007600086815260200190815260200160002060009054906101000a900473ffffffffffffffffffffffffffffffffffffffff1673ffffffffffffffffffffffffffffffffffffffff161415151561082957600080fd5b6007600085815260200190815260200160002060009054906101000a900473ffffffffffffffffffffffffffffffffffffffff1692506007600085815260200190815260200160002060006101000a81549073ffffffffffffffffffffffffffffffffffffffff02191690556008805490509150600090505b60088054905081101561094057836008828154811015156108bf57fe5b9060005260206000209001541415610933576008600183038154811015156108e357fe5b9060005260206000209001546008828154811015156108fe57fe5b90600052602060002090018190555060086001830381548110151561091f57fe5b906000526020600020900160009055610940565b80806001019150506108a2565b8273ffffffffffffffffffffffffffffffffffffffff16631a695230866040518263ffffffff167c0100000000000000000000000000000000000000000000000000000000028152600401808273ffffffffffffffffffffffffffffffffffffffff1673ffffffffffffffffffffffffffffffffffffffff168152602001915050600060405180830381600087803b15156109da57600080fd5b6102c65a03f115156109eb57600080fd5b5050505050505050565b60006003800154905090565b600080600080610a0f610b94565b6000600360000154600360010160009054906101000a900473ffffffffffffffffffffffffffffffffffffffff16600360010160149054906101000a900460ff16600360010160159054906101000a900460ff1660036002016003800154818054600181600116156101000203166002900480601f016020809104026020016040519081016040528092919081815260200182805460018160011615610100020316600290048015610b025780601f10610ad757610100808354040283529160200191610b02565b820191906000526020600020905b815481529060010190602001808311610ae557829003601f168201915b50505050509150955095509550955095509550909192939495565b6000600880549050905090565b600060088054905082101515610b3f57600080fd5b60076000600884815481101515610b5257fe5b906000526020600020900154815260200190815260200160002060009054906101000a900473ffffffffffffffffffffffffffffffffffffffff169050919050565b6020604051908101604052806000815250905600a165627a7a72305820a24bae9248bb1dd6d582b68ac89220b111aa794201d729084b711977b350d5bb0029",
  "source": "pragma solidity ^0.4.19;\r\n\r\nimport './Commons.sol';\r\nimport './StandardAsset.sol';\r\n\r\ncontract CompositeAsset is StandardAsset {\r\n\r\n  // map assetId to asset address\r\n  mapping(uint=>address) assets;\r\n  // assetId array\r\n  uint[] assetIds;\r\n\r\n  function CompositeAsset(address _issuer, uint _id, bytes32 _nsi, bool _transferrable,string data,bytes32 _mdHash, address[] _assets)\r\n    StandardAsset(_issuer, _id, _nsi, _transferrable,data,_mdHash) public {\r\n    for(uint i=0;i<_assets.length; i++) {\r\n      uint id = Asset(_assets[i]).getId();\r\n      if (assets[i] != 0) {\r\n        assets[id] = _assets[i];\r\n        assetIds.push(id);\r\n      }\r\n    }\r\n  }\r\n\r\n  function getAmount() public returns (uint) {\r\n    return assetIds.length;\r\n  }\r\n\r\n  function getAsset(uint idx) public returns (address) {\r\n    require(idx < assetIds.length);\r\n    return assets[assetIds[idx]];\r\n  }\r\n\r\n  function transfer(address _to, uint _assetId) public {\r\n    require(assets[_assetId] != 0);\r\n    Asset asset = Asset(assets[_assetId]);\r\n    // delete from mapping and array\r\n    delete assets[_assetId];\r\n    uint length = assetIds.length;\r\n    for (uint i=0;i<assetIds.length;i++){\r\n      if (assetIds[i] == _assetId) {\r\n        assetIds[i] = assetIds[length-1];\r\n        delete assetIds[length-1];\r\n        break;\r\n      }\r\n    }\r\n    asset.transfer(_to);\r\n  }\r\n\r\n}\r\n",
  "sourcePath": "G:\\GitRepository\\udap\\uc3\\contracts\\CompositeAsset.sol",
  "compiler": {
    "name": "solc",
    "version": "0.4.19+commit.c4cbbb05.Emscripten.clang"
  },
  "schemaVersion": "2.0.0",
  "updatedAt": "2018-04-23T05:50:10.022Z"
}