{
  "contractName": "Escrow",
  "abi": [
    {
      "constant": true,
      "inputs": [],
      "name": "standardAsset",
      "outputs": [
        {
          "name": "",
          "type": "address"
        }
      ],
      "payable": false,
      "stateMutability": "view",
      "type": "function"
    },
    {
      "constant": true,
      "inputs": [],
      "name": "assetId",
      "outputs": [
        {
          "name": "",
          "type": "uint256"
        }
      ],
      "payable": false,
      "stateMutability": "view",
      "type": "function"
    },
    {
      "constant": true,
      "inputs": [],
      "name": "recipient",
      "outputs": [
        {
          "name": "",
          "type": "address"
        }
      ],
      "payable": false,
      "stateMutability": "view",
      "type": "function"
    },
    {
      "constant": true,
      "inputs": [],
      "name": "sender",
      "outputs": [
        {
          "name": "",
          "type": "address"
        }
      ],
      "payable": false,
      "stateMutability": "view",
      "type": "function"
    },
    {
      "constant": true,
      "inputs": [],
      "name": "state",
      "outputs": [
        {
          "name": "",
          "type": "uint8"
        }
      ],
      "payable": false,
      "stateMutability": "view",
      "type": "function"
    },
    {
      "inputs": [
        {
          "name": "_recipient",
          "type": "address"
        },
        {
          "name": "_standardAsset",
          "type": "address"
        },
        {
          "name": "_assetId",
          "type": "uint256"
        }
      ],
      "payable": false,
      "stateMutability": "nonpayable",
      "type": "constructor"
    }
  ],
  "bytecode": "0x608060405234801561001057600080fd5b5060405160608061047a8339810180604052810190808051906020019092919080519060200190929190805190602001909291905050503373ffffffffffffffffffffffffffffffffffffffff168273ffffffffffffffffffffffffffffffffffffffff16636352211e836040518263ffffffff167c010000000000000000000000000000000000000000000000000000000002815260040180828152602001915050602060405180830381600087803b1580156100cd57600080fd5b505af11580156100e1573d6000803e3d6000fd5b505050506040513d60208110156100f757600080fd5b810190808051906020019092919050505073ffffffffffffffffffffffffffffffffffffffff1614151561012a57600080fd5b33600160006101000a81548173ffffffffffffffffffffffffffffffffffffffff021916908373ffffffffffffffffffffffffffffffffffffffff16021790555081600260006101000a81548173ffffffffffffffffffffffffffffffffffffffff021916908373ffffffffffffffffffffffffffffffffffffffff160217905550806003819055506000600460006101000a81548160ff021916908360028111156101d257fe5b0217905550505050610291806101e96000396000f30060806040526004361061006d576000357c0100000000000000000000000000000000000000000000000000000000900463ffffffff1680632ae6b6951461007257806344de240a146100c957806366d003ac146100f457806367e404ce1461014b578063c19d93fb146101a2575b600080fd5b34801561007e57600080fd5b506100876101db565b604051808273ffffffffffffffffffffffffffffffffffffffff1673ffffffffffffffffffffffffffffffffffffffff16815260200191505060405180910390f35b3480156100d557600080fd5b506100de610201565b6040518082815260200191505060405180910390f35b34801561010057600080fd5b50610109610207565b604051808273ffffffffffffffffffffffffffffffffffffffff1673ffffffffffffffffffffffffffffffffffffffff16815260200191505060405180910390f35b34801561015757600080fd5b5061016061022c565b604051808273ffffffffffffffffffffffffffffffffffffffff1673ffffffffffffffffffffffffffffffffffffffff16815260200191505060405180910390f35b3480156101ae57600080fd5b506101b7610252565b604051808260028111156101c757fe5b60ff16815260200191505060405180910390f35b600260009054906101000a900473ffffffffffffffffffffffffffffffffffffffff1681565b60035481565b6000809054906101000a900473ffffffffffffffffffffffffffffffffffffffff1681565b600160009054906101000a900473ffffffffffffffffffffffffffffffffffffffff1681565b600460009054906101000a900460ff16815600a165627a7a723058203c4b20bd0686ebd0186dbe333a0c0862aa20dc80459864e731db5d6671bd9c110029",
  "source": "pragma solidity ^0.4.19;\r\n\r\nimport './StandardAsset.sol';\r\n\r\n\r\ncontract Escrow {\r\n\r\n    enum State {CREATED, ACCEPTED, REJECTED}\r\n\r\n    address public recipient;\r\n    address public sender;\r\n    StandardAsset public standardAsset;\r\n    uint256 public assetId;\r\n    State   public state;\r\n\r\n    constructor(address _recipient, StandardAsset _standardAsset, uint256 _assetId) public {\r\n\r\n        require(_standardAsset.ownerOf(_assetId) == msg.sender);\r\n        //        require(msg.sender)\r\n        //        recipient = _recipient;\r\n        sender = msg.sender;\r\n        standardAsset = _standardAsset;\r\n        assetId = _assetId;\r\n        state = State.CREATED;\r\n    }\r\n\r\n    /*function accept() public {\r\n        if (msg.sender == buyer){\r\n            buyerOk = true;\r\n        } else if (msg.sender == seller){\r\n            sellerOk = true;\r\n        }\r\n        if (buyerOk && sellerOk){\r\n            payBalance();\r\n        } else if (buyerOk && !sellerOk && now > start + 30 days) {\r\n            // Freeze 30 days before release to buyer. The customer has to remember to call this method after freeze period.\r\n            selfdestruct(buyer);\r\n        }\r\n    }\r\n\r\n    function payBalance() private {\r\n        // we are sending ourselves (contract creator) a fee\r\n        escrow.transfer(this.balance / 100);\r\n        // send seller the balance\r\n        if (seller.send(this.balance)) {\r\n            balance = 0;\r\n        } else {\r\n            throw;\r\n        }\r\n    }\r\n\r\n    function deposit() public payable {\r\n        if (msg.sender == buyer) {\r\n            balance += msg.value;\r\n        }\r\n    }\r\n\r\n    function cancel() public {\r\n        if (msg.sender == buyer){\r\n            buyerOk = false;\r\n        } else if (msg.sender == seller){\r\n            sellerOk = false;\r\n        }\r\n        // if both buyer and seller would like to cancel, money is returned to buyer\r\n        if (!buyerOk && !sellerOk){\r\n            selfdestruct(buyer);\r\n        }\r\n    }\r\n\r\n    function kill() public constant {\r\n        if (msg.sender == escrow) {\r\n            selfdestruct(buyer);\r\n        }\r\n    }*/\r\n}",
  "sourcePath": "G:\\GitRepository\\udap\\uc3\\contracts\\Escrow.sol",
  "compiler": {
    "name": "solc",
    "version": "0.4.24+commit.e67f0147.Emscripten.clang"
  },
  "schemaVersion": "2.0.1",
  "updatedAt": "2018-08-31T02:02:32.361Z"
}