{
  "contractName": "FIFSRegistrar",
  "abi": [
    {
      "constant": true,
      "inputs": [],
      "name": "ens",
      "outputs": [
        {
          "name": "",
          "type": "address"
        }
      ],
      "payable": false,
      "stateMutability": "view",
      "type": "function"
    },
    {
      "constant": true,
      "inputs": [],
      "name": "defaultResolver",
      "outputs": [
        {
          "name": "",
          "type": "address"
        }
      ],
      "payable": false,
      "stateMutability": "view",
      "type": "function"
    },
    {
      "constant": true,
      "inputs": [],
      "name": "TLD_NODE",
      "outputs": [
        {
          "name": "",
          "type": "bytes32"
        }
      ],
      "payable": false,
      "stateMutability": "view",
      "type": "function"
    },
    {
      "constant": true,
      "inputs": [],
      "name": "rootNode",
      "outputs": [
        {
          "name": "",
          "type": "bytes32"
        }
      ],
      "payable": false,
      "stateMutability": "view",
      "type": "function"
    },
    {
      "inputs": [
        {
          "name": "_ensAddr",
          "type": "address"
        },
        {
          "name": "_name",
          "type": "string"
        },
        {
          "name": "_defaultResolver",
          "type": "address"
        }
      ],
      "payable": false,
      "stateMutability": "nonpayable",
      "type": "constructor"
    },
    {
      "anonymous": false,
      "inputs": [
        {
          "indexed": true,
          "name": "rootNode",
          "type": "bytes32"
        },
        {
          "indexed": false,
          "name": "subdomain",
          "type": "string"
        },
        {
          "indexed": true,
          "name": "owner",
          "type": "address"
        }
      ],
      "name": "NewRegistration",
      "type": "event"
    }
  ],
  "bytecode": "0x608060405234801561001057600080fd5b5060405161050b38038061050b83398101806040528101908080519060200190929190805182019291906020018051906020019092919050505060008073ffffffffffffffffffffffffffffffffffffffff168473ffffffffffffffffffffffffffffffffffffffff16141580156100b55750600073ffffffffffffffffffffffffffffffffffffffff168273ffffffffffffffffffffffffffffffffffffffff1614155b15156100c057600080fd5b836000806101000a81548173ffffffffffffffffffffffffffffffffffffffff021916908373ffffffffffffffffffffffffffffffffffffffff160217905550826040516020018082805190602001908083835b6020831015156101395780518252602082019150602081019050602083039250610114565b6001836020036101000a0380198251168184511680821785525050505050509050019150506040516020818303038152906040526040518082805190602001908083835b6020831015156101a2578051825260208201915060208101905060208303925061017d565b6001836020036101000a038019825116818451168082178552505050505050905001915050604051809103902090507f93cdeb708b7545dc668eb9280176169d1c33cfd8ed6f04690a0bcc88a93fc4ae600102816040516020018083600019166000191681526020018260001916600019168152602001925050506040516020818303038152906040526040518082805190602001908083835b602083101515610261578051825260208201915060208101905060208303925061023c565b6001836020036101000a03801982511681845116808217855250505050505090500191505060405180910390206001816000191690555081600260006101000a81548173ffffffffffffffffffffffffffffffffffffffff021916908373ffffffffffffffffffffffffffffffffffffffff1602179055505050505061021f806102ec6000396000f300608060405260043610610062576000357c0100000000000000000000000000000000000000000000000000000000900463ffffffff1680633f15457f14610067578063828eab0e146100be57806396df354014610115578063faff50a814610148575b600080fd5b34801561007357600080fd5b5061007c61017b565b604051808273ffffffffffffffffffffffffffffffffffffffff1673ffffffffffffffffffffffffffffffffffffffff16815260200191505060405180910390f35b3480156100ca57600080fd5b506100d36101a0565b604051808273ffffffffffffffffffffffffffffffffffffffff1673ffffffffffffffffffffffffffffffffffffffff16815260200191505060405180910390f35b34801561012157600080fd5b5061012a6101c6565b60405180826000191660001916815260200191505060405180910390f35b34801561015457600080fd5b5061015d6101ed565b60405180826000191660001916815260200191505060405180910390f35b6000809054906101000a900473ffffffffffffffffffffffffffffffffffffffff1681565b600260009054906101000a900473ffffffffffffffffffffffffffffffffffffffff1681565b7f93cdeb708b7545dc668eb9280176169d1c33cfd8ed6f04690a0bcc88a93fc4ae60010281565b600154815600a165627a7a72305820f9a47e679e77444487860db1a30e60b0d26881fe960144469e5733c19dab234b0029",
  "source": "pragma solidity ^0.4.24;\r\nimport './ENS.sol';\r\nimport './Resolver.sol';\r\n\r\ncontract FIFSRegistrar {\r\n\r\n    // namehash('eth')\r\n    bytes32 constant public TLD_NODE = 0x93cdeb708b7545dc668eb9280176169d1c33cfd8ed6f04690a0bcc88a93fc4ae;\r\n\r\n    event NewRegistration(bytes32 indexed rootNode, string subdomain, address indexed owner);\r\n\r\n    ENS public ens;\r\n\r\n    bytes32 public rootNode;\r\n\r\n    Resolver public defaultResolver;\r\n\r\n    constructor(ENS _ensAddr, string _name,Resolver _defaultResolver) public {\r\n        require(_ensAddr != address(0) && _defaultResolver != address(0));\r\n        ens = _ensAddr;\r\n        bytes32 label = keccak256(abi.encodePacked(_name));\r\n        rootNode = keccak256(abi.encodePacked(TLD_NODE, label));\r\n        defaultResolver = _defaultResolver;\r\n    }\r\n\r\n    function register(string _subdomain, address _owner) internal {\r\n        require(_owner != address(0));\r\n        bytes32 subdomainLabel = keccak256(abi.encodePacked(_subdomain));\r\n        require(ens.owner(keccak256(abi.encodePacked(rootNode, subdomainLabel))) == 0);\r\n//        ens.setSubnodeOwner(rootNode, subdomainLabel, _owner);\r\n        doRegistration(rootNode,subdomainLabel,_owner,defaultResolver);\r\n\r\n        emit NewRegistration(rootNode,_subdomain,_owner);\r\n    }\r\n\r\n    function doRegistration(bytes32 _node, bytes32 _label, address _subdomainOwner, Resolver _resolver) internal {\r\n        // Get the subdomain so we can configure it\r\n        ens.setSubnodeOwner(_node, _label, this);\r\n\r\n        bytes32 subnode = keccak256(abi.encodePacked(_node, _label));\r\n\r\n        // Set the subdomain's resolver\r\n        ens.setResolver(subnode, _resolver);\r\n\r\n        // Set the address record on the resolver\r\n        _resolver.setAddr(subnode, _subdomainOwner);\r\n\r\n        // Pass ownership of the new subdomain to the registrant\r\n        ens.setOwner(subnode, _subdomainOwner);\r\n    }\r\n}\r\n",
  "sourcePath": "G:\\GitRepository\\udap\\uc3\\contracts\\ens\\FIFSRegistrar.sol",
  "compiler": {
    "name": "solc",
    "version": "0.4.24+commit.e67f0147.Emscripten.clang"
  },
  "schemaVersion": "2.0.1",
  "updatedAt": "2018-10-25T03:55:24.897Z"
}