{
  "contractName": "FIFSRegistrar",
  "abi": [
    {
      "constant": true,
      "inputs": [],
      "name": "ens",
      "outputs": [
        {
          "name": "",
          "type": "address"
        }
      ],
      "payable": false,
      "stateMutability": "view",
      "type": "function"
    },
    {
      "constant": true,
      "inputs": [],
      "name": "defaultResolver",
      "outputs": [
        {
          "name": "",
          "type": "address"
        }
      ],
      "payable": false,
      "stateMutability": "view",
      "type": "function"
    },
    {
      "constant": true,
      "inputs": [],
      "name": "TLD_NODE",
      "outputs": [
        {
          "name": "",
          "type": "bytes32"
        }
      ],
      "payable": false,
      "stateMutability": "view",
      "type": "function"
    },
    {
      "inputs": [
        {
          "name": "_ensAddr",
          "type": "address"
        },
        {
          "name": "_defaultResolver",
          "type": "address"
        }
      ],
      "payable": false,
      "stateMutability": "nonpayable",
      "type": "constructor"
    },
    {
      "anonymous": false,
      "inputs": [
        {
          "indexed": true,
          "name": "rootNode",
          "type": "bytes32"
        },
        {
          "indexed": false,
          "name": "subdomain",
          "type": "string"
        },
        {
          "indexed": true,
          "name": "owner",
          "type": "address"
        }
      ],
      "name": "NewRegistration",
      "type": "event"
    }
  ],
  "bytecode": "0x608060405234801561001057600080fd5b5060405160408061031f8339810180604052810190808051906020019092919080519060200190929190505050600073ffffffffffffffffffffffffffffffffffffffff168273ffffffffffffffffffffffffffffffffffffffff16141580156100a75750600073ffffffffffffffffffffffffffffffffffffffff168173ffffffffffffffffffffffffffffffffffffffff1614155b15156100b257600080fd5b816000806101000a81548173ffffffffffffffffffffffffffffffffffffffff021916908373ffffffffffffffffffffffffffffffffffffffff16021790555080600160006101000a81548173ffffffffffffffffffffffffffffffffffffffff021916908373ffffffffffffffffffffffffffffffffffffffff16021790555050506101db806101446000396000f300608060405260043610610057576000357c0100000000000000000000000000000000000000000000000000000000900463ffffffff1680633f15457f1461005c578063828eab0e146100b357806396df35401461010a575b600080fd5b34801561006857600080fd5b5061007161013d565b604051808273ffffffffffffffffffffffffffffffffffffffff1673ffffffffffffffffffffffffffffffffffffffff16815260200191505060405180910390f35b3480156100bf57600080fd5b506100c8610162565b604051808273ffffffffffffffffffffffffffffffffffffffff1673ffffffffffffffffffffffffffffffffffffffff16815260200191505060405180910390f35b34801561011657600080fd5b5061011f610188565b60405180826000191660001916815260200191505060405180910390f35b6000809054906101000a900473ffffffffffffffffffffffffffffffffffffffff1681565b600160009054906101000a900473ffffffffffffffffffffffffffffffffffffffff1681565b7f93cdeb708b7545dc668eb9280176169d1c33cfd8ed6f04690a0bcc88a93fc4ae600102815600a165627a7a72305820d4a3e0dd94e21a365ff0ece575248d2420504b3d22a36b2a65fca1ebed44794d0029",
  "source": "pragma solidity ^0.4.24;\r\nimport './ENS.sol';\r\nimport './Resolver.sol';\r\n\r\ncontract FIFSRegistrar {\r\n\r\n    // namehash('eth')\r\n    bytes32 constant public TLD_NODE = 0x93cdeb708b7545dc668eb9280176169d1c33cfd8ed6f04690a0bcc88a93fc4ae;\r\n\r\n    event NewRegistration(bytes32 indexed rootNode, string subdomain, address indexed owner);\r\n\r\n    ENS public ens;\r\n\r\n    Resolver public defaultResolver;\r\n\r\n    constructor(ENS _ensAddr,Resolver _defaultResolver) public {\r\n        require(_ensAddr != address(0) && _defaultResolver != address(0));\r\n        ens = _ensAddr;\r\n        defaultResolver = _defaultResolver;\r\n    }\r\n\r\n    function register(bytes32 _label,string _subdomain, address _owner) internal {\r\n        require(_owner != address(0));\r\n        bytes32 domainNode = keccak256(abi.encodePacked(TLD_NODE, _label));\r\n        bytes32 subdomainLabel = keccak256(abi.encodePacked(_subdomain));\r\n        require(ens.owner(keccak256(abi.encodePacked(domainNode, subdomainLabel))) == 0);\r\n        doRegistration(domainNode,subdomainLabel,_owner,defaultResolver);\r\n\r\n        emit NewRegistration(_label,_subdomain,_owner);\r\n    }\r\n\r\n    function doRegistration(bytes32 _node, bytes32 _label, address _subdomainOwner, Resolver _resolver) internal {\r\n        // Get the subdomain so we can configure it\r\n        ens.setSubnodeOwner(_node, _label, this);\r\n\r\n        bytes32 subnode = keccak256(abi.encodePacked(_node, _label));\r\n\r\n        // Set the subdomain's resolver\r\n        ens.setResolver(subnode, _resolver);\r\n\r\n        // Set the address record on the resolver\r\n        _resolver.setAddr(subnode, _subdomainOwner);\r\n\r\n        // Pass ownership of the new subdomain to the registrant\r\n        ens.setOwner(subnode, _subdomainOwner);\r\n    }\r\n}\r\n",
  "sourcePath": "G:\\GitRepository\\udap\\uc3\\contracts\\ens\\FIFSRegistrar.sol",
  "compiler": {
    "name": "solc",
    "version": "0.4.24+commit.e67f0147.Emscripten.clang"
  },
  "schemaVersion": "2.0.1",
  "updatedAt": "2018-10-30T06:55:44.794Z"
}