{
  "contractName": "FungibleAsset",
  "abi": [
    {
      "constant": true,
      "inputs": [],
      "name": "getState",
      "outputs": [
        {
          "name": "",
          "type": "uint8"
        }
      ],
      "payable": false,
      "stateMutability": "view",
      "type": "function"
    },
    {
      "constant": false,
      "inputs": [
        {
          "name": "_to",
          "type": "address"
        }
      ],
      "name": "transfer",
      "outputs": [],
      "payable": false,
      "stateMutability": "nonpayable",
      "type": "function"
    },
    {
      "constant": true,
      "inputs": [],
      "name": "getIssuer",
      "outputs": [
        {
          "name": "",
          "type": "address"
        }
      ],
      "payable": false,
      "stateMutability": "view",
      "type": "function"
    },
    {
      "constant": false,
      "inputs": [
        {
          "name": "_state",
          "type": "uint8"
        }
      ],
      "name": "setState",
      "outputs": [],
      "payable": false,
      "stateMutability": "nonpayable",
      "type": "function"
    },
    {
      "constant": true,
      "inputs": [],
      "name": "getId",
      "outputs": [
        {
          "name": "",
          "type": "uint256"
        }
      ],
      "payable": false,
      "stateMutability": "view",
      "type": "function"
    },
    {
      "constant": false,
      "inputs": [],
      "name": "destroy",
      "outputs": [],
      "payable": false,
      "stateMutability": "nonpayable",
      "type": "function"
    },
    {
      "constant": true,
      "inputs": [],
      "name": "getOwner",
      "outputs": [
        {
          "name": "",
          "type": "address"
        }
      ],
      "payable": false,
      "stateMutability": "view",
      "type": "function"
    },
    {
      "constant": true,
      "inputs": [],
      "name": "state",
      "outputs": [
        {
          "name": "",
          "type": "uint8"
        }
      ],
      "payable": false,
      "stateMutability": "view",
      "type": "function"
    },
    {
      "inputs": [
        {
          "name": "_issuer",
          "type": "address"
        },
        {
          "name": "_owner",
          "type": "address"
        },
        {
          "name": "_id",
          "type": "uint256"
        },
        {
          "name": "_nsi",
          "type": "bytes32"
        },
        {
          "name": "_transferrable",
          "type": "bool"
        },
        {
          "name": "data",
          "type": "string"
        },
        {
          "name": "_mdHash",
          "type": "bytes32"
        },
        {
          "name": "_amount",
          "type": "uint256"
        }
      ],
      "payable": false,
      "stateMutability": "nonpayable",
      "type": "constructor"
    },
    {
      "anonymous": false,
      "inputs": [
        {
          "indexed": true,
          "name": "_asset",
          "type": "address"
        },
        {
          "indexed": true,
          "name": "_id",
          "type": "uint256"
        }
      ],
      "name": "AssetCreated",
      "type": "event"
    },
    {
      "anonymous": false,
      "inputs": [
        {
          "indexed": true,
          "name": "_to",
          "type": "address"
        },
        {
          "indexed": true,
          "name": "_id",
          "type": "uint256"
        }
      ],
      "name": "AssetTransferred",
      "type": "event"
    },
    {
      "anonymous": false,
      "inputs": [
        {
          "indexed": true,
          "name": "_assetId",
          "type": "uint256"
        }
      ],
      "name": "AssetDestroyed",
      "type": "event"
    },
    {
      "constant": true,
      "inputs": [],
      "name": "getMetaData",
      "outputs": [
        {
          "name": "",
          "type": "bytes32"
        },
        {
          "name": "",
          "type": "address"
        },
        {
          "name": "",
          "type": "bool"
        },
        {
          "name": "",
          "type": "bool"
        },
        {
          "name": "",
          "type": "string"
        },
        {
          "name": "",
          "type": "bytes32"
        }
      ],
      "payable": false,
      "stateMutability": "view",
      "type": "function"
    },
    {
      "constant": true,
      "inputs": [],
      "name": "getNamespace",
      "outputs": [
        {
          "name": "",
          "type": "bytes32"
        }
      ],
      "payable": false,
      "stateMutability": "view",
      "type": "function"
    },
    {
      "constant": true,
      "inputs": [],
      "name": "mdMultiHash",
      "outputs": [
        {
          "name": "",
          "type": "bytes32"
        }
      ],
      "payable": false,
      "stateMutability": "view",
      "type": "function"
    },
    {
      "constant": true,
      "inputs": [],
      "name": "getAmount",
      "outputs": [
        {
          "name": "",
          "type": "uint256"
        }
      ],
      "payable": false,
      "stateMutability": "view",
      "type": "function"
    }
  ],
  "bytecode": "0x6060604052341561000f57600080fd5b604051610c37380380610c3783398101604052808051906020019091908051906020019091908051906020019091908051906020019091908051906020019091908051820191906020018051906020019091908051906020019091905050858888600073ffffffffffffffffffffffffffffffffffffffff168273ffffffffffffffffffffffffffffffffffffffff16141580156100da5750600073ffffffffffffffffffffffffffffffffffffffff168173ffffffffffffffffffffffffffffffffffffffff1614155b15156100e557600080fd5b8260008190555081600160006101000a81548173ffffffffffffffffffffffffffffffffffffffff021916908373ffffffffffffffffffffffffffffffffffffffff16021790555080600260006101000a81548173ffffffffffffffffffffffffffffffffffffffff021916908373ffffffffffffffffffffffffffffffffffffffff1602179055506000543073ffffffffffffffffffffffffffffffffffffffff167f20df459a0f7f1bc64a42346a9e6536111a3512be01de7a0f5327a4e13b33703860405160405180910390a350505060c060405190810160405280866000191681526020018973ffffffffffffffffffffffffffffffffffffffff1681526020018515158152602001600115158152602001848152602001836000191681525060036000820151816000019060001916905560208201518160010160006101000a81548173ffffffffffffffffffffffffffffffffffffffff021916908373ffffffffffffffffffffffffffffffffffffffff16021790555060408201518160010160146101000a81548160ff02191690831515021790555060608201518160010160156101000a81548160ff02191690831515021790555060808201518160020190805190602001906102bd9291906102e5565b5060a0820151816003019060001916905590505080600781905550505050505050505061038a565b828054600181600116156101000203166002900490600052602060002090601f016020900481019282601f1061032657805160ff1916838001178555610354565b82800160010185558215610354579182015b82811115610353578251825591602001919060010190610338565b5b5090506103619190610365565b5090565b61038791905b8082111561038357600081600090555060010161036b565b5090565b90565b61089e806103996000396000f3006060604052600436106100ba576000357c0100000000000000000000000000000000000000000000000000000000900463ffffffff1680631865c57d146100bf5780631a695230146100f657806327ac4b701461012f578063525564211461016057806356de96db146101b55780635d1ca631146101db57806383197ef014610204578063893d20e814610219578063bf5a29e51461026e578063c19d93fb1461029f578063d2786ba4146102d6578063d321fe29146103cb575b600080fd5b34156100ca57600080fd5b6100d26103f4565b604051808260028111156100e257fe5b60ff16815260200191505060405180910390f35b341561010157600080fd5b61012d600480803573ffffffffffffffffffffffffffffffffffffffff1690602001909190505061040b565b005b341561013a57600080fd5b61014261052d565b60405180826000191660001916815260200191505060405180910390f35b341561016b57600080fd5b61017361053a565b604051808273ffffffffffffffffffffffffffffffffffffffff1673ffffffffffffffffffffffffffffffffffffffff16815260200191505060405180910390f35b34156101c057600080fd5b6101d9600480803560ff16906020019091905050610564565b005b34156101e657600080fd5b6101ee61061a565b6040518082815260200191505060405180910390f35b341561020f57600080fd5b610217610623565b005b341561022457600080fd5b61022c6106ef565b604051808273ffffffffffffffffffffffffffffffffffffffff1673ffffffffffffffffffffffffffffffffffffffff16815260200191505060405180910390f35b341561027957600080fd5b610281610719565b60405180826000191660001916815260200191505060405180910390f35b34156102aa57600080fd5b6102b2610725565b604051808260028111156102c257fe5b60ff16815260200191505060405180910390f35b34156102e157600080fd5b6102e9610738565b6040518087600019166000191681526020018673ffffffffffffffffffffffffffffffffffffffff1673ffffffffffffffffffffffffffffffffffffffff1681526020018515151515815260200184151515158152602001806020018360001916600019168152602001828103825284818151815260200191508051906020019080838360005b8381101561038b578082015181840152602081019050610370565b50505050905090810190601f1680156103b85780820380516001836020036101000a031916815260200191505b5097505050505050505060405180910390f35b34156103d657600080fd5b6103de610854565b6040518082815260200191505060405180910390f35b6000600260149054906101000a900460ff16905090565b600260009054906101000a900473ffffffffffffffffffffffffffffffffffffffff1673ffffffffffffffffffffffffffffffffffffffff163373ffffffffffffffffffffffffffffffffffffffff1614151561046757600080fd5b600073ffffffffffffffffffffffffffffffffffffffff168173ffffffffffffffffffffffffffffffffffffffff16141515156104a357600080fd5b80600260006101000a81548173ffffffffffffffffffffffffffffffffffffffff021916908373ffffffffffffffffffffffffffffffffffffffff1602179055506000548173ffffffffffffffffffffffffffffffffffffffff167fff67663330fcde57965a89e0eed2698c4f260f4f4dfa83e4d8a1c1db935fa23560405160405180910390a350565b6000600360000154905090565b6000600160009054906101000a900473ffffffffffffffffffffffffffffffffffffffff16905090565b600260009054906101000a900473ffffffffffffffffffffffffffffffffffffffff1673ffffffffffffffffffffffffffffffffffffffff163373ffffffffffffffffffffffffffffffffffffffff161415156105c057600080fd5b600060028111156105cd57fe5b600260149054906101000a900460ff1660028111156105e857fe5b1415156105f457600080fd5b80600260146101000a81548160ff0219169083600281111561061257fe5b021790555050565b60008054905090565b600260009054906101000a900473ffffffffffffffffffffffffffffffffffffffff1673ffffffffffffffffffffffffffffffffffffffff163373ffffffffffffffffffffffffffffffffffffffff1614151561067f57600080fd5b6001600281111561068c57fe5b600260149054906101000a900460ff1660028111156106a757fe5b141515156106b457600080fd5b600260009054906101000a900473ffffffffffffffffffffffffffffffffffffffff1673ffffffffffffffffffffffffffffffffffffffff16ff5b6000600260009054906101000a900473ffffffffffffffffffffffffffffffffffffffff16905090565b60006003800154905090565b600260149054906101000a900460ff1681565b60008060008061074661085e565b6000600360000154600360010160009054906101000a900473ffffffffffffffffffffffffffffffffffffffff16600360010160149054906101000a900460ff16600360010160159054906101000a900460ff1660036002016003800154818054600181600116156101000203166002900480601f0160208091040260200160405190810160405280929190818152602001828054600181600116156101000203166002900480156108395780601f1061080e57610100808354040283529160200191610839565b820191906000526020600020905b81548152906001019060200180831161081c57829003601f168201915b50505050509150955095509550955095509550909192939495565b6000600754905090565b6020604051908101604052806000815250905600a165627a7a72305820a8362eff94884d099bf690e1a6c162512c9974463bf4790498aa78d9737b912c0029",
  "source": "pragma solidity ^0.4.19;\r\n\r\nimport './Commons.sol';\r\nimport './AbstractAsset.sol';\r\n\r\ncontract FungibleAsset is AbstractAsset {\r\n  using Commons for Commons.MetaData;\r\n\r\n  // asset metadata\r\n  Commons.MetaData private md;\r\n  uint private amount;\r\n\r\n  function FungibleAsset(address _issuer,address _owner, uint _id, bytes32 _nsi, bool _transferrable,string data,bytes32 _mdHash, uint _amount)\r\n    public AbstractAsset(_id, _issuer, _owner) {\r\n      md = Commons.MetaData({\r\n          nsi:_nsi,\r\n          issuer:_issuer,\r\n          transferrable:_transferrable,\r\n          fungible:true,\r\n          data:data,\r\n          dataRef:_mdHash\r\n      });\r\n      amount = _amount;\r\n  }\r\n\r\n  function getMetaData() public view returns (bytes32,address,bool,bool,string,bytes32) {\r\n    return (md.nsi, md.issuer, md.transferrable, md.fungible,md.data,md.dataRef);\r\n  }\r\n\r\n  function getNamespace() public view returns (bytes32) {\r\n    return md.nsi;\r\n  }\r\n\r\n  function mdMultiHash() public view returns (bytes32) {\r\n    return md.dataRef;\r\n  }\r\n\r\n  function getAmount() public view returns (uint) {\r\n    return amount;\r\n  }\r\n}\r\n",
  "sourcePath": "G:\\GitRepository\\udap\\uc3\\contracts\\FungibleAsset.sol",
  "compiler": {
    "name": "solc",
    "version": "0.4.19+commit.c4cbbb05.Emscripten.clang"
  },
  "schemaVersion": "2.0.0",
  "updatedAt": "2018-05-09T02:56:19.952Z"
}