{
  "contractName": "HarvestRegistrar",
  "abi": [
    {
      "constant": true,
      "inputs": [],
      "name": "ens",
      "outputs": [
        {
          "name": "",
          "type": "address"
        }
      ],
      "payable": false,
      "stateMutability": "view",
      "type": "function"
    },
    {
      "constant": false,
      "inputs": [],
      "name": "renounceOwnership",
      "outputs": [],
      "payable": false,
      "stateMutability": "nonpayable",
      "type": "function"
    },
    {
      "constant": true,
      "inputs": [
        {
          "name": "",
          "type": "address"
        }
      ],
      "name": "nonces",
      "outputs": [
        {
          "name": "",
          "type": "uint256"
        }
      ],
      "payable": false,
      "stateMutability": "view",
      "type": "function"
    },
    {
      "constant": true,
      "inputs": [],
      "name": "defaultResolver",
      "outputs": [
        {
          "name": "",
          "type": "address"
        }
      ],
      "payable": false,
      "stateMutability": "view",
      "type": "function"
    },
    {
      "constant": true,
      "inputs": [],
      "name": "owner",
      "outputs": [
        {
          "name": "",
          "type": "address"
        }
      ],
      "payable": false,
      "stateMutability": "view",
      "type": "function"
    },
    {
      "constant": true,
      "inputs": [],
      "name": "TLD_NODE",
      "outputs": [
        {
          "name": "",
          "type": "bytes32"
        }
      ],
      "payable": false,
      "stateMutability": "view",
      "type": "function"
    },
    {
      "constant": true,
      "inputs": [],
      "name": "fees",
      "outputs": [
        {
          "name": "token",
          "type": "address"
        },
        {
          "name": "amount",
          "type": "uint256"
        }
      ],
      "payable": false,
      "stateMutability": "view",
      "type": "function"
    },
    {
      "constant": true,
      "inputs": [
        {
          "name": "",
          "type": "address"
        }
      ],
      "name": "ownedTokens",
      "outputs": [
        {
          "name": "",
          "type": "uint256"
        }
      ],
      "payable": false,
      "stateMutability": "view",
      "type": "function"
    },
    {
      "constant": false,
      "inputs": [
        {
          "name": "_newOwner",
          "type": "address"
        }
      ],
      "name": "transferOwnership",
      "outputs": [],
      "payable": false,
      "stateMutability": "nonpayable",
      "type": "function"
    },
    {
      "inputs": [
        {
          "name": "_ens",
          "type": "address"
        },
        {
          "name": "_defaultResolver",
          "type": "address"
        }
      ],
      "payable": false,
      "stateMutability": "nonpayable",
      "type": "constructor"
    },
    {
      "payable": true,
      "stateMutability": "payable",
      "type": "fallback"
    },
    {
      "anonymous": false,
      "inputs": [
        {
          "indexed": false,
          "name": "_label",
          "type": "bytes32"
        },
        {
          "indexed": true,
          "name": "_subdomain",
          "type": "string"
        },
        {
          "indexed": true,
          "name": "_oldOwner",
          "type": "address"
        },
        {
          "indexed": true,
          "name": "_newOwner",
          "type": "address"
        }
      ],
      "name": "OwnerChanged",
      "type": "event"
    },
    {
      "anonymous": false,
      "inputs": [
        {
          "indexed": true,
          "name": "previousOwner",
          "type": "address"
        }
      ],
      "name": "OwnershipRenounced",
      "type": "event"
    },
    {
      "anonymous": false,
      "inputs": [
        {
          "indexed": true,
          "name": "previousOwner",
          "type": "address"
        },
        {
          "indexed": true,
          "name": "newOwner",
          "type": "address"
        }
      ],
      "name": "OwnershipTransferred",
      "type": "event"
    },
    {
      "anonymous": false,
      "inputs": [
        {
          "indexed": true,
          "name": "rootNode",
          "type": "bytes32"
        },
        {
          "indexed": false,
          "name": "subdomain",
          "type": "string"
        },
        {
          "indexed": true,
          "name": "owner",
          "type": "address"
        }
      ],
      "name": "NewRegistration",
      "type": "event"
    },
    {
      "constant": false,
      "inputs": [
        {
          "name": "_node",
          "type": "bytes32"
        },
        {
          "name": "_owner",
          "type": "address"
        }
      ],
      "name": "setOwner",
      "outputs": [],
      "payable": false,
      "stateMutability": "nonpayable",
      "type": "function"
    },
    {
      "constant": false,
      "inputs": [
        {
          "name": "_node",
          "type": "bytes32"
        },
        {
          "name": "_label",
          "type": "bytes32"
        },
        {
          "name": "_owner",
          "type": "address"
        }
      ],
      "name": "setSubnodeOwner",
      "outputs": [],
      "payable": false,
      "stateMutability": "nonpayable",
      "type": "function"
    },
    {
      "constant": false,
      "inputs": [
        {
          "name": "_node",
          "type": "bytes32"
        },
        {
          "name": "_resolver",
          "type": "address"
        }
      ],
      "name": "setResolver",
      "outputs": [],
      "payable": false,
      "stateMutability": "nonpayable",
      "type": "function"
    },
    {
      "constant": false,
      "inputs": [
        {
          "name": "_node",
          "type": "bytes32"
        },
        {
          "name": "_ttl",
          "type": "uint64"
        }
      ],
      "name": "setTTL",
      "outputs": [],
      "payable": false,
      "stateMutability": "nonpayable",
      "type": "function"
    },
    {
      "constant": false,
      "inputs": [
        {
          "name": "_caller",
          "type": "address"
        },
        {
          "name": "_label",
          "type": "bytes32"
        },
        {
          "name": "_subdomain",
          "type": "string"
        },
        {
          "name": "_newOwner",
          "type": "address"
        },
        {
          "name": "_sig",
          "type": "bytes"
        }
      ],
      "name": "transfer",
      "outputs": [],
      "payable": false,
      "stateMutability": "nonpayable",
      "type": "function"
    },
    {
      "constant": true,
      "inputs": [
        {
          "name": "_label",
          "type": "bytes32"
        },
        {
          "name": "_subdomain",
          "type": "string"
        }
      ],
      "name": "query",
      "outputs": [
        {
          "name": "",
          "type": "address"
        }
      ],
      "payable": false,
      "stateMutability": "view",
      "type": "function"
    },
    {
      "constant": false,
      "inputs": [
        {
          "name": "_token",
          "type": "address"
        },
        {
          "name": "_amount",
          "type": "uint256"
        }
      ],
      "name": "setFees",
      "outputs": [],
      "payable": false,
      "stateMutability": "nonpayable",
      "type": "function"
    },
    {
      "constant": false,
      "inputs": [
        {
          "name": "_label",
          "type": "bytes32"
        },
        {
          "name": "_subdomain",
          "type": "string"
        },
        {
          "name": "_owner",
          "type": "address"
        },
        {
          "name": "_sig",
          "type": "bytes"
        }
      ],
      "name": "register",
      "outputs": [],
      "payable": false,
      "stateMutability": "nonpayable",
      "type": "function"
    },
    {
      "constant": false,
      "inputs": [
        {
          "name": "_amount",
          "type": "uint256"
        }
      ],
      "name": "withdraw",
      "outputs": [],
      "payable": false,
      "stateMutability": "nonpayable",
      "type": "function"
    }
  ],
  "bytecode": "0x608060405234801561001057600080fd5b5060405160408061305983398101806040528101908080519060200190929190805190602001909291905050508181600073ffffffffffffffffffffffffffffffffffffffff168273ffffffffffffffffffffffffffffffffffffffff16141580156100a95750600073ffffffffffffffffffffffffffffffffffffffff168173ffffffffffffffffffffffffffffffffffffffff1614155b15156100b457600080fd5b816000806101000a81548173ffffffffffffffffffffffffffffffffffffffff021916908373ffffffffffffffffffffffffffffffffffffffff16021790555080600160006101000a81548173ffffffffffffffffffffffffffffffffffffffff021916908373ffffffffffffffffffffffffffffffffffffffff160217905550505033600260006101000a81548173ffffffffffffffffffffffffffffffffffffffff021916908373ffffffffffffffffffffffffffffffffffffffff1602179055505050612ed0806101896000396000f3006080604052600436106100fc576000357c0100000000000000000000000000000000000000000000000000000000900463ffffffff16806306ab592314610101578063087dc7c61461016057806314ab90381461025d5780631896f70a146102a25780632e1a7d4d146102f35780632eef3d65146103205780633c564dec146103d75780633f15457f146104585780635b0fc9c3146104af5780635e5c6ada14610500578063715018a61461054d5780637ecebe0014610564578063828eab0e146105bb5780638da5cb5b1461061257806396df3540146106695780639af1d35a1461069c578063b12ab40f146106fa578063f2fde38b14610751575b600080fd5b34801561010d57600080fd5b5061015e60048036038101908080356000191690602001909291908035600019169060200190929190803573ffffffffffffffffffffffffffffffffffffffff169060200190929190505050610794565b005b34801561016c57600080fd5b5061025b600480360381019080803573ffffffffffffffffffffffffffffffffffffffff1690602001909291908035600019169060200190929190803590602001908201803590602001908080601f0160208091040260200160405190810160405280939291908181526020018383808284378201915050505050509192919290803573ffffffffffffffffffffffffffffffffffffffff169060200190929190803590602001908201803590602001908080601f01602080910402602001604051908101604052809392919081815260200183838082843782019150505050505091929192905050506108e9565b005b34801561026957600080fd5b506102a06004803603810190808035600019169060200190929190803567ffffffffffffffff169060200190929190505050611333565b005b3480156102ae57600080fd5b506102f16004803603810190808035600019169060200190929190803573ffffffffffffffffffffffffffffffffffffffff16906020019092919050505061145f565b005b3480156102ff57600080fd5b5061031e600480360381019080803590602001909291905050506115a3565b005b34801561032c57600080fd5b506103956004803603810190808035600019169060200190929190803590602001908201803590602001908080601f0160208091040260200160405190810160405280939291908181526020018383808284378201915050505050509192919290505050611762565b604051808273ffffffffffffffffffffffffffffffffffffffff1673ffffffffffffffffffffffffffffffffffffffff16815260200191505060405180910390f35b3480156103e357600080fd5b506104566004803603810190808035600019169060200190929190803590602001908201803590602001919091929391929390803573ffffffffffffffffffffffffffffffffffffffff169060200190929190803590602001908201803590602001919091929391929390505050611a6d565b005b34801561046457600080fd5b5061046d611f36565b604051808273ffffffffffffffffffffffffffffffffffffffff1673ffffffffffffffffffffffffffffffffffffffff16815260200191505060405180910390f35b3480156104bb57600080fd5b506104fe6004803603810190808035600019169060200190929190803573ffffffffffffffffffffffffffffffffffffffff169060200190929190505050611f5b565b005b34801561050c57600080fd5b5061054b600480360381019080803573ffffffffffffffffffffffffffffffffffffffff1690602001909291908035906020019092919050505061209f565b005b34801561055957600080fd5b506105626121c9565b005b34801561057057600080fd5b506105a5600480360381019080803573ffffffffffffffffffffffffffffffffffffffff1690602001909291905050506122ce565b6040518082815260200191505060405180910390f35b3480156105c757600080fd5b506105d06122e6565b604051808273ffffffffffffffffffffffffffffffffffffffff1673ffffffffffffffffffffffffffffffffffffffff16815260200191505060405180910390f35b34801561061e57600080fd5b5061062761230c565b604051808273ffffffffffffffffffffffffffffffffffffffff1673ffffffffffffffffffffffffffffffffffffffff16815260200191505060405180910390f35b34801561067557600080fd5b5061067e612332565b60405180826000191660001916815260200191505060405180910390f35b3480156106a857600080fd5b506106b1612359565b604051808373ffffffffffffffffffffffffffffffffffffffff1673ffffffffffffffffffffffffffffffffffffffff1681526020018281526020019250505060405180910390f35b34801561070657600080fd5b5061073b600480360381019080803573ffffffffffffffffffffffffffffffffffffffff16906020019092919050505061238b565b6040518082815260200191505060405180910390f35b34801561075d57600080fd5b50610792600480360381019080803573ffffffffffffffffffffffffffffffffffffffff1690602001909291905050506123a3565b005b600260009054906101000a900473ffffffffffffffffffffffffffffffffffffffff1673ffffffffffffffffffffffffffffffffffffffff163373ffffffffffffffffffffffffffffffffffffffff161415156107f057600080fd5b6000809054906101000a900473ffffffffffffffffffffffffffffffffffffffff1673ffffffffffffffffffffffffffffffffffffffff166306ab59238484846040518463ffffffff167c010000000000000000000000000000000000000000000000000000000002815260040180846000191660001916815260200183600019166000191681526020018273ffffffffffffffffffffffffffffffffffffffff1673ffffffffffffffffffffffffffffffffffffffff1681526020019350505050600060405180830381600087803b1580156108cc57600080fd5b505af11580156108e0573d6000803e3d6000fd5b50505050505050565b600080600080600030600660008c73ffffffffffffffffffffffffffffffffffffffff1673ffffffffffffffffffffffffffffffffffffffff168152602001908152602001600020548a8a8a604051602001808673ffffffffffffffffffffffffffffffffffffffff1673ffffffffffffffffffffffffffffffffffffffff166c01000000000000000000000000028152601401858152602001846000191660001916815260200183805190602001908083835b6020831015156109c2578051825260208201915060208101905060208303925061099d565b6001836020036101000a0380198251168184511680821785525050505050509050018273ffffffffffffffffffffffffffffffffffffffff1673ffffffffffffffffffffffffffffffffffffffff166c01000000000000000000000000028152601401955050505050506040516020818303038152906040526040518082805190602001908083835b602083101515610a705780518252602082019150602081019050602083039250610a4b565b6001836020036101000a038019825116818451168082178552505050505050905001915050604051809103902094508973ffffffffffffffffffffffffffffffffffffffff16610acd87876000191661240b90919063ffffffff16565b73ffffffffffffffffffffffffffffffffffffffff16141515610aef57600080fd5b600073ffffffffffffffffffffffffffffffffffffffff168773ffffffffffffffffffffffffffffffffffffffff1614151515610b2b57600080fd5b7f93cdeb708b7545dc668eb9280176169d1c33cfd8ed6f04690a0bcc88a93fc4ae600102896040516020018083600019166000191681526020018260001916600019168152602001925050506040516020818303038152906040526040518082805190602001908083835b602083101515610bbb5780518252602082019150602081019050602083039250610b96565b6001836020036101000a03801982511681845116808217855250505050505090500191505060405180910390209350876040516020018082805190602001908083835b602083101515610c235780518252602082019150602081019050602083039250610bfe565b6001836020036101000a0380198251168184511680821785525050505050509050019150506040516020818303038152906040526040518082805190602001908083835b602083101515610c8c5780518252602082019150602081019050602083039250610c67565b6001836020036101000a038019825116818451168082178552505050505050905001915050604051809103902092506000809054906101000a900473ffffffffffffffffffffffffffffffffffffffff1673ffffffffffffffffffffffffffffffffffffffff166302571be385856040516020018083600019166000191681526020018260001916600019168152602001925050506040516020818303038152906040526040518082805190602001908083835b602083101515610d655780518252602082019150602081019050602083039250610d40565b6001836020036101000a03801982511681845116808217855250505050505090500191505060405180910390206040518263ffffffff167c0100000000000000000000000000000000000000000000000000000000028152600401808260001916600019168152602001915050602060405180830381600087803b158015610dec57600080fd5b505af1158015610e00573d6000803e3d6000fd5b505050506040513d6020811015610e1657600080fd5b810190808051906020019092919050505091508973ffffffffffffffffffffffffffffffffffffffff168273ffffffffffffffffffffffffffffffffffffffff16141515610e6357600080fd5b6003600101549050600081111561105c5780600560008c73ffffffffffffffffffffffffffffffffffffffff1673ffffffffffffffffffffffffffffffffffffffff1681526020019081526020016000205410151515610ec257600080fd5b610f1481600560008d73ffffffffffffffffffffffffffffffffffffffff1673ffffffffffffffffffffffffffffffffffffffff1681526020019081526020016000205461250390919063ffffffff16565b600560008c73ffffffffffffffffffffffffffffffffffffffff1673ffffffffffffffffffffffffffffffffffffffff16815260200190815260200160002081905550600360000160009054906101000a900473ffffffffffffffffffffffffffffffffffffffff1673ffffffffffffffffffffffffffffffffffffffff1663a9059cbb33836040518363ffffffff167c0100000000000000000000000000000000000000000000000000000000028152600401808373ffffffffffffffffffffffffffffffffffffffff1673ffffffffffffffffffffffffffffffffffffffff16815260200182815260200192505050602060405180830381600087803b15801561101f57600080fd5b505af1158015611033573d6000803e3d6000fd5b505050506040513d602081101561104957600080fd5b8101908080519060200190929190505050505b3073ffffffffffffffffffffffffffffffffffffffff166000809054906101000a900473ffffffffffffffffffffffffffffffffffffffff1673ffffffffffffffffffffffffffffffffffffffff166302571be3866040518263ffffffff167c0100000000000000000000000000000000000000000000000000000000028152600401808260001916600019168152602001915050602060405180830381600087803b15801561110b57600080fd5b505af115801561111f573d6000803e3d6000fd5b505050506040513d602081101561113557600080fd5b810190808051906020019092919050505073ffffffffffffffffffffffffffffffffffffffff161415611327576000809054906101000a900473ffffffffffffffffffffffffffffffffffffffff1673ffffffffffffffffffffffffffffffffffffffff166306ab592385858a6040518463ffffffff167c010000000000000000000000000000000000000000000000000000000002815260040180846000191660001916815260200183600019166000191681526020018273ffffffffffffffffffffffffffffffffffffffff1673ffffffffffffffffffffffffffffffffffffffff1681526020019350505050600060405180830381600087803b15801561123e57600080fd5b505af1158015611252573d6000803e3d6000fd5b505050508673ffffffffffffffffffffffffffffffffffffffff168273ffffffffffffffffffffffffffffffffffffffff16896040518082805190602001908083835b6020831015156112ba5780518252602082019150602081019050602083039250611295565b6001836020036101000a03801982511681845116808217855250505050505090500191505060405180910390207f4e9ed72bb6db64e55295e505c9dba48d0bd7b5497333582a63b58747f8d5d40f8c60405180826000191660001916815260200191505060405180910390a45b50505050505050505050565b600260009054906101000a900473ffffffffffffffffffffffffffffffffffffffff1673ffffffffffffffffffffffffffffffffffffffff163373ffffffffffffffffffffffffffffffffffffffff1614151561138f57600080fd5b6000809054906101000a900473ffffffffffffffffffffffffffffffffffffffff1673ffffffffffffffffffffffffffffffffffffffff166314ab903883836040518363ffffffff167c01000000000000000000000000000000000000000000000000000000000281526004018083600019166000191681526020018267ffffffffffffffff1667ffffffffffffffff16815260200192505050600060405180830381600087803b15801561144357600080fd5b505af1158015611457573d6000803e3d6000fd5b505050505050565b600260009054906101000a900473ffffffffffffffffffffffffffffffffffffffff1673ffffffffffffffffffffffffffffffffffffffff163373ffffffffffffffffffffffffffffffffffffffff161415156114bb57600080fd5b6000809054906101000a900473ffffffffffffffffffffffffffffffffffffffff1673ffffffffffffffffffffffffffffffffffffffff16631896f70a83836040518363ffffffff167c01000000000000000000000000000000000000000000000000000000000281526004018083600019166000191681526020018273ffffffffffffffffffffffffffffffffffffffff1673ffffffffffffffffffffffffffffffffffffffff16815260200192505050600060405180830381600087803b15801561158757600080fd5b505af115801561159b573d6000803e3d6000fd5b505050505050565b600080821115156115b357600080fd5b600560003373ffffffffffffffffffffffffffffffffffffffff1673ffffffffffffffffffffffffffffffffffffffff16815260200190815260200160002054905081811015151561160457600080fd5b611617828261250390919063ffffffff16565b600560003373ffffffffffffffffffffffffffffffffffffffff1673ffffffffffffffffffffffffffffffffffffffff16815260200190815260200160002081905550600360000160009054906101000a900473ffffffffffffffffffffffffffffffffffffffff1673ffffffffffffffffffffffffffffffffffffffff1663a9059cbb33846040518363ffffffff167c0100000000000000000000000000000000000000000000000000000000028152600401808373ffffffffffffffffffffffffffffffffffffffff1673ffffffffffffffffffffffffffffffffffffffff16815260200182815260200192505050602060405180830381600087803b15801561172257600080fd5b505af1158015611736573d6000803e3d6000fd5b505050506040513d602081101561174c57600080fd5b8101908080519060200190929190505050505050565b60008060007f93cdeb708b7545dc668eb9280176169d1c33cfd8ed6f04690a0bcc88a93fc4ae600102856040516020018083600019166000191681526020018260001916600019168152602001925050506040516020818303038152906040526040518082805190602001908083835b6020831015156117f757805182526020820191506020810190506020830392506117d2565b6001836020036101000a0380198251168184511680821785525050505050509050019150506040518091039020915081846040516020018082805190602001908083835b602083101515611860578051825260208201915060208101905060208303925061183b565b6001836020036101000a0380198251168184511680821785525050505050509050019150506040516020818303038152906040526040518082805190602001908083835b6020831015156118c957805182526020820191506020810190506020830392506118a4565b6001836020036101000a03801982511681845116808217855250505050505090500191505060405180910390206040516020018083600019166000191681526020018260001916600019168152602001925050506040516020818303038152906040526040518082805190602001908083835b602083101515611961578051825260208201915060208101905060208303925061193c565b6001836020036101000a038019825116818451168082178552505050505050905001915050604051809103902090506000809054906101000a900473ffffffffffffffffffffffffffffffffffffffff1673ffffffffffffffffffffffffffffffffffffffff166302571be3826040518263ffffffff167c0100000000000000000000000000000000000000000000000000000000028152600401808260001916600019168152602001915050602060405180830381600087803b158015611a2857600080fd5b505af1158015611a3c573d6000803e3d6000fd5b505050506040513d6020811015611a5257600080fd5b81019080805190602001909291905050509250505092915050565b600080600030600660008873ffffffffffffffffffffffffffffffffffffffff1673ffffffffffffffffffffffffffffffffffffffff168152602001908152602001600020548a8a8a8a604051602001808773ffffffffffffffffffffffffffffffffffffffff1673ffffffffffffffffffffffffffffffffffffffff166c01000000000000000000000000028152601401868152602001856000191660001916815260200184848082843782019150508273ffffffffffffffffffffffffffffffffffffffff1673ffffffffffffffffffffffffffffffffffffffff166c0100000000000000000000000002815260140196505050505050506040516020818303038152906040526040518082805190602001908083835b602083101515611bab5780518252602082019150602081019050602083039250611b86565b6001836020036101000a03801982511681845116808217855250505050505090500191505060405180910390209250611c2385858080601f016020809104026020016040519081016040528093929190818152602001838380828437820191505050505050846000191661240b90919063ffffffff16565b91508573ffffffffffffffffffffffffffffffffffffffff168273ffffffffffffffffffffffffffffffffffffffff16141515611c5f57600080fd5b611cb26001600660008973ffffffffffffffffffffffffffffffffffffffff1673ffffffffffffffffffffffffffffffffffffffff1681526020019081526020016000205461251c90919063ffffffff16565b600660008873ffffffffffffffffffffffffffffffffffffffff1673ffffffffffffffffffffffffffffffffffffffff1681526020019081526020016000208190555060036001015490506000811115611eee5780600560008473ffffffffffffffffffffffffffffffffffffffff1673ffffffffffffffffffffffffffffffffffffffff1681526020019081526020016000205410151515611d5457600080fd5b611da681600560008573ffffffffffffffffffffffffffffffffffffffff1673ffffffffffffffffffffffffffffffffffffffff1681526020019081526020016000205461250390919063ffffffff16565b600560008473ffffffffffffffffffffffffffffffffffffffff1673ffffffffffffffffffffffffffffffffffffffff16815260200190815260200160002081905550600360000160009054906101000a900473ffffffffffffffffffffffffffffffffffffffff1673ffffffffffffffffffffffffffffffffffffffff1663a9059cbb33836040518363ffffffff167c0100000000000000000000000000000000000000000000000000000000028152600401808373ffffffffffffffffffffffffffffffffffffffff1673ffffffffffffffffffffffffffffffffffffffff16815260200182815260200192505050602060405180830381600087803b158015611eb157600080fd5b505af1158015611ec5573d6000803e3d6000fd5b505050506040513d6020811015611edb57600080fd5b8101908080519060200190929190505050505b611f2b8989898080601f01602080910402602001604051908101604052809392919081815260200183838082843782019150505050505088612538565b505050505050505050565b6000809054906101000a900473ffffffffffffffffffffffffffffffffffffffff1681565b600260009054906101000a900473ffffffffffffffffffffffffffffffffffffffff1673ffffffffffffffffffffffffffffffffffffffff163373ffffffffffffffffffffffffffffffffffffffff16141515611fb757600080fd5b6000809054906101000a900473ffffffffffffffffffffffffffffffffffffffff1673ffffffffffffffffffffffffffffffffffffffff16635b0fc9c383836040518363ffffffff167c01000000000000000000000000000000000000000000000000000000000281526004018083600019166000191681526020018273ffffffffffffffffffffffffffffffffffffffff1673ffffffffffffffffffffffffffffffffffffffff16815260200192505050600060405180830381600087803b15801561208357600080fd5b505af1158015612097573d6000803e3d6000fd5b505050505050565b600260009054906101000a900473ffffffffffffffffffffffffffffffffffffffff1673ffffffffffffffffffffffffffffffffffffffff163373ffffffffffffffffffffffffffffffffffffffff161415156120fb57600080fd5b600073ffffffffffffffffffffffffffffffffffffffff168273ffffffffffffffffffffffffffffffffffffffff1614158015612139575060008114155b151561214457600080fd5b60408051908101604052808373ffffffffffffffffffffffffffffffffffffffff16815260200182815250600360008201518160000160006101000a81548173ffffffffffffffffffffffffffffffffffffffff021916908373ffffffffffffffffffffffffffffffffffffffff160217905550602082015181600101559050505050565b600260009054906101000a900473ffffffffffffffffffffffffffffffffffffffff1673ffffffffffffffffffffffffffffffffffffffff163373ffffffffffffffffffffffffffffffffffffffff1614151561222557600080fd5b600260009054906101000a900473ffffffffffffffffffffffffffffffffffffffff1673ffffffffffffffffffffffffffffffffffffffff167ff8df31144d9c2f0f6b59d69b8b98abd5459d07f2742c4df920b25aae33c6482060405160405180910390a26000600260006101000a81548173ffffffffffffffffffffffffffffffffffffffff021916908373ffffffffffffffffffffffffffffffffffffffff160217905550565b60066020528060005260406000206000915090505481565b600160009054906101000a900473ffffffffffffffffffffffffffffffffffffffff1681565b600260009054906101000a900473ffffffffffffffffffffffffffffffffffffffff1681565b7f93cdeb708b7545dc668eb9280176169d1c33cfd8ed6f04690a0bcc88a93fc4ae60010281565b60038060000160009054906101000a900473ffffffffffffffffffffffffffffffffffffffff16908060010154905082565b60056020528060005260406000206000915090505481565b600260009054906101000a900473ffffffffffffffffffffffffffffffffffffffff1673ffffffffffffffffffffffffffffffffffffffff163373ffffffffffffffffffffffffffffffffffffffff161415156123ff57600080fd5b61240881612984565b50565b6000806000806041855114151561242557600093506124fa565b6020850151925060408501519150606085015160001a9050601b8160ff16101561245057601b810190505b601b8160ff16141580156124685750601c8160ff1614155b1561247657600093506124fa565b600186828585604051600081526020016040526040518085600019166000191681526020018460ff1660ff1681526020018360001916600019168152602001826000191660001916815260200194505050505060206040516020810390808403906000865af11580156124ed573d6000803e3d6000fd5b5050506020604051035193505b50505092915050565b600082821115151561251157fe5b818303905092915050565b6000818301905082811015151561252f57fe5b80905092915050565b600080600073ffffffffffffffffffffffffffffffffffffffff168373ffffffffffffffffffffffffffffffffffffffff161415151561257757600080fd5b7f93cdeb708b7545dc668eb9280176169d1c33cfd8ed6f04690a0bcc88a93fc4ae600102856040516020018083600019166000191681526020018260001916600019168152602001925050506040516020818303038152906040526040518082805190602001908083835b60208310151561260757805182526020820191506020810190506020830392506125e2565b6001836020036101000a03801982511681845116808217855250505050505090500191505060405180910390209150836040516020018082805190602001908083835b60208310151561266f578051825260208201915060208101905060208303925061264a565b6001836020036101000a0380198251168184511680821785525050505050509050019150506040516020818303038152906040526040518082805190602001908083835b6020831015156126d857805182526020820191506020810190506020830392506126b3565b6001836020036101000a0380198251168184511680821785525050505050509050019150506040518091039020905060008060009054906101000a900473ffffffffffffffffffffffffffffffffffffffff1673ffffffffffffffffffffffffffffffffffffffff166302571be384846040516020018083600019166000191681526020018260001916600019168152602001925050506040516020818303038152906040526040518082805190602001908083835b6020831015156127b3578051825260208201915060208101905060208303925061278e565b6001836020036101000a03801982511681845116808217855250505050505090500191505060405180910390206040518263ffffffff167c0100000000000000000000000000000000000000000000000000000000028152600401808260001916600019168152602001915050602060405180830381600087803b15801561283a57600080fd5b505af115801561284e573d6000803e3d6000fd5b505050506040513d602081101561286457600080fd5b810190808051906020019092919050505073ffffffffffffffffffffffffffffffffffffffff1614151561289757600080fd5b6128c5828285600160009054906101000a900473ffffffffffffffffffffffffffffffffffffffff16612a80565b8273ffffffffffffffffffffffffffffffffffffffff1685600019167f4139ce95b7c4117d57ba8f9bdc08261e7c56232e6a7aeeed31e567fa7fac1946866040518080602001828103825283818151815260200191508051906020019080838360005b83811015612943578082015181840152602081019050612928565b50505050905090810190601f1680156129705780820380516001836020036101000a031916815260200191505b509250505060405180910390a35050505050565b600073ffffffffffffffffffffffffffffffffffffffff168173ffffffffffffffffffffffffffffffffffffffff16141515156129c057600080fd5b8073ffffffffffffffffffffffffffffffffffffffff16600260009054906101000a900473ffffffffffffffffffffffffffffffffffffffff1673ffffffffffffffffffffffffffffffffffffffff167f8be0079c531659141344cd1fd0a4f28419497f9722a3daafe3b4186f6b6457e060405160405180910390a380600260006101000a81548173ffffffffffffffffffffffffffffffffffffffff021916908373ffffffffffffffffffffffffffffffffffffffff16021790555050565b60008060009054906101000a900473ffffffffffffffffffffffffffffffffffffffff1673ffffffffffffffffffffffffffffffffffffffff166306ab59238686306040518463ffffffff167c010000000000000000000000000000000000000000000000000000000002815260040180846000191660001916815260200183600019166000191681526020018273ffffffffffffffffffffffffffffffffffffffff1673ffffffffffffffffffffffffffffffffffffffff1681526020019350505050600060405180830381600087803b158015612b5e57600080fd5b505af1158015612b72573d6000803e3d6000fd5b5050505084846040516020018083600019166000191681526020018260001916600019168152602001925050506040516020818303038152906040526040518082805190602001908083835b602083101515612be35780518252602082019150602081019050602083039250612bbe565b6001836020036101000a038019825116818451168082178552505050505050905001915050604051809103902090506000809054906101000a900473ffffffffffffffffffffffffffffffffffffffff1673ffffffffffffffffffffffffffffffffffffffff16631896f70a82846040518363ffffffff167c01000000000000000000000000000000000000000000000000000000000281526004018083600019166000191681526020018273ffffffffffffffffffffffffffffffffffffffff1673ffffffffffffffffffffffffffffffffffffffff16815260200192505050600060405180830381600087803b158015612cde57600080fd5b505af1158015612cf2573d6000803e3d6000fd5b505050508173ffffffffffffffffffffffffffffffffffffffff1663d5fa2b0082856040518363ffffffff167c01000000000000000000000000000000000000000000000000000000000281526004018083600019166000191681526020018273ffffffffffffffffffffffffffffffffffffffff1673ffffffffffffffffffffffffffffffffffffffff16815260200192505050600060405180830381600087803b158015612da157600080fd5b505af1158015612db5573d6000803e3d6000fd5b505050506000809054906101000a900473ffffffffffffffffffffffffffffffffffffffff1673ffffffffffffffffffffffffffffffffffffffff16635b0fc9c382856040518363ffffffff167c01000000000000000000000000000000000000000000000000000000000281526004018083600019166000191681526020018273ffffffffffffffffffffffffffffffffffffffff1673ffffffffffffffffffffffffffffffffffffffff16815260200192505050600060405180830381600087803b158015612e8557600080fd5b505af1158015612e99573d6000803e3d6000fd5b5050505050505050505600a165627a7a7230582009a410890454ea3788e97f0241fb232735f5d9b9dec775e4a7ed97514382effb0029",
  "source": "pragma solidity ^0.4.24;\r\n\r\nimport './FIFSRegistrar.sol';\r\nimport 'openzeppelin-solidity/contracts/ownership/Ownable.sol';\r\nimport 'openzeppelin-solidity/contracts/token/ERC20/DetailedERC20.sol';\r\nimport \"openzeppelin-solidity/contracts/math/SafeMath.sol\";\r\nimport './ENS.sol';\r\nimport './Resolver.sol';\r\nimport 'openzeppelin-solidity/contracts/ECRecovery.sol';\r\n\r\ncontract HarvestRegistrar is FIFSRegistrar,Ownable{\r\n\r\n    using SafeMath for uint256;\r\n\r\n    using ECRecovery for bytes32;\r\n\r\n\r\n    struct Fee {\r\n        DetailedERC20 token;\r\n        uint256 amount;\r\n    }\r\n\r\n    Fee public fees;\r\n\r\n    // Mapping from ERC20Token to amount\r\n    mapping(address => uint256) public ownedTokens;\r\n\r\n    // Mapping from caller to nonce\r\n    mapping(address => uint256) public nonces;\r\n\r\n    event OwnerChanged(bytes32  _label,string indexed _subdomain,address indexed _oldOwner, address indexed _newOwner);\r\n\r\n\r\n    constructor(ENS _ens,Resolver _defaultResolver) FIFSRegistrar(_ens,_defaultResolver) public {\r\n    }\r\n\r\n    function setOwner(bytes32 _node, address _owner) onlyOwner public{\r\n        ens.setOwner(_node,_owner);\r\n    }\r\n    function setSubnodeOwner(bytes32 _node, bytes32 _label, address _owner) onlyOwner public{\r\n        ens.setSubnodeOwner(_node,_label,_owner);\r\n    }\r\n    function setResolver(bytes32 _node, address _resolver) onlyOwner public{\r\n        ens.setResolver(_node,_resolver);\r\n    }\r\n    function setTTL(bytes32 _node, uint64 _ttl) onlyOwner public{\r\n        ens.setTTL(_node,_ttl);\r\n    }\r\n\r\n    function transfer(address _caller,bytes32 _label,string _subdomain, address _newOwner,bytes _sig) public {\r\n\r\n        bytes32 hash = keccak256(abi.encodePacked(address(this),nonces[_caller],_label,_subdomain,_newOwner));\r\n        require(hash.recover(_sig) == _caller);\r\n        require(_newOwner != address(0));\r\n        bytes32 domainNode = keccak256(abi.encodePacked(TLD_NODE, _label));\r\n        bytes32 subdomainLabel = keccak256(abi.encodePacked(_subdomain));\r\n        address currentOwner = ens.owner(keccak256(abi.encodePacked(domainNode,subdomainLabel)));\r\n\r\n        require(currentOwner == _caller);\r\n\r\n        //fees\r\n        uint256 amount = fees.amount;\r\n        if(amount > 0){\r\n            require(ownedTokens[_caller] >= amount);\r\n            ownedTokens[_caller] = ownedTokens[_caller].sub(amount);\r\n            //The person who submitted the transaction earns the transaction fee\r\n            fees.token.transfer(msg.sender,amount);\r\n        }\r\n\r\n        if (ens.owner(domainNode) == address(this)) {\r\n            ens.setSubnodeOwner(domainNode, subdomainLabel, _newOwner);\r\n            emit OwnerChanged(_label,_subdomain,currentOwner,_newOwner);\r\n        }\r\n    }\r\n\r\n    function query(bytes32 _label,string _subdomain) public view returns (address){\r\n        bytes32 domainNode = keccak256(abi.encodePacked(TLD_NODE, _label));\r\n        bytes32 subnode = keccak256(abi.encodePacked(domainNode, keccak256(abi.encodePacked(_subdomain))));\r\n        return ens.owner(subnode);\r\n    }\r\n\r\n    function setFees(DetailedERC20 _token, uint256 _amount) onlyOwner public{\r\n        require(_token != address(0) && _amount != 0);\r\n        fees = Fee(_token,_amount);\r\n    }\r\n\r\n    /*function register(string _subdomain, address _owner) external  {\r\n        uint256 amount = fees.amount;\r\n        if(amount > 0){\r\n            require(ownedTokens[msg.sender] >= amount);\r\n            ownedTokens[msg.sender] = ownedTokens[msg.sender].sub(amount);\r\n        }\r\n        super.register(_subdomain,_owner);\r\n    }*/\r\n\r\n    function register(bytes32 _label,string _subdomain, address _owner,bytes _sig) external  {\r\n        bytes32 hash = keccak256(abi.encodePacked(address(this),nonces[_owner],_label,_subdomain,_owner));\r\n        address caller = hash.recover(_sig);\r\n        require(caller == _owner);\r\n        nonces[_owner] = nonces[_owner].add(1); //if we are going to do tx, update nonce\r\n\r\n        uint256 amount = fees.amount;\r\n        if(amount > 0){\r\n            require(ownedTokens[caller] >= amount);\r\n            ownedTokens[caller] = ownedTokens[caller].sub(amount);\r\n            //The person who submitted the transaction earns the transaction fee\r\n            fees.token.transfer(msg.sender,amount);\r\n        }\r\n        super.register(_label,_subdomain,_owner);\r\n    }\r\n\r\n\r\n    function withdraw(uint256 _amount) external{\r\n        require(_amount > 0);\r\n        uint256 ownedAmount = ownedTokens[msg.sender];\r\n        require(ownedAmount >= _amount);\r\n        ownedTokens[msg.sender] = ownedAmount.sub(_amount);\r\n        fees.token.transfer(msg.sender,_amount);\r\n        /*if(fees.token == address(0)){\r\n            msg.sender.transfer(_amount);\r\n        }else{\r\n            fees.token.transfer(msg.sender,_amount);\r\n        }*/\r\n    }\r\n\r\n    /*function adminWithdraw(uint256 _amount) onlyOwner external{\r\n        require(_amount > 0);\r\n        fees.token.transfer(msg.sender,_amount);\r\n    }*/\r\n\r\n    function() payable public {\r\n        revert();\r\n    }\r\n\r\n\r\n\r\n}\r\n",
  "sourcePath": "G:\\GitRepository\\udap\\uc3\\contracts\\ens\\HarvestRegistrar.sol",
  "compiler": {
    "name": "solc",
    "version": "0.4.24+commit.e67f0147.Emscripten.clang"
  },
  "schemaVersion": "2.0.1",
  "updatedAt": "2018-10-30T06:57:43.451Z"
}