{
  "contractName": "HarvestRegistrar",
  "abi": [
    {
      "constant": true,
      "inputs": [],
      "name": "ens",
      "outputs": [
        {
          "name": "",
          "type": "address"
        }
      ],
      "payable": false,
      "stateMutability": "view",
      "type": "function"
    },
    {
      "constant": false,
      "inputs": [],
      "name": "renounceOwnership",
      "outputs": [],
      "payable": false,
      "stateMutability": "nonpayable",
      "type": "function"
    },
    {
      "constant": true,
      "inputs": [
        {
          "name": "",
          "type": "address"
        }
      ],
      "name": "nonces",
      "outputs": [
        {
          "name": "",
          "type": "uint256"
        }
      ],
      "payable": false,
      "stateMutability": "view",
      "type": "function"
    },
    {
      "constant": true,
      "inputs": [],
      "name": "defaultResolver",
      "outputs": [
        {
          "name": "",
          "type": "address"
        }
      ],
      "payable": false,
      "stateMutability": "view",
      "type": "function"
    },
    {
      "constant": true,
      "inputs": [],
      "name": "owner",
      "outputs": [
        {
          "name": "",
          "type": "address"
        }
      ],
      "payable": false,
      "stateMutability": "view",
      "type": "function"
    },
    {
      "constant": true,
      "inputs": [],
      "name": "TLD_NODE",
      "outputs": [
        {
          "name": "",
          "type": "bytes32"
        }
      ],
      "payable": false,
      "stateMutability": "view",
      "type": "function"
    },
    {
      "constant": true,
      "inputs": [],
      "name": "fees",
      "outputs": [
        {
          "name": "token",
          "type": "address"
        },
        {
          "name": "amount",
          "type": "uint256"
        }
      ],
      "payable": false,
      "stateMutability": "view",
      "type": "function"
    },
    {
      "constant": true,
      "inputs": [
        {
          "name": "",
          "type": "address"
        }
      ],
      "name": "ownedTokens",
      "outputs": [
        {
          "name": "",
          "type": "uint256"
        }
      ],
      "payable": false,
      "stateMutability": "view",
      "type": "function"
    },
    {
      "constant": false,
      "inputs": [
        {
          "name": "_newOwner",
          "type": "address"
        }
      ],
      "name": "transferOwnership",
      "outputs": [],
      "payable": false,
      "stateMutability": "nonpayable",
      "type": "function"
    },
    {
      "constant": true,
      "inputs": [],
      "name": "rootNode",
      "outputs": [
        {
          "name": "",
          "type": "bytes32"
        }
      ],
      "payable": false,
      "stateMutability": "view",
      "type": "function"
    },
    {
      "inputs": [
        {
          "name": "_ens",
          "type": "address"
        },
        {
          "name": "_name",
          "type": "string"
        },
        {
          "name": "_defaultResolver",
          "type": "address"
        }
      ],
      "payable": false,
      "stateMutability": "nonpayable",
      "type": "constructor"
    },
    {
      "payable": true,
      "stateMutability": "payable",
      "type": "fallback"
    },
    {
      "anonymous": false,
      "inputs": [
        {
          "indexed": true,
          "name": "subdomain",
          "type": "string"
        },
        {
          "indexed": true,
          "name": "oldOwner",
          "type": "address"
        },
        {
          "indexed": true,
          "name": "newOwner",
          "type": "address"
        }
      ],
      "name": "OwnerChanged",
      "type": "event"
    },
    {
      "anonymous": false,
      "inputs": [
        {
          "indexed": true,
          "name": "previousOwner",
          "type": "address"
        }
      ],
      "name": "OwnershipRenounced",
      "type": "event"
    },
    {
      "anonymous": false,
      "inputs": [
        {
          "indexed": true,
          "name": "previousOwner",
          "type": "address"
        },
        {
          "indexed": true,
          "name": "newOwner",
          "type": "address"
        }
      ],
      "name": "OwnershipTransferred",
      "type": "event"
    },
    {
      "anonymous": false,
      "inputs": [
        {
          "indexed": true,
          "name": "rootNode",
          "type": "bytes32"
        },
        {
          "indexed": false,
          "name": "subdomain",
          "type": "string"
        },
        {
          "indexed": true,
          "name": "owner",
          "type": "address"
        }
      ],
      "name": "NewRegistration",
      "type": "event"
    },
    {
      "constant": false,
      "inputs": [
        {
          "name": "_node",
          "type": "bytes32"
        },
        {
          "name": "_owner",
          "type": "address"
        }
      ],
      "name": "setOwner",
      "outputs": [],
      "payable": false,
      "stateMutability": "nonpayable",
      "type": "function"
    },
    {
      "constant": false,
      "inputs": [
        {
          "name": "_node",
          "type": "bytes32"
        },
        {
          "name": "_label",
          "type": "bytes32"
        },
        {
          "name": "_owner",
          "type": "address"
        }
      ],
      "name": "setSubnodeOwner",
      "outputs": [],
      "payable": false,
      "stateMutability": "nonpayable",
      "type": "function"
    },
    {
      "constant": false,
      "inputs": [
        {
          "name": "_node",
          "type": "bytes32"
        },
        {
          "name": "_resolver",
          "type": "address"
        }
      ],
      "name": "setResolver",
      "outputs": [],
      "payable": false,
      "stateMutability": "nonpayable",
      "type": "function"
    },
    {
      "constant": false,
      "inputs": [
        {
          "name": "_node",
          "type": "bytes32"
        },
        {
          "name": "_ttl",
          "type": "uint64"
        }
      ],
      "name": "setTTL",
      "outputs": [],
      "payable": false,
      "stateMutability": "nonpayable",
      "type": "function"
    },
    {
      "constant": false,
      "inputs": [
        {
          "name": "_subdomain",
          "type": "string"
        },
        {
          "name": "_newOwner",
          "type": "address"
        }
      ],
      "name": "transfer",
      "outputs": [],
      "payable": false,
      "stateMutability": "nonpayable",
      "type": "function"
    },
    {
      "constant": true,
      "inputs": [
        {
          "name": "_subdomain",
          "type": "string"
        }
      ],
      "name": "query",
      "outputs": [
        {
          "name": "",
          "type": "address"
        }
      ],
      "payable": false,
      "stateMutability": "view",
      "type": "function"
    },
    {
      "constant": false,
      "inputs": [
        {
          "name": "_token",
          "type": "address"
        },
        {
          "name": "_amount",
          "type": "uint256"
        }
      ],
      "name": "setFees",
      "outputs": [],
      "payable": false,
      "stateMutability": "nonpayable",
      "type": "function"
    },
    {
      "constant": false,
      "inputs": [
        {
          "name": "_txSender",
          "type": "address"
        },
        {
          "name": "_subdomain",
          "type": "string"
        },
        {
          "name": "_owner",
          "type": "address"
        },
        {
          "name": "_sig",
          "type": "bytes"
        }
      ],
      "name": "register",
      "outputs": [],
      "payable": false,
      "stateMutability": "nonpayable",
      "type": "function"
    },
    {
      "constant": false,
      "inputs": [
        {
          "name": "_amount",
          "type": "uint256"
        }
      ],
      "name": "withdraw",
      "outputs": [],
      "payable": false,
      "stateMutability": "nonpayable",
      "type": "function"
    },
    {
      "constant": false,
      "inputs": [
        {
          "name": "_amount",
          "type": "uint256"
        }
      ],
      "name": "adminWithdraw",
      "outputs": [],
      "payable": false,
      "stateMutability": "nonpayable",
      "type": "function"
    }
  ],
  "bytecode": "0x608060405234801561001057600080fd5b50604051620028573803806200285783398101806040528101908080519060200190929190805182019291906020018051906020019092919050505082828260008073ffffffffffffffffffffffffffffffffffffffff168473ffffffffffffffffffffffffffffffffffffffff16141580156100ba5750600073ffffffffffffffffffffffffffffffffffffffff168273ffffffffffffffffffffffffffffffffffffffff1614155b15156100c557600080fd5b836000806101000a81548173ffffffffffffffffffffffffffffffffffffffff021916908373ffffffffffffffffffffffffffffffffffffffff160217905550826040518082805190602001908083835b60208310151561013b5780518252602082019150602081019050602083039250610116565b6001836020036101000a038019825116818451168082178552505050505050905001915050604051809103902090507f93cdeb708b7545dc668eb9280176169d1c33cfd8ed6f04690a0bcc88a93fc4ae6001028160405180836000191660001916815260200182600019166000191681526020019250505060405180910390206001816000191690555081600260006101000a81548173ffffffffffffffffffffffffffffffffffffffff021916908373ffffffffffffffffffffffffffffffffffffffff1602179055505050505033600360006101000a81548173ffffffffffffffffffffffffffffffffffffffff021916908373ffffffffffffffffffffffffffffffffffffffff1602179055505050506125f9806200025e6000396000f300608060405260043610610112576000357c0100000000000000000000000000000000000000000000000000000000900463ffffffff16806306ab59231461011757806314ab9038146101765780631896f70a146101bb5780632e1a7d4d1461020c5780633f15457f146102395780635b0fc9c3146102905780635e5c6ada146102e1578063715018a61461032e5780637c261929146103455780637c5b4a37146103ee5780637ecebe001461041b578063828eab0e1461047257806388f70e3e146104c95780638da5cb5b1461055c57806396df3540146105b35780639af1d35a146105e6578063b12ab40f14610644578063f2fde38b1461069b578063faff50a8146106de578063fbf58b3e14610711575b600080fd5b34801561012357600080fd5b5061017460048036038101908080356000191690602001909291908035600019169060200190929190803573ffffffffffffffffffffffffffffffffffffffff16906020019092919050505061079a565b005b34801561018257600080fd5b506101b96004803603810190808035600019169060200190929190803567ffffffffffffffff1690602001909291905050506108ef565b005b3480156101c757600080fd5b5061020a6004803603810190808035600019169060200190929190803573ffffffffffffffffffffffffffffffffffffffff169060200190929190505050610a1b565b005b34801561021857600080fd5b5061023760048036038101908080359060200190929190505050610b5f565b005b34801561024557600080fd5b5061024e610d1e565b604051808273ffffffffffffffffffffffffffffffffffffffff1673ffffffffffffffffffffffffffffffffffffffff16815260200191505060405180910390f35b34801561029c57600080fd5b506102df6004803603810190808035600019169060200190929190803573ffffffffffffffffffffffffffffffffffffffff169060200190929190505050610d43565b005b3480156102ed57600080fd5b5061032c600480360381019080803573ffffffffffffffffffffffffffffffffffffffff16906020019092919080359060200190929190505050610e87565b005b34801561033a57600080fd5b50610343610fb1565b005b34801561035157600080fd5b506103ac600480360381019080803590602001908201803590602001908080601f01602080910402602001604051908101604052809392919081815260200183838082843782019150505050505091929192905050506110b6565b604051808273ffffffffffffffffffffffffffffffffffffffff1673ffffffffffffffffffffffffffffffffffffffff16815260200191505060405180910390f35b3480156103fa57600080fd5b5061041960048036038101908080359060200190929190505050611228565b005b34801561042757600080fd5b5061045c600480360381019080803573ffffffffffffffffffffffffffffffffffffffff16906020019092919050505061139a565b6040518082815260200191505060405180910390f35b34801561047e57600080fd5b506104876113b2565b604051808273ffffffffffffffffffffffffffffffffffffffff1673ffffffffffffffffffffffffffffffffffffffff16815260200191505060405180910390f35b3480156104d557600080fd5b5061055a600480360381019080803573ffffffffffffffffffffffffffffffffffffffff169060200190929190803590602001908201803590602001919091929391929390803573ffffffffffffffffffffffffffffffffffffffff1690602001909291908035906020019082018035906020019190919293919293905050506113d8565b005b34801561056857600080fd5b5061057161178c565b604051808273ffffffffffffffffffffffffffffffffffffffff1673ffffffffffffffffffffffffffffffffffffffff16815260200191505060405180910390f35b3480156105bf57600080fd5b506105c86117b2565b60405180826000191660001916815260200191505060405180910390f35b3480156105f257600080fd5b506105fb6117d9565b604051808373ffffffffffffffffffffffffffffffffffffffff1673ffffffffffffffffffffffffffffffffffffffff1681526020018281526020019250505060405180910390f35b34801561065057600080fd5b50610685600480360381019080803573ffffffffffffffffffffffffffffffffffffffff16906020019092919050505061180b565b6040518082815260200191505060405180910390f35b3480156106a757600080fd5b506106dc600480360381019080803573ffffffffffffffffffffffffffffffffffffffff169060200190929190505050611823565b005b3480156106ea57600080fd5b506106f361188b565b60405180826000191660001916815260200191505060405180910390f35b34801561071d57600080fd5b50610798600480360381019080803590602001908201803590602001908080601f0160208091040260200160405190810160405280939291908181526020018383808284378201915050505050509192919290803573ffffffffffffffffffffffffffffffffffffffff169060200190929190505050611891565b005b600360009054906101000a900473ffffffffffffffffffffffffffffffffffffffff1673ffffffffffffffffffffffffffffffffffffffff163373ffffffffffffffffffffffffffffffffffffffff161415156107f657600080fd5b6000809054906101000a900473ffffffffffffffffffffffffffffffffffffffff1673ffffffffffffffffffffffffffffffffffffffff166306ab59238484846040518463ffffffff167c010000000000000000000000000000000000000000000000000000000002815260040180846000191660001916815260200183600019166000191681526020018273ffffffffffffffffffffffffffffffffffffffff1673ffffffffffffffffffffffffffffffffffffffff1681526020019350505050600060405180830381600087803b1580156108d257600080fd5b505af11580156108e6573d6000803e3d6000fd5b50505050505050565b600360009054906101000a900473ffffffffffffffffffffffffffffffffffffffff1673ffffffffffffffffffffffffffffffffffffffff163373ffffffffffffffffffffffffffffffffffffffff1614151561094b57600080fd5b6000809054906101000a900473ffffffffffffffffffffffffffffffffffffffff1673ffffffffffffffffffffffffffffffffffffffff166314ab903883836040518363ffffffff167c01000000000000000000000000000000000000000000000000000000000281526004018083600019166000191681526020018267ffffffffffffffff1667ffffffffffffffff16815260200192505050600060405180830381600087803b1580156109ff57600080fd5b505af1158015610a13573d6000803e3d6000fd5b505050505050565b600360009054906101000a900473ffffffffffffffffffffffffffffffffffffffff1673ffffffffffffffffffffffffffffffffffffffff163373ffffffffffffffffffffffffffffffffffffffff16141515610a7757600080fd5b6000809054906101000a900473ffffffffffffffffffffffffffffffffffffffff1673ffffffffffffffffffffffffffffffffffffffff16631896f70a83836040518363ffffffff167c01000000000000000000000000000000000000000000000000000000000281526004018083600019166000191681526020018273ffffffffffffffffffffffffffffffffffffffff1673ffffffffffffffffffffffffffffffffffffffff16815260200192505050600060405180830381600087803b158015610b4357600080fd5b505af1158015610b57573d6000803e3d6000fd5b505050505050565b60008082111515610b6f57600080fd5b600660003373ffffffffffffffffffffffffffffffffffffffff1673ffffffffffffffffffffffffffffffffffffffff168152602001908152602001600020549050818110151515610bc057600080fd5b610bd38282611d3590919063ffffffff16565b600660003373ffffffffffffffffffffffffffffffffffffffff1673ffffffffffffffffffffffffffffffffffffffff16815260200190815260200160002081905550600460000160009054906101000a900473ffffffffffffffffffffffffffffffffffffffff1673ffffffffffffffffffffffffffffffffffffffff1663a9059cbb33846040518363ffffffff167c0100000000000000000000000000000000000000000000000000000000028152600401808373ffffffffffffffffffffffffffffffffffffffff1673ffffffffffffffffffffffffffffffffffffffff16815260200182815260200192505050602060405180830381600087803b158015610cde57600080fd5b505af1158015610cf2573d6000803e3d6000fd5b505050506040513d6020811015610d0857600080fd5b8101908080519060200190929190505050505050565b6000809054906101000a900473ffffffffffffffffffffffffffffffffffffffff1681565b600360009054906101000a900473ffffffffffffffffffffffffffffffffffffffff1673ffffffffffffffffffffffffffffffffffffffff163373ffffffffffffffffffffffffffffffffffffffff16141515610d9f57600080fd5b6000809054906101000a900473ffffffffffffffffffffffffffffffffffffffff1673ffffffffffffffffffffffffffffffffffffffff16635b0fc9c383836040518363ffffffff167c01000000000000000000000000000000000000000000000000000000000281526004018083600019166000191681526020018273ffffffffffffffffffffffffffffffffffffffff1673ffffffffffffffffffffffffffffffffffffffff16815260200192505050600060405180830381600087803b158015610e6b57600080fd5b505af1158015610e7f573d6000803e3d6000fd5b505050505050565b600360009054906101000a900473ffffffffffffffffffffffffffffffffffffffff1673ffffffffffffffffffffffffffffffffffffffff163373ffffffffffffffffffffffffffffffffffffffff16141515610ee357600080fd5b600073ffffffffffffffffffffffffffffffffffffffff168273ffffffffffffffffffffffffffffffffffffffff1614158015610f21575060008114155b1515610f2c57600080fd5b60408051908101604052808373ffffffffffffffffffffffffffffffffffffffff16815260200182815250600460008201518160000160006101000a81548173ffffffffffffffffffffffffffffffffffffffff021916908373ffffffffffffffffffffffffffffffffffffffff160217905550602082015181600101559050505050565b600360009054906101000a900473ffffffffffffffffffffffffffffffffffffffff1673ffffffffffffffffffffffffffffffffffffffff163373ffffffffffffffffffffffffffffffffffffffff1614151561100d57600080fd5b600360009054906101000a900473ffffffffffffffffffffffffffffffffffffffff1673ffffffffffffffffffffffffffffffffffffffff167ff8df31144d9c2f0f6b59d69b8b98abd5459d07f2742c4df920b25aae33c6482060405160405180910390a26000600360006101000a81548173ffffffffffffffffffffffffffffffffffffffff021916908373ffffffffffffffffffffffffffffffffffffffff160217905550565b600080600154836040518082805190602001908083835b6020831015156110f257805182526020820191506020810190506020830392506110cd565b6001836020036101000a0380198251168184511680821785525050505050509050019150506040518091039020604051808360001916600019168152602001826000191660001916815260200192505050604051809103902090506000809054906101000a900473ffffffffffffffffffffffffffffffffffffffff1673ffffffffffffffffffffffffffffffffffffffff166302571be3826040518263ffffffff167c0100000000000000000000000000000000000000000000000000000000028152600401808260001916600019168152602001915050602060405180830381600087803b1580156111e557600080fd5b505af11580156111f9573d6000803e3d6000fd5b505050506040513d602081101561120f57600080fd5b8101908080519060200190929190505050915050919050565b600360009054906101000a900473ffffffffffffffffffffffffffffffffffffffff1673ffffffffffffffffffffffffffffffffffffffff163373ffffffffffffffffffffffffffffffffffffffff1614151561128457600080fd5b60008111151561129357600080fd5b600460000160009054906101000a900473ffffffffffffffffffffffffffffffffffffffff1673ffffffffffffffffffffffffffffffffffffffff1663a9059cbb33836040518363ffffffff167c0100000000000000000000000000000000000000000000000000000000028152600401808373ffffffffffffffffffffffffffffffffffffffff1673ffffffffffffffffffffffffffffffffffffffff16815260200182815260200192505050602060405180830381600087803b15801561135b57600080fd5b505af115801561136f573d6000803e3d6000fd5b505050506040513d602081101561138557600080fd5b81019080805190602001909291905050505050565b60076020528060005260406000206000915090505481565b600260009054906101000a900473ffffffffffffffffffffffffffffffffffffffff1681565b600080600030600760008b73ffffffffffffffffffffffffffffffffffffffff1673ffffffffffffffffffffffffffffffffffffffff16815260200190815260200160002054898989604051602001808673ffffffffffffffffffffffffffffffffffffffff1673ffffffffffffffffffffffffffffffffffffffff166c0100000000000000000000000002815260140185815260200184848082843782019150508273ffffffffffffffffffffffffffffffffffffffff1673ffffffffffffffffffffffffffffffffffffffff166c01000000000000000000000000028152601401955050505050506040516020818303038152906040526040518082805190602001908083835b60208310151561150657805182526020820191506020810190506020830392506114e1565b6001836020036101000a0380198251168184511680821785525050505050509050019150506040518091039020925061157e85858080601f0160208091040260200160405190810160405280939291908181526020018383808284378201915050505050508460001916611d4e90919063ffffffff16565b91508873ffffffffffffffffffffffffffffffffffffffff168273ffffffffffffffffffffffffffffffffffffffff161415156115ba57600080fd5b61160d6001600760008c73ffffffffffffffffffffffffffffffffffffffff1673ffffffffffffffffffffffffffffffffffffffff16815260200190815260200160002054611e4690919063ffffffff16565b600760008b73ffffffffffffffffffffffffffffffffffffffff1673ffffffffffffffffffffffffffffffffffffffff16815260200190815260200160002081905550600460010154905060008111156117455780600660008473ffffffffffffffffffffffffffffffffffffffff1673ffffffffffffffffffffffffffffffffffffffff16815260200190815260200160002054101515156116af57600080fd5b61170181600660008573ffffffffffffffffffffffffffffffffffffffff1673ffffffffffffffffffffffffffffffffffffffff16815260200190815260200160002054611d3590919063ffffffff16565b600660008473ffffffffffffffffffffffffffffffffffffffff1673ffffffffffffffffffffffffffffffffffffffff168152602001908152602001600020819055505b61178188888080601f01602080910402602001604051908101604052809392919081815260200183838082843782019150505050505087611e62565b505050505050505050565b600360009054906101000a900473ffffffffffffffffffffffffffffffffffffffff1681565b7f93cdeb708b7545dc668eb9280176169d1c33cfd8ed6f04690a0bcc88a93fc4ae60010281565b60048060000160009054906101000a900473ffffffffffffffffffffffffffffffffffffffff16908060010154905082565b60066020528060005260406000206000915090505481565b600360009054906101000a900473ffffffffffffffffffffffffffffffffffffffff1673ffffffffffffffffffffffffffffffffffffffff163373ffffffffffffffffffffffffffffffffffffffff1614151561187f57600080fd5b61188881612119565b50565b60015481565b600080600073ffffffffffffffffffffffffffffffffffffffff168373ffffffffffffffffffffffffffffffffffffffff16141515156118d057600080fd5b836040518082805190602001908083835b60208310151561190657805182526020820191506020810190506020830392506118e1565b6001836020036101000a038019825116818451168082178552505050505050905001915050604051809103902091506000809054906101000a900473ffffffffffffffffffffffffffffffffffffffff1673ffffffffffffffffffffffffffffffffffffffff166302571be36001548460405180836000191660001916815260200182600019166000191681526020019250505060405180910390206040518263ffffffff167c0100000000000000000000000000000000000000000000000000000000028152600401808260001916600019168152602001915050602060405180830381600087803b1580156119fc57600080fd5b505af1158015611a10573d6000803e3d6000fd5b505050506040513d6020811015611a2657600080fd5b810190808051906020019092919050505090503373ffffffffffffffffffffffffffffffffffffffff168173ffffffffffffffffffffffffffffffffffffffff16141515611a7357600080fd5b3073ffffffffffffffffffffffffffffffffffffffff166000809054906101000a900473ffffffffffffffffffffffffffffffffffffffff1673ffffffffffffffffffffffffffffffffffffffff166302571be36001546040518263ffffffff167c0100000000000000000000000000000000000000000000000000000000028152600401808260001916600019168152602001915050602060405180830381600087803b158015611b2457600080fd5b505af1158015611b38573d6000803e3d6000fd5b505050506040513d6020811015611b4e57600080fd5b810190808051906020019092919050505073ffffffffffffffffffffffffffffffffffffffff161415611d2f576000809054906101000a900473ffffffffffffffffffffffffffffffffffffffff1673ffffffffffffffffffffffffffffffffffffffff166306ab592360015484866040518463ffffffff167c010000000000000000000000000000000000000000000000000000000002815260040180846000191660001916815260200183600019166000191681526020018273ffffffffffffffffffffffffffffffffffffffff1673ffffffffffffffffffffffffffffffffffffffff1681526020019350505050600060405180830381600087803b158015611c5957600080fd5b505af1158015611c6d573d6000803e3d6000fd5b505050508273ffffffffffffffffffffffffffffffffffffffff168173ffffffffffffffffffffffffffffffffffffffff16856040518082805190602001908083835b602083101515611cd55780518252602082019150602081019050602083039250611cb0565b6001836020036101000a03801982511681845116808217855250505050505090500191505060405180910390207ff86060286164733a3b0bae3ba4b62f85dc6020ba2ee440318bf5b6be6d0d93a860405160405180910390a45b50505050565b6000828211151515611d4357fe5b818303905092915050565b60008060008060418551141515611d685760009350611e3d565b6020850151925060408501519150606085015160001a9050601b8160ff161015611d9357601b810190505b601b8160ff1614158015611dab5750601c8160ff1614155b15611db95760009350611e3d565b600186828585604051600081526020016040526040518085600019166000191681526020018460ff1660ff1681526020018360001916600019168152602001826000191660001916815260200194505050505060206040516020810390808403906000865af1158015611e30573d6000803e3d6000fd5b5050506020604051035193505b50505092915050565b60008183019050828110151515611e5957fe5b80905092915050565b60008073ffffffffffffffffffffffffffffffffffffffff168273ffffffffffffffffffffffffffffffffffffffff1614151515611e9f57600080fd5b826040518082805190602001908083835b602083101515611ed55780518252602082019150602081019050602083039250611eb0565b6001836020036101000a0380198251168184511680821785525050505050509050019150506040518091039020905060008060009054906101000a900473ffffffffffffffffffffffffffffffffffffffff1673ffffffffffffffffffffffffffffffffffffffff166302571be36001548460405180836000191660001916815260200182600019166000191681526020019250505060405180910390206040518263ffffffff167c0100000000000000000000000000000000000000000000000000000000028152600401808260001916600019168152602001915050602060405180830381600087803b158015611fcd57600080fd5b505af1158015611fe1573d6000803e3d6000fd5b505050506040513d6020811015611ff757600080fd5b810190808051906020019092919050505073ffffffffffffffffffffffffffffffffffffffff1614151561202a57600080fd5b61205a6001548284600260009054906101000a900473ffffffffffffffffffffffffffffffffffffffff16612215565b8173ffffffffffffffffffffffffffffffffffffffff16600154600019167f4139ce95b7c4117d57ba8f9bdc08261e7c56232e6a7aeeed31e567fa7fac1946856040518080602001828103825283818151815260200191508051906020019080838360005b838110156120da5780820151818401526020810190506120bf565b50505050905090810190601f1680156121075780820380516001836020036101000a031916815260200191505b509250505060405180910390a3505050565b600073ffffffffffffffffffffffffffffffffffffffff168173ffffffffffffffffffffffffffffffffffffffff161415151561215557600080fd5b8073ffffffffffffffffffffffffffffffffffffffff16600360009054906101000a900473ffffffffffffffffffffffffffffffffffffffff1673ffffffffffffffffffffffffffffffffffffffff167f8be0079c531659141344cd1fd0a4f28419497f9722a3daafe3b4186f6b6457e060405160405180910390a380600360006101000a81548173ffffffffffffffffffffffffffffffffffffffff021916908373ffffffffffffffffffffffffffffffffffffffff16021790555050565b60008060009054906101000a900473ffffffffffffffffffffffffffffffffffffffff1673ffffffffffffffffffffffffffffffffffffffff166306ab59238686306040518463ffffffff167c010000000000000000000000000000000000000000000000000000000002815260040180846000191660001916815260200183600019166000191681526020018273ffffffffffffffffffffffffffffffffffffffff1673ffffffffffffffffffffffffffffffffffffffff1681526020019350505050600060405180830381600087803b1580156122f357600080fd5b505af1158015612307573d6000803e3d6000fd5b505050508484604051808360001916600019168152602001826000191660001916815260200192505050604051809103902090506000809054906101000a900473ffffffffffffffffffffffffffffffffffffffff1673ffffffffffffffffffffffffffffffffffffffff16631896f70a82846040518363ffffffff167c01000000000000000000000000000000000000000000000000000000000281526004018083600019166000191681526020018273ffffffffffffffffffffffffffffffffffffffff1673ffffffffffffffffffffffffffffffffffffffff16815260200192505050600060405180830381600087803b15801561240757600080fd5b505af115801561241b573d6000803e3d6000fd5b505050508173ffffffffffffffffffffffffffffffffffffffff1663d5fa2b0082856040518363ffffffff167c01000000000000000000000000000000000000000000000000000000000281526004018083600019166000191681526020018273ffffffffffffffffffffffffffffffffffffffff1673ffffffffffffffffffffffffffffffffffffffff16815260200192505050600060405180830381600087803b1580156124ca57600080fd5b505af11580156124de573d6000803e3d6000fd5b505050506000809054906101000a900473ffffffffffffffffffffffffffffffffffffffff1673ffffffffffffffffffffffffffffffffffffffff16635b0fc9c382856040518363ffffffff167c01000000000000000000000000000000000000000000000000000000000281526004018083600019166000191681526020018273ffffffffffffffffffffffffffffffffffffffff1673ffffffffffffffffffffffffffffffffffffffff16815260200192505050600060405180830381600087803b1580156125ae57600080fd5b505af11580156125c2573d6000803e3d6000fd5b5050505050505050505600a165627a7a723058209142ebde4c190579e6a4b7f25c4be8bfc1f14e5dd740564fbf4b88bc477fa1da0029",
  "source": "pragma solidity ^0.4.19;\r\n\r\nimport './FIFSRegistrar.sol';\r\nimport 'openzeppelin-solidity/contracts/ownership/Ownable.sol';\r\nimport 'openzeppelin-solidity/contracts/token/ERC20/DetailedERC20.sol';\r\nimport \"openzeppelin-solidity/contracts/math/SafeMath.sol\";\r\nimport './ENS.sol';\r\nimport './Resolver.sol';\r\nimport 'openzeppelin-solidity/contracts/ECRecovery.sol';\r\n\r\ncontract HarvestRegistrar is FIFSRegistrar,Ownable{\r\n\r\n    using SafeMath for uint256;\r\n\r\n    using ECRecovery for bytes32;\r\n\r\n\r\n    struct Fee {\r\n        DetailedERC20 token;\r\n        uint256 amount;\r\n    }\r\n\r\n    Fee public fees;\r\n\r\n    // Mapping from ERC20Token to amount\r\n    mapping(address => uint256) public ownedTokens;\r\n\r\n    // Mapping from caller to nonce\r\n    mapping(address => uint256) public nonces;\r\n\r\n    event OwnerChanged( string indexed subdomain,address indexed oldOwner, address indexed newOwner);\r\n\r\n\r\n    constructor(ENS _ens, string _name,Resolver _defaultResolver) FIFSRegistrar(_ens,_name,_defaultResolver) public {\r\n    }\r\n\r\n    function setOwner(bytes32 _node, address _owner) onlyOwner public{\r\n        ens.setOwner(_node,_owner);\r\n    }\r\n    function setSubnodeOwner(bytes32 _node, bytes32 _label, address _owner) onlyOwner public{\r\n        ens.setSubnodeOwner(_node,_label,_owner);\r\n    }\r\n    function setResolver(bytes32 _node, address _resolver) onlyOwner public{\r\n        ens.setResolver(_node,_resolver);\r\n    }\r\n    function setTTL(bytes32 _node, uint64 _ttl) onlyOwner public{\r\n        ens.setTTL(_node,_ttl);\r\n    }\r\n\r\n    function transfer(string _subdomain, address _newOwner) public {\r\n        require(_newOwner != address(0));\r\n        bytes32 subdomainLabel = keccak256(_subdomain);\r\n        address currentOwner = ens.owner(keccak256(rootNode,subdomainLabel));\r\n\r\n        require(currentOwner == msg.sender);\r\n\r\n        if (ens.owner(rootNode) == address(this)) {\r\n            ens.setSubnodeOwner(rootNode, subdomainLabel, _newOwner);\r\n            emit OwnerChanged(_subdomain,currentOwner,_newOwner);\r\n        }\r\n    }\r\n\r\n    function query(string _subdomain) public view returns (address){\r\n        bytes32 subnode = keccak256(rootNode, keccak256(_subdomain));\r\n        return ens.owner(subnode);\r\n    }\r\n\r\n    function setFees(DetailedERC20 _token, uint256 _amount) onlyOwner public{\r\n        require(_token != address(0) && _amount != 0);\r\n        fees = Fee(_token,_amount);\r\n    }\r\n\r\n    /*function register(string _subdomain, address _owner) external  {\r\n        uint256 amount = fees.amount;\r\n        if(amount > 0){\r\n            require(ownedTokens[msg.sender] >= amount);\r\n            ownedTokens[msg.sender] = ownedTokens[msg.sender].sub(amount);\r\n        }\r\n        super.register(_subdomain,_owner);\r\n    }*/\r\n\r\n    function register(address _txSender,string _subdomain, address _owner,bytes _sig) external  {\r\n        bytes32 hash = keccak256(abi.encodePacked(address(this),nonces[_txSender],_subdomain,_owner));\r\n        address caller = hash.recover(_sig);\r\n        require(caller == _txSender);\r\n        nonces[_txSender] = nonces[_txSender].add(1); //if we are going to do tx, update nonce\r\n\r\n        uint256 amount = fees.amount;\r\n        if(amount > 0){\r\n            require(ownedTokens[caller] >= amount);\r\n            ownedTokens[caller] = ownedTokens[caller].sub(amount);\r\n        }\r\n        super.register(_subdomain,_owner);\r\n    }\r\n\r\n\r\n    function withdraw(uint256 _amount) external{\r\n        require(_amount > 0);\r\n        uint256 ownedAmount = ownedTokens[msg.sender];\r\n        require(ownedAmount >= _amount);\r\n        ownedTokens[msg.sender] = ownedAmount.sub(_amount);\r\n        fees.token.transfer(msg.sender,_amount);\r\n        /*if(fees.token == address(0)){\r\n            msg.sender.transfer(_amount);\r\n        }else{\r\n            fees.token.transfer(msg.sender,_amount);\r\n        }*/\r\n    }\r\n\r\n    function adminWithdraw(uint256 _amount) onlyOwner external{\r\n        require(_amount > 0);\r\n        fees.token.transfer(msg.sender,_amount);\r\n    }\r\n\r\n    function() payable public {\r\n        revert();\r\n    }\r\n\r\n\r\n\r\n}\r\n",
  "sourcePath": "G:\\GitRepository\\udap\\uc3\\contracts\\ens\\HarvestRegistrar.sol",
  "compiler": {
    "name": "solc",
    "version": "0.4.24+commit.e67f0147.Emscripten.clang"
  },
  "schemaVersion": "2.0.1",
  "updatedAt": "2018-10-24T10:09:33.232Z"
}