{
  "contractName": "MultiSig",
  "abi": [
    {
      "constant": true,
      "inputs": [
        {
          "name": "",
          "type": "uint256"
        }
      ],
      "name": "signers",
      "outputs": [
        {
          "name": "",
          "type": "address"
        }
      ],
      "payable": false,
      "stateMutability": "view",
      "type": "function"
    },
    {
      "constant": true,
      "inputs": [],
      "name": "threshold",
      "outputs": [
        {
          "name": "",
          "type": "uint256"
        }
      ],
      "payable": false,
      "stateMutability": "view",
      "type": "function"
    },
    {
      "constant": true,
      "inputs": [],
      "name": "MAX_SIGNER_COUNT",
      "outputs": [
        {
          "name": "",
          "type": "uint256"
        }
      ],
      "payable": false,
      "stateMutability": "view",
      "type": "function"
    },
    {
      "constant": true,
      "inputs": [],
      "name": "nonce",
      "outputs": [
        {
          "name": "",
          "type": "uint256"
        }
      ],
      "payable": false,
      "stateMutability": "view",
      "type": "function"
    },
    {
      "inputs": [
        {
          "name": "_threshold",
          "type": "uint256"
        },
        {
          "name": "_signers",
          "type": "address[]"
        }
      ],
      "payable": false,
      "stateMutability": "nonpayable",
      "type": "constructor"
    },
    {
      "payable": true,
      "stateMutability": "payable",
      "type": "fallback"
    },
    {
      "constant": false,
      "inputs": [
        {
          "name": "_signer",
          "type": "address"
        }
      ],
      "name": "addSigner",
      "outputs": [],
      "payable": false,
      "stateMutability": "nonpayable",
      "type": "function"
    },
    {
      "constant": false,
      "inputs": [
        {
          "name": "_signer",
          "type": "address"
        }
      ],
      "name": "removeSigner",
      "outputs": [],
      "payable": false,
      "stateMutability": "nonpayable",
      "type": "function"
    },
    {
      "constant": false,
      "inputs": [
        {
          "name": "_threshold",
          "type": "uint256"
        }
      ],
      "name": "changeThreshold",
      "outputs": [],
      "payable": false,
      "stateMutability": "nonpayable",
      "type": "function"
    },
    {
      "constant": true,
      "inputs": [
        {
          "name": "_signer",
          "type": "address"
        }
      ],
      "name": "isSigner",
      "outputs": [
        {
          "name": "",
          "type": "bool"
        }
      ],
      "payable": false,
      "stateMutability": "view",
      "type": "function"
    },
    {
      "constant": false,
      "inputs": [
        {
          "name": "sigV",
          "type": "uint8[]"
        },
        {
          "name": "sigR",
          "type": "bytes32[]"
        },
        {
          "name": "sigS",
          "type": "bytes32[]"
        },
        {
          "name": "destination",
          "type": "address"
        },
        {
          "name": "value",
          "type": "uint256"
        },
        {
          "name": "data",
          "type": "bytes"
        }
      ],
      "name": "execute",
      "outputs": [],
      "payable": false,
      "stateMutability": "nonpayable",
      "type": "function"
    },
    {
      "constant": false,
      "inputs": [
        {
          "name": "signedString",
          "type": "bytes"
        }
      ],
      "name": "getRsv",
      "outputs": [
        {
          "name": "",
          "type": "bytes32"
        },
        {
          "name": "",
          "type": "bytes32"
        },
        {
          "name": "",
          "type": "uint8"
        }
      ],
      "payable": false,
      "stateMutability": "nonpayable",
      "type": "function"
    },
    {
      "constant": false,
      "inputs": [
        {
          "name": "data",
          "type": "bytes"
        },
        {
          "name": "start",
          "type": "uint256"
        },
        {
          "name": "len",
          "type": "uint256"
        }
      ],
      "name": "slice",
      "outputs": [
        {
          "name": "",
          "type": "bytes"
        }
      ],
      "payable": false,
      "stateMutability": "nonpayable",
      "type": "function"
    },
    {
      "constant": false,
      "inputs": [
        {
          "name": "source",
          "type": "bytes"
        }
      ],
      "name": "bytesToBytes32",
      "outputs": [
        {
          "name": "result",
          "type": "bytes32"
        }
      ],
      "payable": false,
      "stateMutability": "nonpayable",
      "type": "function"
    }
  ],
  "bytecode": "0x606060405234156200001057600080fd5b604051620015b7380380620015b7833981016040528080519060200190919080518201919050506000815183603282111580156200004e5750818111155b80156200005c575060008114155b15156200006857600080fd5b600092505b8351831015620001b9576002600085858151811015156200008a57fe5b9060200190602002015173ffffffffffffffffffffffffffffffffffffffff1673ffffffffffffffffffffffffffffffffffffffff16815260200190815260200160002060009054906101000a900460ff161580156200012f5750600073ffffffffffffffffffffffffffffffffffffffff1684848151811015156200010c57fe5b9060200190602002015173ffffffffffffffffffffffffffffffffffffffff1614155b15156200013b57600080fd5b60016002600086868151811015156200015057fe5b9060200190602002015173ffffffffffffffffffffffffffffffffffffffff1673ffffffffffffffffffffffffffffffffffffffff16815260200190815260200160002060006101000a81548160ff02191690831515021790555082806001019350506200006d565b8360049080519060200190620001d1929190620001e4565b50846001819055505050505050620002b9565b82805482825590600052602060002090810192821562000260579160200282015b828111156200025f5782518260006101000a81548173ffffffffffffffffffffffffffffffffffffffff021916908373ffffffffffffffffffffffffffffffffffffffff1602179055509160200191906001019062000205565b5b5090506200026f919062000273565b5090565b620002b691905b80821115620002b257600081816101000a81549073ffffffffffffffffffffffffffffffffffffffff0219169055506001016200027a565b5090565b90565b6112ee80620002c96000396000f3006060604052600436106100ba576000357c0100000000000000000000000000000000000000000000000000000000900463ffffffff1680630e316ab7146100bc5780632079fb9a146100f557806342cde4e81461015857806362dfa1be14610181578063694e80c3146101aa5780637df73e27146101cd578063affed0e01461021e578063bfe370d914610247578063dd12f065146102c0578063e004139614610355578063eb12d61e1461043d578063f12d394f14610476575b005b34156100c757600080fd5b6100f3600480803573ffffffffffffffffffffffffffffffffffffffff169060200190919050506105bb565b005b341561010057600080fd5b6101166004808035906020019091905050610852565b604051808273ffffffffffffffffffffffffffffffffffffffff1673ffffffffffffffffffffffffffffffffffffffff16815260200191505060405180910390f35b341561016357600080fd5b61016b610891565b6040518082815260200191505060405180910390f35b341561018c57600080fd5b610194610897565b6040518082815260200191505060405180910390f35b34156101b557600080fd5b6101cb600480803590602001909190505061089c565b005b34156101d857600080fd5b610204600480803573ffffffffffffffffffffffffffffffffffffffff16906020019091905050610912565b604051808215151515815260200191505060405180910390f35b341561022957600080fd5b610231610968565b6040518082815260200191505060405180910390f35b341561025257600080fd5b6102a2600480803590602001908201803590602001908080601f0160208091040260200160405190810160405280939291908181526020018383808284378201915050505050509190505061096e565b60405180826000191660001916815260200191505060405180910390f35b34156102cb57600080fd5b61031b600480803590602001908201803590602001908080601f0160208091040260200160405190810160405280939291908181526020018383808284378201915050505050509190505061097c565b60405180846000191660001916815260200183600019166000191681526020018260ff1660ff168152602001935050505060405180910390f35b341561036057600080fd5b6103c2600480803590602001908201803590602001908080601f01602080910402602001604051908101604052809392919081815260200183838082843782019150505050505091908035906020019091908035906020019091905050610a50565b6040518080602001828103825283818151815260200191508051906020019080838360005b838110156104025780820151818401526020810190506103e7565b50505050905090810190601f16801561042f5780820380516001836020036101000a031916815260200191505b509250505060405180910390f35b341561044857600080fd5b610474600480803573ffffffffffffffffffffffffffffffffffffffff16906020019091905050610b46565b005b341561048157600080fd5b6105b9600480803590602001908201803590602001908080602002602001604051908101604052809392919081815260200183836020028082843782019150505050505091908035906020019082018035906020019080806020026020016040519081016040528093929190818152602001838360200280828437820191505050505050919080359060200190820180359060200190808060200260200160405190810160405280939291908181526020018383602002808284378201915050505050509190803573ffffffffffffffffffffffffffffffffffffffff1690602001909190803590602001909190803590602001908201803590602001908080601f01602080910402602001604051908101604052809392919081815260200183838082843782019150505050505091905050610cd7565b005b60003073ffffffffffffffffffffffffffffffffffffffff163373ffffffffffffffffffffffffffffffffffffffff161415156105f757600080fd5b81600073ffffffffffffffffffffffffffffffffffffffff168173ffffffffffffffffffffffffffffffffffffffff161415151561063457600080fd5b82600260008273ffffffffffffffffffffffffffffffffffffffff1673ffffffffffffffffffffffffffffffffffffffff16815260200190815260200160002060009054906101000a900460ff16151561068d57600080fd5b6000600260008673ffffffffffffffffffffffffffffffffffffffff1673ffffffffffffffffffffffffffffffffffffffff16815260200190815260200160002060006101000a81548160ff021916908315150217905550600092505b600160048054905003831015610815578373ffffffffffffffffffffffffffffffffffffffff1660048481548110151561072057fe5b906000526020600020900160009054906101000a900473ffffffffffffffffffffffffffffffffffffffff1673ffffffffffffffffffffffffffffffffffffffff16141561080857600460016004805490500381548110151561077f57fe5b906000526020600020900160009054906101000a900473ffffffffffffffffffffffffffffffffffffffff166004848154811015156107ba57fe5b906000526020600020900160006101000a81548173ffffffffffffffffffffffffffffffffffffffff021916908373ffffffffffffffffffffffffffffffffffffffff160217905550610815565b82806001019350506106ea565b600160048181805490500391508161082d9190611231565b50600480549050600154111561084c5761084b60048054905061089c565b5b50505050565b60048181548110151561086157fe5b90600052602060002090016000915054906101000a900473ffffffffffffffffffffffffffffffffffffffff1681565b60015481565b603281565b3073ffffffffffffffffffffffffffffffffffffffff163373ffffffffffffffffffffffffffffffffffffffff161415156108d657600080fd5b60048054905081603282111580156108ee5750818111155b80156108fb575060008114155b151561090657600080fd5b82600181905550505050565b6000600260008373ffffffffffffffffffffffffffffffffffffffff1673ffffffffffffffffffffffffffffffffffffffff16815260200190815260200160002060009054906101000a900460ff169050919050565b60005481565b600060208201519050919050565b60008060008060008061099a6109958860006020610a50565b61096e565b92506109b06109ab88602080610a50565b61096e565b91506109bf8760406001610a50565b60008151811015156109cd57fe5b9060200101517f010000000000000000000000000000000000000000000000000000000000000090047f01000000000000000000000000000000000000000000000000000000000000000290508282827f010000000000000000000000000000000000000000000000000000000000000090049550955095505050509193909250565b610a5861125d565b610a6061125d565b600083604051805910610a705750595b9080825280601f01601f19166020018201604052509150600090505b83811015610b3a5785858201815181101515610aa457fe5b9060200101517f010000000000000000000000000000000000000000000000000000000000000090047f0100000000000000000000000000000000000000000000000000000000000000028282815181101515610afd57fe5b9060200101907effffffffffffffffffffffffffffffffffffffffffffffffffffffffffffff1916908160001a9053508080600101915050610a8c565b81925050509392505050565b3073ffffffffffffffffffffffffffffffffffffffff163373ffffffffffffffffffffffffffffffffffffffff16141515610b8057600080fd5b80600073ffffffffffffffffffffffffffffffffffffffff168173ffffffffffffffffffffffffffffffffffffffff1614151515610bbd57600080fd5b81600260008273ffffffffffffffffffffffffffffffffffffffff1673ffffffffffffffffffffffffffffffffffffffff16815260200190815260200160002060009054906101000a900460ff16151515610c1757600080fd5b6001600260008573ffffffffffffffffffffffffffffffffffffffff1673ffffffffffffffffffffffffffffffffffffffff16815260200190815260200160002060006101000a81548160ff02191690831515021790555060048054806001018281610c839190611271565b9160005260206000209001600085909190916101000a81548173ffffffffffffffffffffffffffffffffffffffff021916908373ffffffffffffffffffffffffffffffffffffffff16021790555050505050565b6000806000806001548951141515610cee57600080fd5b87518951148015610d00575089518951145b1515610d0b57600080fd5b60197f01000000000000000000000000000000000000000000000000000000000000000260007f0100000000000000000000000000000000000000000000000000000000000000023089898960005460405180887effffffffffffffffffffffffffffffffffffffffffffffffffffffffffffff19167effffffffffffffffffffffffffffffffffffffffffffffffffffffffffffff19168152600101877effffffffffffffffffffffffffffffffffffffffffffffffffffffffffffff19167effffffffffffffffffffffffffffffffffffffffffffffffffffffffffffff191681526001018673ffffffffffffffffffffffffffffffffffffffff1673ffffffffffffffffffffffffffffffffffffffff166c010000000000000000000000000281526014018573ffffffffffffffffffffffffffffffffffffffff1673ffffffffffffffffffffffffffffffffffffffff166c0100000000000000000000000002815260140184815260200183805190602001908083835b602083101515610eab5780518252602082019150602081019050602083039250610e86565b6001836020036101000a03801982511681845116808217855250505050505090500182815260200197505050505050505060405180910390209350600092505b600154831015611094576001848b85815181101515610f0657fe5b906020019060200201518b86815181101515610f1e57fe5b906020019060200201518b87815181101515610f3657fe5b90602001906020020151604051600081526020016040526000604051602001526040518085600019166000191681526020018460ff1660ff16815260200183600019166000191681526020018260001916600019168152602001945050505050602060405160208103908084039060008661646e5a03f11515610fb857600080fd5b5050602060405103519150600260008373ffffffffffffffffffffffffffffffffffffffff1673ffffffffffffffffffffffffffffffffffffffff16815260200190815260200160002060009054906101000a900460ff161561108757600160036000866000191660001916815260200190815260200160002060008473ffffffffffffffffffffffffffffffffffffffff1673ffffffffffffffffffffffffffffffffffffffff16815260200190815260200160002060006101000a81548160ff0219169083151502179055505b8280600101935050610eeb565b60009050600092505b6004805490508310156111725760036000856000191660001916815260200190815260200160002060006004858154811015156110d657fe5b906000526020600020900160009054906101000a900473ffffffffffffffffffffffffffffffffffffffff1673ffffffffffffffffffffffffffffffffffffffff1673ffffffffffffffffffffffffffffffffffffffff16815260200190815260200160002060009054906101000a900460ff1615611156576001810190505b60015481141561116557611172565b828060010193505061109d565b6001548114151561118257600080fd5b6001600054016000819055508673ffffffffffffffffffffffffffffffffffffffff16868660405180828051906020019080838360005b838110156111d45780820151818401526020810190506111b9565b50505050905090810190601f1680156112015780820380516001836020036101000a031916815260200191505b5091505060006040518083038185876187965a03f192505050151561122557600080fd5b50505050505050505050565b81548183558181151161125857818360005260206000209182019101611257919061129d565b5b505050565b602060405190810160405280600081525090565b81548183558181151161129857818360005260206000209182019101611297919061129d565b5b505050565b6112bf91905b808211156112bb5760008160009055506001016112a3565b5090565b905600a165627a7a72305820e1df7063093963bdc292849aa3e9d9d3b22f785cc72718b169ea169bb627530c0029",
  "source": "pragma solidity 0.4.19;\r\n\r\ncontract MultiSig {\r\n  uint constant public MAX_SIGNER_COUNT = 50;\r\n  uint public nonce;\r\n  uint public threshold;\r\n  mapping (address => bool) private signerRegistered;\r\n  // trx hash to confirmations\r\n  mapping (bytes32 => mapping (address => bool)) private txConfirmations;\r\n  address[] public signers;\r\n\r\n  modifier validThreshold(uint _signerCount, uint _threshold) {\r\n    require(_signerCount <= MAX_SIGNER_COUNT && _threshold <= _signerCount && _threshold != 0);\r\n    _;\r\n  }\r\n\r\n    modifier onlyOwner() {\r\n        require(msg.sender == address(this));\r\n        _;\r\n    }\r\n\r\n    modifier signerDoesNotExist(address _signer) {\r\n        require(!signerRegistered[_signer]);\r\n        _;\r\n    }\r\n\r\n    modifier signerExists(address _signer) {\r\n        require(signerRegistered[_signer]);\r\n        _;\r\n    }\r\n\r\n    modifier validAddress(address _addr) {\r\n        require(_addr != address(0));\r\n        _;\r\n    }\r\n\r\n  /**\r\n   * @dev constructor to create a MultiSig contract.\r\n   * @param _threshold uint the number of required confirmation\r\n   */\r\n  function MultiSig(uint _threshold, address[] _signers)\r\n    public validThreshold(_signers.length,_threshold) {\r\n    for (uint i=0; i<_signers.length; i++) {\r\n        require(!signerRegistered[_signers[i]] && _signers[i] != address(0));\r\n        signerRegistered[_signers[i]] = true;\r\n    }\r\n    signers = _signers;\r\n    threshold = _threshold;\r\n  }\r\n\r\n    function addSigner(address _signer)\r\n        public onlyOwner validAddress(_signer) signerDoesNotExist(_signer) {\r\n        signerRegistered[_signer] = true;\r\n        signers.push(_signer);\r\n    }\r\n\r\n    function removeSigner(address _signer)\r\n        public onlyOwner validAddress(_signer) signerExists(_signer) {\r\n        signerRegistered[_signer] = false;\r\n        for (uint i=0; i<signers.length - 1; i++) {\r\n            if (signers[i] == _signer) {\r\n                signers[i] = signers[signers.length - 1];\r\n                break;\r\n            }\r\n        }\r\n        signers.length -= 1;\r\n        if (threshold > signers.length)\r\n            changeThreshold(signers.length);\r\n    }\r\n\r\n    function changeThreshold(uint _threshold)\r\n        public onlyOwner validThreshold(signers.length,_threshold) {\r\n        threshold = _threshold;\r\n    }\r\n\r\n  function isSigner(address _signer) public view returns (bool) {\r\n      return signerRegistered[_signer];\r\n  }\r\n\r\n\r\n  /**\r\n   * @dev submit transaction to destination address with multiple signatures/approvals.\r\n   * @param sigV bytes32 signature v\r\n   * @param sigR bytes32 signature r\r\n   * @param sigS bytes32 signature s\r\n   * @param destination address the target address that the transaction is sent to\r\n   * @param value uint number of ether/token to be sent to the destination\r\n   * @param data a multihash value for  additonal transaction data\r\n   */\r\n  function execute(uint8[] sigV, bytes32[] sigR, bytes32[] sigS, address destination, uint value, bytes data) public {\r\n    require(sigR.length == threshold);\r\n    require(sigR.length == sigS.length && sigR.length == sigV.length);\r\n\r\n    // Follows ERC191 signature scheme: https://github.com/ethereum/EIPs/issues/191\r\n    bytes32 txHash = keccak256(byte(0x19), byte(0), this, destination, value, data, nonce);\r\n\r\n    for (uint i = 0; i < threshold; i++) {\r\n        address recovered = ecrecover(txHash, sigV[i], sigR[i], sigS[i]);\r\n        if (signerRegistered[recovered])\r\n            txConfirmations[txHash][recovered] = true;\r\n    }\r\n    uint count = 0;\r\n    for (i=0; i<signers.length; i++) {\r\n        if (txConfirmations[txHash][signers[i]])\r\n            count+=1;\r\n        if (count == threshold) break;\r\n    }\r\n    require(count == threshold);\r\n\r\n    // If we make it here all signatures are accounted for\r\n    nonce = nonce + 1;\r\n    require(destination.call.value(value)(data));\r\n  }\r\n\r\n  function getRsv(bytes signedString) public returns (bytes32,bytes32,uint8){\r\n      bytes32  r = bytesToBytes32(slice(signedString, 0, 32));\r\n      bytes32  s = bytesToBytes32(slice(signedString, 32, 32));\r\n      byte  v = slice(signedString, 64, 1)[0];\r\n      return (r,s,uint8(v));\r\n  }\r\n\r\n    function slice(bytes memory data, uint start, uint len) public returns (bytes){\r\n        bytes memory b = new bytes(len);\r\n\r\n        for(uint i = 0; i < len; i++){\r\n            b[i] = data[i + start];\r\n        }\r\n\r\n        return b;\r\n    }\r\n    function bytesToBytes32(bytes memory source) public returns (bytes32 result) {\r\n        assembly {\r\n            result := mload(add(source, 32))\r\n        }\r\n    }\r\n\r\n  function () public payable {}\r\n\r\n}\r\n",
  "sourcePath": "G:\\GitRepository\\udap\\uc3\\contracts\\MultiSig.sol",
  "compiler": {
    "name": "solc",
    "version": "0.4.19+commit.c4cbbb05.Emscripten.clang"
  },
  "schemaVersion": "2.0.0",
  "updatedAt": "2018-05-09T02:56:19.973Z"
}