{
  "contractName": "Pledge",
  "abi": [
    {
      "constant": true,
      "inputs": [],
      "name": "dischargeRef",
      "outputs": [
        {
          "name": "",
          "type": "bytes"
        }
      ],
      "payable": false,
      "stateMutability": "view",
      "type": "function"
    },
    {
      "constant": true,
      "inputs": [],
      "name": "owingBalance",
      "outputs": [
        {
          "name": "",
          "type": "uint256"
        }
      ],
      "payable": false,
      "stateMutability": "view",
      "type": "function"
    },
    {
      "constant": true,
      "inputs": [],
      "name": "pledgor",
      "outputs": [
        {
          "name": "",
          "type": "address"
        }
      ],
      "payable": false,
      "stateMutability": "view",
      "type": "function"
    },
    {
      "constant": true,
      "inputs": [],
      "name": "pledgee",
      "outputs": [
        {
          "name": "",
          "type": "address"
        }
      ],
      "payable": false,
      "stateMutability": "view",
      "type": "function"
    },
    {
      "constant": true,
      "inputs": [],
      "name": "state",
      "outputs": [
        {
          "name": "",
          "type": "uint8"
        }
      ],
      "payable": false,
      "stateMutability": "view",
      "type": "function"
    },
    {
      "constant": true,
      "inputs": [],
      "name": "collateral",
      "outputs": [
        {
          "name": "",
          "type": "address"
        }
      ],
      "payable": false,
      "stateMutability": "view",
      "type": "function"
    },
    {
      "constant": true,
      "inputs": [],
      "name": "pledgeRef",
      "outputs": [
        {
          "name": "",
          "type": "bytes"
        }
      ],
      "payable": false,
      "stateMutability": "view",
      "type": "function"
    },
    {
      "inputs": [
        {
          "name": "_pledgor",
          "type": "address"
        },
        {
          "name": "_pledgee",
          "type": "address"
        },
        {
          "name": "_asset",
          "type": "address"
        },
        {
          "name": "_cosigners",
          "type": "address[]"
        }
      ],
      "payable": false,
      "stateMutability": "nonpayable",
      "type": "constructor"
    },
    {
      "constant": false,
      "inputs": [
        {
          "name": "_approvedAmount",
          "type": "uint256"
        },
        {
          "name": "_dataRef",
          "type": "bytes"
        }
      ],
      "name": "approve",
      "outputs": [],
      "payable": false,
      "stateMutability": "nonpayable",
      "type": "function"
    },
    {
      "constant": false,
      "inputs": [
        {
          "name": "_sigs",
          "type": "bytes32[2]"
        }
      ],
      "name": "execute",
      "outputs": [],
      "payable": false,
      "stateMutability": "nonpayable",
      "type": "function"
    },
    {
      "constant": false,
      "inputs": [
        {
          "name": "_hash",
          "type": "bytes"
        }
      ],
      "name": "reject",
      "outputs": [],
      "payable": false,
      "stateMutability": "nonpayable",
      "type": "function"
    },
    {
      "constant": false,
      "inputs": [
        {
          "name": "_hash",
          "type": "bytes"
        }
      ],
      "name": "discharge",
      "outputs": [],
      "payable": false,
      "stateMutability": "nonpayable",
      "type": "function"
    }
  ],
  "bytecode": "0x606060405234156200001057600080fd5b60405162002d7938038062002d798339810160405280805190602001909190805190602001909190805190602001909190805182019190505062000053620004b7565b60008073ffffffffffffffffffffffffffffffffffffffff168673ffffffffffffffffffffffffffffffffffffffff1614158015620000bf5750600073ffffffffffffffffffffffffffffffffffffffff168573ffffffffffffffffffffffffffffffffffffffff1614155b8015620000f95750600073ffffffffffffffffffffffffffffffffffffffff168473ffffffffffffffffffffffffffffffffffffffff1614155b15156200010557600080fd5b8373ffffffffffffffffffffffffffffffffffffffff1663893d20e86000604051602001526040518163ffffffff167c0100000000000000000000000000000000000000000000000000000000028152600401602060405180830381600087803b15156200017257600080fd5b6102c65a03f115156200018457600080fd5b5050506040518051905073ffffffffffffffffffffffffffffffffffffffff168673ffffffffffffffffffffffffffffffffffffffff16141515620001c857600080fd5b856000806101000a81548173ffffffffffffffffffffffffffffffffffffffff021916908373ffffffffffffffffffffffffffffffffffffffff16021790555084600160006101000a81548173ffffffffffffffffffffffffffffffffffffffff021916908373ffffffffffffffffffffffffffffffffffffffff16021790555083600260006101000a81548173ffffffffffffffffffffffffffffffffffffffff021916908373ffffffffffffffffffffffffffffffffffffffff16021790555082516002016040518059106200029d5750595b9080825280602002602001820160405250915085826000815181101515620002c157fe5b9060200190602002019073ffffffffffffffffffffffffffffffffffffffff16908173ffffffffffffffffffffffffffffffffffffffff1681525050848260018151811015156200030e57fe5b9060200190602002019073ffffffffffffffffffffffffffffffffffffffff16908173ffffffffffffffffffffffffffffffffffffffff1681525050600090505b8251811015620003ce5782818151811015156200036857fe5b9060200190602002015182600283018151811015156200038457fe5b9060200190602002019073ffffffffffffffffffffffffffffffffffffffff16908173ffffffffffffffffffffffffffffffffffffffff168152505080806001019150506200034f565b815182620003db620004cb565b8083815260200180602001828103825283818151815260200191508051906020019060200280838360005b838110156200042357808201518184015260208101905062000406565b505050509050019350505050604051809103906000f08015156200044657600080fd5b600760006101000a81548173ffffffffffffffffffffffffffffffffffffffff021916908373ffffffffffffffffffffffffffffffffffffffff1602179055506000600460006101000a81548160ff02191690836004811115620004a657fe5b0217905550505050505050620004dc565b602060405190810160405280600081525090565b6040516115b780620017c283390190565b6112d680620004ec6000396000f3006060604052600436106100af576000357c0100000000000000000000000000000000000000000000000000000000900463ffffffff16806308eba4e4146100b45780630c54a37d1461014257806370f4c9301461016b5780638478916d146101c857806395e6cba81461021d5780639f4eba9114610272578063c19d93fb146102cf578063d8dfeb4514610306578063de4b41f91461035b578063e1fc58de146103a1578063f4294f731461042f575b600080fd5b34156100bf57600080fd5b6100c7610495565b6040518080602001828103825283818151815260200191508051906020019080838360005b838110156101075780820151818401526020810190506100ec565b50505050905090810190601f1680156101345780820380516001836020036101000a031916815260200191505b509250505060405180910390f35b341561014d57600080fd5b610155610533565b6040518082815260200191505060405180910390f35b341561017657600080fd5b6101c6600480803590602001908201803590602001908080601f01602080910402602001604051908101604052809392919081815260200183838082843782019150505050505091905050610539565b005b34156101d357600080fd5b6101db610607565b604051808273ffffffffffffffffffffffffffffffffffffffff1673ffffffffffffffffffffffffffffffffffffffff16815260200191505060405180910390f35b341561022857600080fd5b61023061062c565b604051808273ffffffffffffffffffffffffffffffffffffffff1673ffffffffffffffffffffffffffffffffffffffff16815260200191505060405180910390f35b341561027d57600080fd5b6102cd600480803590602001908201803590602001908080601f01602080910402602001604051908101604052809392919081815260200183838082843782019150505050505091905050610652565b005b34156102da57600080fd5b6102e2610727565b604051808260048111156102f257fe5b60ff16815260200191505060405180910390f35b341561031157600080fd5b61031961073a565b604051808273ffffffffffffffffffffffffffffffffffffffff1673ffffffffffffffffffffffffffffffffffffffff16815260200191505060405180910390f35b341561036657600080fd5b61039f60048080604001906002806020026040519081016040528092919082600260200280828437820191505050505091905050610760565b005b34156103ac57600080fd5b6103b4610d65565b6040518080602001828103825283818151815260200191508051906020019080838360005b838110156103f45780820151818401526020810190506103d9565b50505050905090810190601f1680156104215780820380516001836020036101000a031916815260200191505b509250505060405180910390f35b341561043a57600080fd5b610493600480803590602001909190803590602001908201803590602001908080601f01602080910402602001604051908101604052809392919081815260200183838082843782019150505050505091905050610e03565b005b60068054600181600116156101000203166002900480601f01602080910402602001604051908101604052809291908181526020018280546001816001161561010002031660029004801561052b5780601f106105005761010080835404028352916020019161052b565b820191906000526020600020905b81548152906001019060200180831161050e57829003601f168201915b505050505081565b60035481565b600160009054906101000a900473ffffffffffffffffffffffffffffffffffffffff1673ffffffffffffffffffffffffffffffffffffffff163373ffffffffffffffffffffffffffffffffffffffff1614151561059557600080fd5b600060048111156105a257fe5b600460009054906101000a900460ff1660048111156105bd57fe5b1415156105c957600080fd5b6002600460006101000a81548160ff021916908360048111156105e857fe5b021790555080600590805190602001906106039291906111dd565b5050565b6000809054906101000a900473ffffffffffffffffffffffffffffffffffffffff1681565b600160009054906101000a900473ffffffffffffffffffffffffffffffffffffffff1681565b600160009054906101000a900473ffffffffffffffffffffffffffffffffffffffff1673ffffffffffffffffffffffffffffffffffffffff163373ffffffffffffffffffffffffffffffffffffffff161415156106ae57600080fd5b600160048111156106bb57fe5b600460009054906101000a900460ff1660048111156106d657fe5b1415156106e257600080fd5b60048060006101000a81548160ff0219169083600481111561070057fe5b0217905550600060038190555080600690805190602001906107239291906111dd565b5050565b600460009054906101000a900460ff1681565b600260009054906101000a900473ffffffffffffffffffffffffffffffffffffffff1681565b61076861125d565b600080600080600080600160009054906101000a900473ffffffffffffffffffffffffffffffffffffffff1673ffffffffffffffffffffffffffffffffffffffff163373ffffffffffffffffffffffffffffffffffffffff161415156107cd57600080fd5b6002801415156107dc57600080fd5b60026040518059106107eb5750595b90808252806020026020018201604052509650600260009054906101000a900473ffffffffffffffffffffffffffffffffffffffff166000809054906101000a900473ffffffffffffffffffffffffffffffffffffffff16600160009054906101000a900473ffffffffffffffffffffffffffffffffffffffff16600354604051808573ffffffffffffffffffffffffffffffffffffffff1673ffffffffffffffffffffffffffffffffffffffff166c010000000000000000000000000281526014018473ffffffffffffffffffffffffffffffffffffffff1673ffffffffffffffffffffffffffffffffffffffff166c010000000000000000000000000281526014018373ffffffffffffffffffffffffffffffffffffffff1673ffffffffffffffffffffffffffffffffffffffff166c0100000000000000000000000002815260140182815260200194505050505060405180910390209550600094505b6002851015610c2b57600760009054906101000a900473ffffffffffffffffffffffffffffffffffffffff1673ffffffffffffffffffffffffffffffffffffffff1663dd12f0656109ad8a886002811015156109a357fe5b602002015161101a565b6000604051606001526040518263ffffffff167c01000000000000000000000000000000000000000000000000000000000281526004018080602001828103825283818151815260200191508051906020019080838360005b83811015610a21578082015181840152602081019050610a06565b50505050905090810190601f168015610a4e5780820380516001836020036101000a031916815260200191505b5092505050606060405180830381600087803b1515610a6c57600080fd5b6102c65a03f11515610a7d57600080fd5b50505060405180519060200180519060200180519050935093509350600186838686604051600081526020016040526000604051602001526040518085600019166000191681526020018460ff1660ff16815260200183600019166000191681526020018260001916600019168152602001945050505050602060405160208103908084039060008661646e5a03f11515610b1757600080fd5b5050602060405103519050600160009054906101000a900473ffffffffffffffffffffffffffffffffffffffff1673ffffffffffffffffffffffffffffffffffffffff168173ffffffffffffffffffffffffffffffffffffffff161415610ba2576001876001815181101515610b8957fe5b9060200190602002019015159081151581525050610c1e565b6000809054906101000a900473ffffffffffffffffffffffffffffffffffffffff1673ffffffffffffffffffffffffffffffffffffffff168173ffffffffffffffffffffffffffffffffffffffff161415610c1d576001876000815181101515610c0857fe5b90602001906020020190151590811515815250505b5b848060010195505061094b565b866000815181101515610c3a57fe5b906020019060200201518015610c655750866001815181101515610c5a57fe5b906020019060200201515b1515610c7057600080fd5b6000809054906101000a900473ffffffffffffffffffffffffffffffffffffffff1673ffffffffffffffffffffffffffffffffffffffff1660035460056040518082805460018160011615610100020316600290048015610d125780601f10610ce757610100808354040283529160200191610d12565b820191906000526020600020905b815481529060010190602001808311610cf557829003601f168201915b505091505060006040518083038185876187965a03f1925050501515610d3757600080fd5b6003600460006101000a81548160ff02191690836004811115610d5657fe5b02179055505050505050505050565b60058054600181600116156101000203166002900480601f016020809104026020016040519081016040528092919081815260200182805460018160011615610100020316600290048015610dfb5780601f10610dd057610100808354040283529160200191610dfb565b820191906000526020600020905b815481529060010190602001808311610dde57829003601f168201915b505050505081565b6000600160009054906101000a900473ffffffffffffffffffffffffffffffffffffffff1673ffffffffffffffffffffffffffffffffffffffff163373ffffffffffffffffffffffffffffffffffffffff16141515610e6157600080fd5b60006004811115610e6e57fe5b600460009054906101000a900460ff166004811115610e8957fe5b141515610e9557600080fd5b600260009054906101000a900473ffffffffffffffffffffffffffffffffffffffff166000809054906101000a900473ffffffffffffffffffffffffffffffffffffffff16600160009054906101000a900473ffffffffffffffffffffffffffffffffffffffff16604051808473ffffffffffffffffffffffffffffffffffffffff1673ffffffffffffffffffffffffffffffffffffffff166c010000000000000000000000000281526014018373ffffffffffffffffffffffffffffffffffffffff1673ffffffffffffffffffffffffffffffffffffffff166c010000000000000000000000000281526014018273ffffffffffffffffffffffffffffffffffffffff1673ffffffffffffffffffffffffffffffffffffffff166c010000000000000000000000000281526014019350505050604051809103902090506001600460006101000a81548160ff02191690836004811115610ff257fe5b0217905550816005908051906020019061100d9291906111dd565b5082600381905550505050565b611022611271565b600061102c611271565b600091505b60208210801561109557506000848360208110151561104c57fe5b1a7f0100000000000000000000000000000000000000000000000000000000000000027f0100000000000000000000000000000000000000000000000000000000000000900414155b156110a557816001019150611031565b816040518059106110b35750595b9080825280601f01601f19166020018201604052509050600091505b602082108015611154575060007f010000000000000000000000000000000000000000000000000000000000000002848360208110151561110c57fe5b1a7f0100000000000000000000000000000000000000000000000000000000000000027effffffffffffffffffffffffffffffffffffffffffffffffffffffffffffff191614155b156111d357838260208110151561116757fe5b1a7f010000000000000000000000000000000000000000000000000000000000000002818381518110151561119857fe5b9060200101907effffffffffffffffffffffffffffffffffffffffffffffffffffffffffffff1916908160001a9053508160010191506110cf565b8092505050919050565b828054600181600116156101000203166002900490600052602060002090601f016020900481019282601f1061121e57805160ff191683800117855561124c565b8280016001018555821561124c579182015b8281111561124b578251825591602001919060010190611230565b5b5090506112599190611285565b5090565b602060405190810160405280600081525090565b602060405190810160405280600081525090565b6112a791905b808211156112a357600081600090555060010161128b565b5090565b905600a165627a7a723058207aa90f02b46b52fe7380aff6becc61d3d7c85a55d0a3fd1f8c7b76b44c76f1220029606060405234156200001057600080fd5b604051620015b7380380620015b7833981016040528080519060200190919080518201919050506000815183603282111580156200004e5750818111155b80156200005c575060008114155b15156200006857600080fd5b600092505b8351831015620001b9576002600085858151811015156200008a57fe5b9060200190602002015173ffffffffffffffffffffffffffffffffffffffff1673ffffffffffffffffffffffffffffffffffffffff16815260200190815260200160002060009054906101000a900460ff161580156200012f5750600073ffffffffffffffffffffffffffffffffffffffff1684848151811015156200010c57fe5b9060200190602002015173ffffffffffffffffffffffffffffffffffffffff1614155b15156200013b57600080fd5b60016002600086868151811015156200015057fe5b9060200190602002015173ffffffffffffffffffffffffffffffffffffffff1673ffffffffffffffffffffffffffffffffffffffff16815260200190815260200160002060006101000a81548160ff02191690831515021790555082806001019350506200006d565b8360049080519060200190620001d1929190620001e4565b50846001819055505050505050620002b9565b82805482825590600052602060002090810192821562000260579160200282015b828111156200025f5782518260006101000a81548173ffffffffffffffffffffffffffffffffffffffff021916908373ffffffffffffffffffffffffffffffffffffffff1602179055509160200191906001019062000205565b5b5090506200026f919062000273565b5090565b620002b691905b80821115620002b257600081816101000a81549073ffffffffffffffffffffffffffffffffffffffff0219169055506001016200027a565b5090565b90565b6112ee80620002c96000396000f3006060604052600436106100ba576000357c0100000000000000000000000000000000000000000000000000000000900463ffffffff1680630e316ab7146100bc5780632079fb9a146100f557806342cde4e81461015857806362dfa1be14610181578063694e80c3146101aa5780637df73e27146101cd578063affed0e01461021e578063bfe370d914610247578063dd12f065146102c0578063e004139614610355578063eb12d61e1461043d578063f12d394f14610476575b005b34156100c757600080fd5b6100f3600480803573ffffffffffffffffffffffffffffffffffffffff169060200190919050506105bb565b005b341561010057600080fd5b6101166004808035906020019091905050610852565b604051808273ffffffffffffffffffffffffffffffffffffffff1673ffffffffffffffffffffffffffffffffffffffff16815260200191505060405180910390f35b341561016357600080fd5b61016b610891565b6040518082815260200191505060405180910390f35b341561018c57600080fd5b610194610897565b6040518082815260200191505060405180910390f35b34156101b557600080fd5b6101cb600480803590602001909190505061089c565b005b34156101d857600080fd5b610204600480803573ffffffffffffffffffffffffffffffffffffffff16906020019091905050610912565b604051808215151515815260200191505060405180910390f35b341561022957600080fd5b610231610968565b6040518082815260200191505060405180910390f35b341561025257600080fd5b6102a2600480803590602001908201803590602001908080601f0160208091040260200160405190810160405280939291908181526020018383808284378201915050505050509190505061096e565b60405180826000191660001916815260200191505060405180910390f35b34156102cb57600080fd5b61031b600480803590602001908201803590602001908080601f0160208091040260200160405190810160405280939291908181526020018383808284378201915050505050509190505061097c565b60405180846000191660001916815260200183600019166000191681526020018260ff1660ff168152602001935050505060405180910390f35b341561036057600080fd5b6103c2600480803590602001908201803590602001908080601f01602080910402602001604051908101604052809392919081815260200183838082843782019150505050505091908035906020019091908035906020019091905050610a50565b6040518080602001828103825283818151815260200191508051906020019080838360005b838110156104025780820151818401526020810190506103e7565b50505050905090810190601f16801561042f5780820380516001836020036101000a031916815260200191505b509250505060405180910390f35b341561044857600080fd5b610474600480803573ffffffffffffffffffffffffffffffffffffffff16906020019091905050610b46565b005b341561048157600080fd5b6105b9600480803590602001908201803590602001908080602002602001604051908101604052809392919081815260200183836020028082843782019150505050505091908035906020019082018035906020019080806020026020016040519081016040528093929190818152602001838360200280828437820191505050505050919080359060200190820180359060200190808060200260200160405190810160405280939291908181526020018383602002808284378201915050505050509190803573ffffffffffffffffffffffffffffffffffffffff1690602001909190803590602001909190803590602001908201803590602001908080601f01602080910402602001604051908101604052809392919081815260200183838082843782019150505050505091905050610cd7565b005b60003073ffffffffffffffffffffffffffffffffffffffff163373ffffffffffffffffffffffffffffffffffffffff161415156105f757600080fd5b81600073ffffffffffffffffffffffffffffffffffffffff168173ffffffffffffffffffffffffffffffffffffffff161415151561063457600080fd5b82600260008273ffffffffffffffffffffffffffffffffffffffff1673ffffffffffffffffffffffffffffffffffffffff16815260200190815260200160002060009054906101000a900460ff16151561068d57600080fd5b6000600260008673ffffffffffffffffffffffffffffffffffffffff1673ffffffffffffffffffffffffffffffffffffffff16815260200190815260200160002060006101000a81548160ff021916908315150217905550600092505b600160048054905003831015610815578373ffffffffffffffffffffffffffffffffffffffff1660048481548110151561072057fe5b906000526020600020900160009054906101000a900473ffffffffffffffffffffffffffffffffffffffff1673ffffffffffffffffffffffffffffffffffffffff16141561080857600460016004805490500381548110151561077f57fe5b906000526020600020900160009054906101000a900473ffffffffffffffffffffffffffffffffffffffff166004848154811015156107ba57fe5b906000526020600020900160006101000a81548173ffffffffffffffffffffffffffffffffffffffff021916908373ffffffffffffffffffffffffffffffffffffffff160217905550610815565b82806001019350506106ea565b600160048181805490500391508161082d9190611231565b50600480549050600154111561084c5761084b60048054905061089c565b5b50505050565b60048181548110151561086157fe5b90600052602060002090016000915054906101000a900473ffffffffffffffffffffffffffffffffffffffff1681565b60015481565b603281565b3073ffffffffffffffffffffffffffffffffffffffff163373ffffffffffffffffffffffffffffffffffffffff161415156108d657600080fd5b60048054905081603282111580156108ee5750818111155b80156108fb575060008114155b151561090657600080fd5b82600181905550505050565b6000600260008373ffffffffffffffffffffffffffffffffffffffff1673ffffffffffffffffffffffffffffffffffffffff16815260200190815260200160002060009054906101000a900460ff169050919050565b60005481565b600060208201519050919050565b60008060008060008061099a6109958860006020610a50565b61096e565b92506109b06109ab88602080610a50565b61096e565b91506109bf8760406001610a50565b60008151811015156109cd57fe5b9060200101517f010000000000000000000000000000000000000000000000000000000000000090047f01000000000000000000000000000000000000000000000000000000000000000290508282827f010000000000000000000000000000000000000000000000000000000000000090049550955095505050509193909250565b610a5861125d565b610a6061125d565b600083604051805910610a705750595b9080825280601f01601f19166020018201604052509150600090505b83811015610b3a5785858201815181101515610aa457fe5b9060200101517f010000000000000000000000000000000000000000000000000000000000000090047f0100000000000000000000000000000000000000000000000000000000000000028282815181101515610afd57fe5b9060200101907effffffffffffffffffffffffffffffffffffffffffffffffffffffffffffff1916908160001a9053508080600101915050610a8c565b81925050509392505050565b3073ffffffffffffffffffffffffffffffffffffffff163373ffffffffffffffffffffffffffffffffffffffff16141515610b8057600080fd5b80600073ffffffffffffffffffffffffffffffffffffffff168173ffffffffffffffffffffffffffffffffffffffff1614151515610bbd57600080fd5b81600260008273ffffffffffffffffffffffffffffffffffffffff1673ffffffffffffffffffffffffffffffffffffffff16815260200190815260200160002060009054906101000a900460ff16151515610c1757600080fd5b6001600260008573ffffffffffffffffffffffffffffffffffffffff1673ffffffffffffffffffffffffffffffffffffffff16815260200190815260200160002060006101000a81548160ff02191690831515021790555060048054806001018281610c839190611271565b9160005260206000209001600085909190916101000a81548173ffffffffffffffffffffffffffffffffffffffff021916908373ffffffffffffffffffffffffffffffffffffffff16021790555050505050565b6000806000806001548951141515610cee57600080fd5b87518951148015610d00575089518951145b1515610d0b57600080fd5b60197f01000000000000000000000000000000000000000000000000000000000000000260007f0100000000000000000000000000000000000000000000000000000000000000023089898960005460405180887effffffffffffffffffffffffffffffffffffffffffffffffffffffffffffff19167effffffffffffffffffffffffffffffffffffffffffffffffffffffffffffff19168152600101877effffffffffffffffffffffffffffffffffffffffffffffffffffffffffffff19167effffffffffffffffffffffffffffffffffffffffffffffffffffffffffffff191681526001018673ffffffffffffffffffffffffffffffffffffffff1673ffffffffffffffffffffffffffffffffffffffff166c010000000000000000000000000281526014018573ffffffffffffffffffffffffffffffffffffffff1673ffffffffffffffffffffffffffffffffffffffff166c0100000000000000000000000002815260140184815260200183805190602001908083835b602083101515610eab5780518252602082019150602081019050602083039250610e86565b6001836020036101000a03801982511681845116808217855250505050505090500182815260200197505050505050505060405180910390209350600092505b600154831015611094576001848b85815181101515610f0657fe5b906020019060200201518b86815181101515610f1e57fe5b906020019060200201518b87815181101515610f3657fe5b90602001906020020151604051600081526020016040526000604051602001526040518085600019166000191681526020018460ff1660ff16815260200183600019166000191681526020018260001916600019168152602001945050505050602060405160208103908084039060008661646e5a03f11515610fb857600080fd5b5050602060405103519150600260008373ffffffffffffffffffffffffffffffffffffffff1673ffffffffffffffffffffffffffffffffffffffff16815260200190815260200160002060009054906101000a900460ff161561108757600160036000866000191660001916815260200190815260200160002060008473ffffffffffffffffffffffffffffffffffffffff1673ffffffffffffffffffffffffffffffffffffffff16815260200190815260200160002060006101000a81548160ff0219169083151502179055505b8280600101935050610eeb565b60009050600092505b6004805490508310156111725760036000856000191660001916815260200190815260200160002060006004858154811015156110d657fe5b906000526020600020900160009054906101000a900473ffffffffffffffffffffffffffffffffffffffff1673ffffffffffffffffffffffffffffffffffffffff1673ffffffffffffffffffffffffffffffffffffffff16815260200190815260200160002060009054906101000a900460ff1615611156576001810190505b60015481141561116557611172565b828060010193505061109d565b6001548114151561118257600080fd5b6001600054016000819055508673ffffffffffffffffffffffffffffffffffffffff16868660405180828051906020019080838360005b838110156111d45780820151818401526020810190506111b9565b50505050905090810190601f1680156112015780820380516001836020036101000a031916815260200191505b5091505060006040518083038185876187965a03f192505050151561122557600080fd5b50505050505050505050565b81548183558181151161125857818360005260206000209182019101611257919061129d565b5b505050565b602060405190810160405280600081525090565b81548183558181151161129857818360005260206000209182019101611297919061129d565b5b505050565b6112bf91905b808211156112bb5760008160009055506001016112a3565b5090565b905600a165627a7a72305820e1df7063093963bdc292849aa3e9d9d3b22f785cc72718b169ea169bb627530c0029",
  "source": "pragma solidity ^0.4.19;\r\n\r\nimport './Asset.sol';\r\nimport './MultiSig.sol';\r\nimport 'zeppelin-solidity/contracts/ownership/Ownable.sol';\r\nimport 'zeppelin-solidity/contracts/ECRecovery.sol';\r\n/**\r\n * @dev a pledge is a contract between a debtor and a creditor in which the debtor conveys\r\n * possessory title of the collateral to a creditor to secure repayment for some debt or\r\n * obligation. It is like an escrow that when both parties accept the pledge, the pledgor\r\n * gets funds and the pledgee owns the title. when the debt is fully repaid, the pledge\r\n * is discharged.\r\n */\r\ncontract Pledge {\r\n    enum State {\r\n        INITIATED, APPROVED, REJECTED, EXECUTED, DISCHARGED\r\n    }\r\n    // the debtor and the owner of the asset\r\n    address public pledgor;\r\n    // the creditor who offers credit to the pledgor\r\n    address public pledgee;\r\n    // the asset to be pledged\r\n    address public collateral;\r\n    // the remaining credit\r\n    uint public owingBalance;\r\n    // pledge state\r\n    State public state;\r\n    // pledge reference data (a multihash referencing a P2P or cloud data storage)\r\n    bytes public pledgeRef;\r\n    // discharge reference data (a multihash value referring to a P2P or cloud data storage)\r\n    bytes public dischargeRef;\r\n\r\n    // a multisig object\r\n    MultiSig private multiSig;\r\n\r\n    modifier onlyPledgee() {\r\n        require(msg.sender == pledgee);\r\n        _;\r\n    }\r\n    /**\r\n     * @dev constructor.\r\n     * @param _pledgor the owner of the asset\r\n     * @param _pledgee the creditor that accepts the pledge and offers credit to the pledgor\r\n     * @param _asset the asset to be pledged to the creditor\r\n     * @param _cosigners approvers who need to sign on transactions other than pledgor and pledgee\r\n     */\r\n    function Pledge(address _pledgor, address _pledgee, address _asset, address[] _cosigners) public {\r\n        require(_pledgor != address(0) && _pledgee != address(0) && _asset != address(0));\r\n        require(_pledgor == Asset(_asset).getOwner());\r\n        pledgor = _pledgor;\r\n        pledgee = _pledgee;\r\n        collateral = _asset;\r\n        address[] memory _signers = new address[](2+_cosigners.length);\r\n        _signers[0] = _pledgor;\r\n        _signers[1] = _pledgee;\r\n        for (uint i=0; i<_cosigners.length; i++) {\r\n            _signers[i+2]=_cosigners[i];\r\n        }\r\n        multiSig = new MultiSig(_signers.length, _signers);\r\n        state = State.INITIATED;\r\n    }\r\n\r\n    /**\r\n     * @dev approve this pledge (funds not transferred)\r\n     * @param _approvedAmount funds to be credited to the pledgor\r\n     * @param _dataRef additional data for the approval\r\n     */\r\n    function approve(uint _approvedAmount, bytes _dataRef) public onlyPledgee {\r\n        require(state == State.INITIATED);\r\n        bytes32 _msgHash = keccak256(collateral,pledgor,pledgee);\r\n//        require(multiSig.isSigned(_msgHash, _sigs));\r\n        state = State.APPROVED;\r\n        pledgeRef = _dataRef;\r\n        owingBalance = _approvedAmount;\r\n    }\r\n\r\n    /**\r\n     * @dev execute the pledge and transfer funds to the pledgor\r\n     * @param _sigs bytes signatures required by this function\r\n     */\r\n    function execute(bytes32[2] _sigs) public onlyPledgee {\r\n        require(_sigs.length == 2);\r\n        bool[] memory flags = new bool[](2);\r\n        // ensure the signature is from the pledgee\r\n        bytes32 _msgHash = keccak256(collateral,pledgor,pledgee,owingBalance);\r\n        for (uint i=0 ;i<_sigs.length; i++) {\r\n            var (r,s,v) = multiSig.getRsv(bytes32ToBytes(_sigs[i]));\r\n            address recovered = ecrecover(_msgHash, v, r, s);\r\n            if (recovered == pledgee) {\r\n                flags[1] = true;\r\n            } else if (recovered == pledgor) {\r\n                flags[0] = true;\r\n            }\r\n        }\r\n        require(flags[0] && flags[1]);\r\n        // submit transaction to the pledgor/debtor with approvedAmount of tokens/ethers\r\n        require(pledgor.call.value(owingBalance)(pledgeRef));\r\n        // update states\r\n        state = State.EXECUTED;\r\n    }\r\n\r\n    function bytes32ToBytes(bytes32 data) internal pure returns (bytes) {\r\n        uint i = 0;\r\n        while (i < 32 && uint(data[i]) != 0) {\r\n            ++i;\r\n        }\r\n        bytes memory result = new bytes(i);\r\n        i = 0;\r\n        while (i < 32 && data[i] != 0) {\r\n            result[i] = data[i];\r\n            ++i;\r\n        }\r\n        return result;\r\n    }\r\n\r\n    /**\r\n     * @dev reject\r\n     */\r\n    function reject(bytes _hash) public onlyPledgee {\r\n        require(state == State.INITIATED);\r\n        state = State.REJECTED;\r\n        pledgeRef = _hash;\r\n    }\r\n\r\n    /**\r\n     * @dev dischage the pledge with given data\r\n     * @param _hash bytes a multihash value representing the discharge data on a P2P or cloud storage\r\n     */\r\n    function discharge(bytes _hash) public onlyPledgee {\r\n        require(state == State.APPROVED);\r\n        state = State.DISCHARGED;\r\n        owingBalance = 0;\r\n        dischargeRef = _hash;\r\n    }\r\n}\r\n",
  "sourcePath": "G:\\GitRepository\\udap\\uc3\\contracts\\Pledge.sol",
  "compiler": {
    "name": "solc",
    "version": "0.4.19+commit.c4cbbb05.Emscripten.clang"
  },
  "schemaVersion": "2.0.0",
  "updatedAt": "2018-04-23T05:50:10.027Z"
}