{
  "contractName": "Resolver",
  "abi": [
    {
      "constant": true,
      "inputs": [],
      "name": "ens",
      "outputs": [
        {
          "name": "",
          "type": "address"
        }
      ],
      "payable": false,
      "stateMutability": "view",
      "type": "function"
    },
    {
      "constant": true,
      "inputs": [
        {
          "name": "",
          "type": "bytes32"
        }
      ],
      "name": "addresses",
      "outputs": [
        {
          "name": "",
          "type": "address"
        }
      ],
      "payable": false,
      "stateMutability": "view",
      "type": "function"
    },
    {
      "inputs": [
        {
          "name": "ensAddr",
          "type": "address"
        }
      ],
      "payable": false,
      "stateMutability": "nonpayable",
      "type": "constructor"
    },
    {
      "payable": false,
      "stateMutability": "nonpayable",
      "type": "fallback"
    },
    {
      "anonymous": false,
      "inputs": [
        {
          "indexed": true,
          "name": "node",
          "type": "bytes32"
        },
        {
          "indexed": false,
          "name": "a",
          "type": "address"
        }
      ],
      "name": "AddrChanged",
      "type": "event"
    },
    {
      "anonymous": false,
      "inputs": [
        {
          "indexed": true,
          "name": "node",
          "type": "bytes32"
        },
        {
          "indexed": false,
          "name": "hash",
          "type": "bytes32"
        }
      ],
      "name": "ContentChanged",
      "type": "event"
    },
    {
      "constant": true,
      "inputs": [
        {
          "name": "node",
          "type": "bytes32"
        }
      ],
      "name": "addr",
      "outputs": [
        {
          "name": "",
          "type": "address"
        }
      ],
      "payable": false,
      "stateMutability": "view",
      "type": "function"
    },
    {
      "constant": false,
      "inputs": [
        {
          "name": "node",
          "type": "bytes32"
        },
        {
          "name": "addr",
          "type": "address"
        }
      ],
      "name": "setAddr",
      "outputs": [],
      "payable": false,
      "stateMutability": "nonpayable",
      "type": "function"
    },
    {
      "constant": true,
      "inputs": [
        {
          "name": "interfaceID",
          "type": "bytes4"
        }
      ],
      "name": "supportsInterface",
      "outputs": [
        {
          "name": "",
          "type": "bool"
        }
      ],
      "payable": false,
      "stateMutability": "view",
      "type": "function"
    }
  ],
  "bytecode": "0x608060405234801561001057600080fd5b5060405160208061062783398101806040528101908080519060200190929190505050806000806101000a81548173ffffffffffffffffffffffffffffffffffffffff021916908373ffffffffffffffffffffffffffffffffffffffff160217905550506105a4806100836000396000f30060806040526004361061006d576000357c0100000000000000000000000000000000000000000000000000000000900463ffffffff16806301ffc9a71461007f5780633b3b57de146100e35780633f15457f14610154578063699f200f146101ab578063d5fa2b001461021c575b34801561007957600080fd5b50600080fd5b34801561008b57600080fd5b506100c960048036038101908080357bffffffffffffffffffffffffffffffffffffffffffffffffffffffff1916906020019092919050505061026d565b604051808215151515815260200191505060405180910390f35b3480156100ef57600080fd5b506101126004803603810190808035600019169060200190929190505050610307565b604051808273ffffffffffffffffffffffffffffffffffffffff1673ffffffffffffffffffffffffffffffffffffffff16815260200191505060405180910390f35b34801561016057600080fd5b5061016961034c565b604051808273ffffffffffffffffffffffffffffffffffffffff1673ffffffffffffffffffffffffffffffffffffffff16815260200191505060405180910390f35b3480156101b757600080fd5b506101da6004803603810190808035600019169060200190929190505050610371565b604051808273ffffffffffffffffffffffffffffffffffffffff1673ffffffffffffffffffffffffffffffffffffffff16815260200191505060405180910390f35b34801561022857600080fd5b5061026b6004803603810190808035600019169060200190929190803573ffffffffffffffffffffffffffffffffffffffff1690602001909291905050506103a4565b005b6000633b3b57de7c010000000000000000000000000000000000000000000000000000000002827bffffffffffffffffffffffffffffffffffffffffffffffffffffffff1916148061030057506301ffc9a77c010000000000000000000000000000000000000000000000000000000002827bffffffffffffffffffffffffffffffffffffffffffffffffffffffff1916145b9050919050565b600060016000836000191660001916815260200190815260200160002060009054906101000a900473ffffffffffffffffffffffffffffffffffffffff169050919050565b6000809054906101000a900473ffffffffffffffffffffffffffffffffffffffff1681565b60016020528060005260406000206000915054906101000a900473ffffffffffffffffffffffffffffffffffffffff1681565b813373ffffffffffffffffffffffffffffffffffffffff166000809054906101000a900473ffffffffffffffffffffffffffffffffffffffff1673ffffffffffffffffffffffffffffffffffffffff166302571be3836040518263ffffffff167c0100000000000000000000000000000000000000000000000000000000028152600401808260001916600019168152602001915050602060405180830381600087803b15801561045457600080fd5b505af1158015610468573d6000803e3d6000fd5b505050506040513d602081101561047e57600080fd5b810190808051906020019092919050505073ffffffffffffffffffffffffffffffffffffffff161415156104b157600080fd5b8160016000856000191660001916815260200190815260200160002060006101000a81548173ffffffffffffffffffffffffffffffffffffffff021916908373ffffffffffffffffffffffffffffffffffffffff16021790555082600019167f52d7d861f09ab3d26239d492e8968629f95e9e318cf0b73bfddc441522a15fd283604051808273ffffffffffffffffffffffffffffffffffffffff1673ffffffffffffffffffffffffffffffffffffffff16815260200191505060405180910390a25050505600a165627a7a72305820d939fc52ec20e80d86acdf1bb36efe07cc587babd749b33acd75eec807bd96700029",
  "source": "pragma solidity ^0.4.17;\n\n\nimport \"./ENS.sol\";\n/**\n * @dev A basic interface for ENS resolvers.\n */\ncontract Resolver {\n    event AddrChanged(bytes32 indexed node, address a);\n    event ContentChanged(bytes32 indexed node, bytes32 hash);\n\n    ENS public ens;\n    mapping(bytes32=>address) public addresses;\n\n    modifier only_owner(bytes32 node) {\n        require(ens.owner(node) == msg.sender);\n        _;\n    }\n\n    constructor(address ensAddr) public {\n        ens = ENS(ensAddr);\n    }\n\n    function addr(bytes32 node)  constant public returns (address) {\n        return addresses[node];\n    }\n\n    function setAddr(bytes32 node, address addr) only_owner(node) public {\n        addresses[node] = addr;\n        AddrChanged(node, addr);\n    }\n\n    function supportsInterface(bytes4 interfaceID) constant public returns (bool) {\n        return interfaceID == 0x3b3b57de || interfaceID == 0x01ffc9a7;\n    }\n\n    function() public{\n        revert();\n    }\n}\n",
  "sourcePath": "G:\\GitRepository\\udap\\uc3\\contracts\\ens\\Resolver.sol",
  "compiler": {
    "name": "solc",
    "version": "0.4.24+commit.e67f0147.Emscripten.clang"
  },
  "schemaVersion": "2.0.1",
  "updatedAt": "2018-10-24T10:09:33.236Z"
}