{
  "contractName": "StandardAsset",
  "abi": [
    {
      "constant": false,
      "inputs": [
        {
          "name": "_to",
          "type": "address"
        }
      ],
      "name": "transfer",
      "outputs": [],
      "payable": false,
      "stateMutability": "nonpayable",
      "type": "function"
    },
    {
      "constant": true,
      "inputs": [],
      "name": "getIssuer",
      "outputs": [
        {
          "name": "",
          "type": "address"
        }
      ],
      "payable": false,
      "stateMutability": "view",
      "type": "function"
    },
    {
      "constant": true,
      "inputs": [],
      "name": "getId",
      "outputs": [
        {
          "name": "",
          "type": "uint256"
        }
      ],
      "payable": false,
      "stateMutability": "view",
      "type": "function"
    },
    {
      "constant": false,
      "inputs": [],
      "name": "destroy",
      "outputs": [],
      "payable": false,
      "stateMutability": "nonpayable",
      "type": "function"
    },
    {
      "constant": true,
      "inputs": [],
      "name": "getOwner",
      "outputs": [
        {
          "name": "",
          "type": "address"
        }
      ],
      "payable": false,
      "stateMutability": "view",
      "type": "function"
    },
    {
      "inputs": [
        {
          "name": "_issuer",
          "type": "address"
        },
        {
          "name": "_owner",
          "type": "address"
        },
        {
          "name": "_id",
          "type": "uint256"
        },
        {
          "name": "_nsi",
          "type": "bytes32"
        },
        {
          "name": "_transferrable",
          "type": "bool"
        },
        {
          "name": "data",
          "type": "string"
        },
        {
          "name": "_mdRef",
          "type": "bytes32"
        }
      ],
      "payable": false,
      "stateMutability": "nonpayable",
      "type": "constructor"
    },
    {
      "anonymous": false,
      "inputs": [
        {
          "indexed": true,
          "name": "_asset",
          "type": "address"
        },
        {
          "indexed": true,
          "name": "_id",
          "type": "uint256"
        }
      ],
      "name": "AssetCreated",
      "type": "event"
    },
    {
      "anonymous": false,
      "inputs": [
        {
          "indexed": true,
          "name": "_to",
          "type": "address"
        },
        {
          "indexed": true,
          "name": "_id",
          "type": "uint256"
        }
      ],
      "name": "AssetTransferred",
      "type": "event"
    },
    {
      "anonymous": false,
      "inputs": [
        {
          "indexed": true,
          "name": "_assetId",
          "type": "uint256"
        }
      ],
      "name": "AssetDestroyed",
      "type": "event"
    },
    {
      "constant": true,
      "inputs": [],
      "name": "getMetaData",
      "outputs": [
        {
          "name": "",
          "type": "bytes32"
        },
        {
          "name": "",
          "type": "address"
        },
        {
          "name": "",
          "type": "bool"
        },
        {
          "name": "",
          "type": "bool"
        },
        {
          "name": "",
          "type": "string"
        },
        {
          "name": "",
          "type": "bytes32"
        }
      ],
      "payable": false,
      "stateMutability": "view",
      "type": "function"
    },
    {
      "constant": true,
      "inputs": [],
      "name": "getNamespace",
      "outputs": [
        {
          "name": "nsi",
          "type": "bytes32"
        }
      ],
      "payable": false,
      "stateMutability": "view",
      "type": "function"
    },
    {
      "constant": true,
      "inputs": [],
      "name": "isTransferrable",
      "outputs": [
        {
          "name": "",
          "type": "bool"
        }
      ],
      "payable": false,
      "stateMutability": "view",
      "type": "function"
    },
    {
      "constant": true,
      "inputs": [],
      "name": "isFungible",
      "outputs": [
        {
          "name": "",
          "type": "bool"
        }
      ],
      "payable": false,
      "stateMutability": "view",
      "type": "function"
    },
    {
      "constant": true,
      "inputs": [],
      "name": "getDataRef",
      "outputs": [
        {
          "name": "",
          "type": "bytes32"
        }
      ],
      "payable": false,
      "stateMutability": "view",
      "type": "function"
    },
    {
      "constant": true,
      "inputs": [],
      "name": "getData",
      "outputs": [
        {
          "name": "",
          "type": "string"
        }
      ],
      "payable": false,
      "stateMutability": "view",
      "type": "function"
    }
  ],
  "bytecode": "0x6060604052341561000f57600080fd5b604051610c11380380610c1183398101604052808051906020019091908051906020019091908051906020019091908051906020019091908051906020019091908051820191906020018051906020019091905050848787600073ffffffffffffffffffffffffffffffffffffffff168273ffffffffffffffffffffffffffffffffffffffff16141580156100d15750600073ffffffffffffffffffffffffffffffffffffffff168173ffffffffffffffffffffffffffffffffffffffff1614155b15156100dc57600080fd5b8260008190555081600160006101000a81548173ffffffffffffffffffffffffffffffffffffffff021916908373ffffffffffffffffffffffffffffffffffffffff16021790555080600260006101000a81548173ffffffffffffffffffffffffffffffffffffffff021916908373ffffffffffffffffffffffffffffffffffffffff1602179055506000543073ffffffffffffffffffffffffffffffffffffffff167f20df459a0f7f1bc64a42346a9e6536111a3512be01de7a0f5327a4e13b33703860405160405180910390a350505060c060405190810160405280856000191681526020018873ffffffffffffffffffffffffffffffffffffffff1681526020018415158152602001600015158152602001838152602001826000191681525060036000820151816000019060001916905560208201518160010160006101000a81548173ffffffffffffffffffffffffffffffffffffffff021916908373ffffffffffffffffffffffffffffffffffffffff16021790555060408201518160010160146101000a81548160ff02191690831515021790555060608201518160010160156101000a81548160ff02191690831515021790555060808201518160020190805190602001906102b4929190610318565b5060a08201518160030190600019169055905050843073ffffffffffffffffffffffffffffffffffffffff167f20df459a0f7f1bc64a42346a9e6536111a3512be01de7a0f5327a4e13b33703860405160405180910390a3505050505050506103bd565b828054600181600116156101000203166002900490600052602060002090601f016020900481019282601f1061035957805160ff1916838001178555610387565b82800160010185558215610387579182015b8281111561038657825182559160200191906001019061036b565b5b5090506103949190610398565b5090565b6103ba91905b808211156103b657600081600090555060010161039e565b5090565b90565b610845806103cc6000396000f3006060604052600436106100af576000357c0100000000000000000000000000000000000000000000000000000000900463ffffffff16806318e6b367146100b45780631a695230146100e157806327ac4b701461011a5780633bc5de301461014b57806352556421146101d95780635d1ca6311461022e57806383197ef014610257578063893d20e81461026c578063a89c2e5a146102c1578063c5178024146102ee578063d2786ba41461031f575b600080fd5b34156100bf57600080fd5b6100c7610414565b604051808215151515815260200191505060405180910390f35b34156100ec57600080fd5b610118600480803573ffffffffffffffffffffffffffffffffffffffff1690602001909190505061042e565b005b341561012557600080fd5b61012d610550565b60405180826000191660001916815260200191505060405180910390f35b341561015657600080fd5b61015e61055d565b6040518080602001828103825283818151815260200191508051906020019080838360005b8381101561019e578082015181840152602081019050610183565b50505050905090810190601f1680156101cb5780820380516001836020036101000a031916815260200191505b509250505060405180910390f35b34156101e457600080fd5b6101ec610608565b604051808273ffffffffffffffffffffffffffffffffffffffff1673ffffffffffffffffffffffffffffffffffffffff16815260200191505060405180910390f35b341561023957600080fd5b610241610632565b6040518082815260200191505060405180910390f35b341561026257600080fd5b61026a61063b565b005b341561027757600080fd5b61027f610699565b604051808273ffffffffffffffffffffffffffffffffffffffff1673ffffffffffffffffffffffffffffffffffffffff16815260200191505060405180910390f35b34156102cc57600080fd5b6102d46106c3565b604051808215151515815260200191505060405180910390f35b34156102f957600080fd5b6103016106dd565b60405180826000191660001916815260200191505060405180910390f35b341561032a57600080fd5b6103326106e9565b6040518087600019166000191681526020018673ffffffffffffffffffffffffffffffffffffffff1673ffffffffffffffffffffffffffffffffffffffff1681526020018515151515815260200184151515158152602001806020018360001916600019168152602001828103825284818151815260200191508051906020019080838360005b838110156103d45780820151818401526020810190506103b9565b50505050905090810190601f1680156104015780820380516001836020036101000a031916815260200191505b5097505050505050505060405180910390f35b6000600360010160149054906101000a900460ff16905090565b600260009054906101000a900473ffffffffffffffffffffffffffffffffffffffff1673ffffffffffffffffffffffffffffffffffffffff163373ffffffffffffffffffffffffffffffffffffffff1614151561048a57600080fd5b600073ffffffffffffffffffffffffffffffffffffffff168173ffffffffffffffffffffffffffffffffffffffff16141515156104c657600080fd5b80600260006101000a81548173ffffffffffffffffffffffffffffffffffffffff021916908373ffffffffffffffffffffffffffffffffffffffff1602179055506000548173ffffffffffffffffffffffffffffffffffffffff167fff67663330fcde57965a89e0eed2698c4f260f4f4dfa83e4d8a1c1db935fa23560405160405180910390a350565b6000600360000154905090565b610565610805565b60036002018054600181600116156101000203166002900480601f0160208091040260200160405190810160405280929190818152602001828054600181600116156101000203166002900480156105fe5780601f106105d3576101008083540402835291602001916105fe565b820191906000526020600020905b8154815290600101906020018083116105e157829003601f168201915b5050505050905090565b6000600160009054906101000a900473ffffffffffffffffffffffffffffffffffffffff16905090565b60008054905090565b600260009054906101000a900473ffffffffffffffffffffffffffffffffffffffff1673ffffffffffffffffffffffffffffffffffffffff163373ffffffffffffffffffffffffffffffffffffffff1614151561069757600080fd5b565b6000600260009054906101000a900473ffffffffffffffffffffffffffffffffffffffff16905090565b6000600360010160159054906101000a900460ff16905090565b60006003800154905090565b6000806000806106f7610805565b6000600360000154600360010160009054906101000a900473ffffffffffffffffffffffffffffffffffffffff16600360010160149054906101000a900460ff16600360010160159054906101000a900460ff1660036002016003800154818054600181600116156101000203166002900480601f0160208091040260200160405190810160405280929190818152602001828054600181600116156101000203166002900480156107ea5780601f106107bf576101008083540402835291602001916107ea565b820191906000526020600020905b8154815290600101906020018083116107cd57829003601f168201915b50505050509150955095509550955095509550909192939495565b6020604051908101604052806000815250905600a165627a7a7230582021e507c880e70c43819c47df3ccce2e16cee1cfdf8ce092520f11b69538f26f50029",
  "source": "pragma solidity ^0.4.19;\r\n\r\nimport './Commons.sol';\r\nimport './AbstractAsset.sol';\r\n\r\ncontract StandardAsset is AbstractAsset {\r\n  using Commons for Commons.MetaData;\r\n\r\n  // asset metadata\r\n  Commons.MetaData private md;\r\n\r\n  // multisig support if transactions require multiple confirmations\r\n  //MultiSig private multisig;\r\n  function StandardAsset(address _issuer,address _owner, uint _id, bytes32 _nsi, bool _transferrable,\r\n    string data,bytes32 _mdRef) AbstractAsset(_id, _issuer, _owner) public {\r\n    md = Commons.MetaData({\r\n        nsi:_nsi,\r\n        issuer:_issuer,\r\n        transferrable:_transferrable,\r\n        fungible:false,\r\n        data:data,\r\n        dataRef:_mdRef\r\n    });\r\n    AssetCreated(address(this),_id);\r\n  }\r\n\r\n  function getMetaData() public view returns (bytes32,address,bool,bool,string,bytes32) {\r\n    return (md.nsi, md.issuer, md.transferrable, md.fungible,md.data,md.dataRef);\r\n  }\r\n\r\n  function getNamespace() public view returns (bytes32 nsi) {\r\n    return md.nsi;\r\n  }\r\n\r\n  function isTransferrable() public view returns (bool) {\r\n    return md.transferrable;\r\n  }\r\n\r\n  function isFungible() public view returns (bool) {\r\n    return md.fungible;\r\n  }\r\n\r\n  function getDataRef() public view returns (bytes32) {\r\n    return md.dataRef;\r\n  }\r\n  function getData() public view returns (string) {\r\n        return md.data;\r\n  }\r\n\r\n}\r\n",
  "sourcePath": "G:\\GitRepository\\udap\\uc3\\contracts\\StandardAsset.sol",
  "compiler": {
    "name": "solc",
    "version": "0.4.19+commit.c4cbbb05.Emscripten.clang"
  },
  "schemaVersion": "2.0.0",
  "updatedAt": "2018-05-07T04:16:23.667Z"
}