{
  "contractName": "StandardAsset",
  "abi": [
    {
      "constant": true,
      "inputs": [
        {
          "name": "_interfaceId",
          "type": "bytes4"
        }
      ],
      "name": "supportsInterface",
      "outputs": [
        {
          "name": "",
          "type": "bool"
        }
      ],
      "payable": false,
      "stateMutability": "view",
      "type": "function"
    },
    {
      "constant": true,
      "inputs": [],
      "name": "name",
      "outputs": [
        {
          "name": "",
          "type": "string"
        }
      ],
      "payable": false,
      "stateMutability": "view",
      "type": "function"
    },
    {
      "constant": true,
      "inputs": [
        {
          "name": "_tokenId",
          "type": "uint256"
        }
      ],
      "name": "getApproved",
      "outputs": [
        {
          "name": "",
          "type": "address"
        }
      ],
      "payable": false,
      "stateMutability": "view",
      "type": "function"
    },
    {
      "constant": false,
      "inputs": [
        {
          "name": "_to",
          "type": "address"
        },
        {
          "name": "_tokenId",
          "type": "uint256"
        }
      ],
      "name": "approve",
      "outputs": [],
      "payable": false,
      "stateMutability": "nonpayable",
      "type": "function"
    },
    {
      "constant": true,
      "inputs": [],
      "name": "totalSupply",
      "outputs": [
        {
          "name": "",
          "type": "uint256"
        }
      ],
      "payable": false,
      "stateMutability": "view",
      "type": "function"
    },
    {
      "constant": true,
      "inputs": [],
      "name": "InterfaceId_ERC165",
      "outputs": [
        {
          "name": "",
          "type": "bytes4"
        }
      ],
      "payable": false,
      "stateMutability": "view",
      "type": "function"
    },
    {
      "constant": true,
      "inputs": [],
      "name": "issuer",
      "outputs": [
        {
          "name": "",
          "type": "address"
        }
      ],
      "payable": false,
      "stateMutability": "view",
      "type": "function"
    },
    {
      "constant": false,
      "inputs": [
        {
          "name": "_from",
          "type": "address"
        },
        {
          "name": "_to",
          "type": "address"
        },
        {
          "name": "_tokenId",
          "type": "uint256"
        }
      ],
      "name": "transferFrom",
      "outputs": [],
      "payable": false,
      "stateMutability": "nonpayable",
      "type": "function"
    },
    {
      "constant": true,
      "inputs": [
        {
          "name": "_owner",
          "type": "address"
        },
        {
          "name": "_index",
          "type": "uint256"
        }
      ],
      "name": "tokenOfOwnerByIndex",
      "outputs": [
        {
          "name": "",
          "type": "uint256"
        }
      ],
      "payable": false,
      "stateMutability": "view",
      "type": "function"
    },
    {
      "constant": false,
      "inputs": [
        {
          "name": "_from",
          "type": "address"
        },
        {
          "name": "_to",
          "type": "address"
        },
        {
          "name": "_tokenId",
          "type": "uint256"
        }
      ],
      "name": "safeTransferFrom",
      "outputs": [],
      "payable": false,
      "stateMutability": "nonpayable",
      "type": "function"
    },
    {
      "constant": true,
      "inputs": [
        {
          "name": "_tokenId",
          "type": "uint256"
        }
      ],
      "name": "exists",
      "outputs": [
        {
          "name": "",
          "type": "bool"
        }
      ],
      "payable": false,
      "stateMutability": "view",
      "type": "function"
    },
    {
      "constant": true,
      "inputs": [
        {
          "name": "_index",
          "type": "uint256"
        }
      ],
      "name": "tokenByIndex",
      "outputs": [
        {
          "name": "",
          "type": "uint256"
        }
      ],
      "payable": false,
      "stateMutability": "view",
      "type": "function"
    },
    {
      "constant": true,
      "inputs": [
        {
          "name": "_tokenId",
          "type": "uint256"
        }
      ],
      "name": "ownerOf",
      "outputs": [
        {
          "name": "",
          "type": "address"
        }
      ],
      "payable": false,
      "stateMutability": "view",
      "type": "function"
    },
    {
      "constant": true,
      "inputs": [
        {
          "name": "_owner",
          "type": "address"
        }
      ],
      "name": "balanceOf",
      "outputs": [
        {
          "name": "",
          "type": "uint256"
        }
      ],
      "payable": false,
      "stateMutability": "view",
      "type": "function"
    },
    {
      "constant": false,
      "inputs": [],
      "name": "renounceOwnership",
      "outputs": [],
      "payable": false,
      "stateMutability": "nonpayable",
      "type": "function"
    },
    {
      "constant": true,
      "inputs": [],
      "name": "owner",
      "outputs": [
        {
          "name": "",
          "type": "address"
        }
      ],
      "payable": false,
      "stateMutability": "view",
      "type": "function"
    },
    {
      "constant": true,
      "inputs": [],
      "name": "symbol",
      "outputs": [
        {
          "name": "",
          "type": "string"
        }
      ],
      "payable": false,
      "stateMutability": "view",
      "type": "function"
    },
    {
      "constant": false,
      "inputs": [
        {
          "name": "_to",
          "type": "address"
        },
        {
          "name": "_approved",
          "type": "bool"
        }
      ],
      "name": "setApprovalForAll",
      "outputs": [],
      "payable": false,
      "stateMutability": "nonpayable",
      "type": "function"
    },
    {
      "constant": false,
      "inputs": [
        {
          "name": "_from",
          "type": "address"
        },
        {
          "name": "_to",
          "type": "address"
        },
        {
          "name": "_tokenId",
          "type": "uint256"
        },
        {
          "name": "_data",
          "type": "bytes"
        }
      ],
      "name": "safeTransferFrom",
      "outputs": [],
      "payable": false,
      "stateMutability": "nonpayable",
      "type": "function"
    },
    {
      "constant": true,
      "inputs": [
        {
          "name": "_tokenId",
          "type": "uint256"
        }
      ],
      "name": "tokenURI",
      "outputs": [
        {
          "name": "",
          "type": "string"
        }
      ],
      "payable": false,
      "stateMutability": "view",
      "type": "function"
    },
    {
      "constant": true,
      "inputs": [
        {
          "name": "_owner",
          "type": "address"
        },
        {
          "name": "_operator",
          "type": "address"
        }
      ],
      "name": "isApprovedForAll",
      "outputs": [
        {
          "name": "",
          "type": "bool"
        }
      ],
      "payable": false,
      "stateMutability": "view",
      "type": "function"
    },
    {
      "constant": false,
      "inputs": [
        {
          "name": "_newOwner",
          "type": "address"
        }
      ],
      "name": "transferOwnership",
      "outputs": [],
      "payable": false,
      "stateMutability": "nonpayable",
      "type": "function"
    },
    {
      "inputs": [
        {
          "name": "_name",
          "type": "string"
        },
        {
          "name": "_symbol",
          "type": "string"
        },
        {
          "name": "_supplyLimit",
          "type": "uint256"
        },
        {
          "name": "_classURI",
          "type": "string"
        },
        {
          "name": "_owner",
          "type": "address"
        }
      ],
      "payable": false,
      "stateMutability": "nonpayable",
      "type": "constructor"
    },
    {
      "anonymous": false,
      "inputs": [
        {
          "indexed": true,
          "name": "previousOwner",
          "type": "address"
        }
      ],
      "name": "OwnershipRenounced",
      "type": "event"
    },
    {
      "anonymous": false,
      "inputs": [
        {
          "indexed": true,
          "name": "previousOwner",
          "type": "address"
        },
        {
          "indexed": true,
          "name": "newOwner",
          "type": "address"
        }
      ],
      "name": "OwnershipTransferred",
      "type": "event"
    },
    {
      "anonymous": false,
      "inputs": [
        {
          "indexed": true,
          "name": "_from",
          "type": "address"
        },
        {
          "indexed": true,
          "name": "_to",
          "type": "address"
        },
        {
          "indexed": true,
          "name": "_tokenId",
          "type": "uint256"
        }
      ],
      "name": "Transfer",
      "type": "event"
    },
    {
      "anonymous": false,
      "inputs": [
        {
          "indexed": true,
          "name": "_owner",
          "type": "address"
        },
        {
          "indexed": true,
          "name": "_approved",
          "type": "address"
        },
        {
          "indexed": true,
          "name": "_tokenId",
          "type": "uint256"
        }
      ],
      "name": "Approval",
      "type": "event"
    },
    {
      "anonymous": false,
      "inputs": [
        {
          "indexed": true,
          "name": "_owner",
          "type": "address"
        },
        {
          "indexed": true,
          "name": "_operator",
          "type": "address"
        },
        {
          "indexed": false,
          "name": "_approved",
          "type": "bool"
        }
      ],
      "name": "ApprovalForAll",
      "type": "event"
    },
    {
      "constant": false,
      "inputs": [
        {
          "name": "_to",
          "type": "address"
        },
        {
          "name": "_tokenURI",
          "type": "string"
        },
        {
          "name": "_sig",
          "type": "bytes"
        }
      ],
      "name": "mint",
      "outputs": [],
      "payable": false,
      "stateMutability": "nonpayable",
      "type": "function"
    },
    {
      "constant": false,
      "inputs": [
        {
          "name": "_to",
          "type": "address"
        },
        {
          "name": "_tokenURI",
          "type": "string"
        }
      ],
      "name": "mint",
      "outputs": [],
      "payable": false,
      "stateMutability": "nonpayable",
      "type": "function"
    },
    {
      "constant": false,
      "inputs": [
        {
          "name": "_tokenId",
          "type": "uint256"
        }
      ],
      "name": "burn",
      "outputs": [],
      "payable": false,
      "stateMutability": "nonpayable",
      "type": "function"
    },
    {
      "constant": true,
      "inputs": [],
      "name": "getAssetType",
      "outputs": [
        {
          "name": "",
          "type": "address"
        }
      ],
      "payable": false,
      "stateMutability": "view",
      "type": "function"
    }
  ],
  "bytecode": "0x60806040523480156200001157600080fd5b50604051620034cc380380620034cc83398101806040528101908080518201929190602001805182019291906020018051906020019092919080518201929190602001805190602001909291905050508484620000a06301ffc9a77c01000000000000000000000000000000000000000000000000000000000262000459640100000000026401000000009004565b620000dd6380ac58cd7c01000000000000000000000000000000000000000000000000000000000262000459640100000000026401000000009004565b6200011a634f558e797c01000000000000000000000000000000000000000000000000000000000262000459640100000000026401000000009004565b81600590805190602001906200013292919062000517565b5080600690805190602001906200014b92919062000517565b506200018963780e9d637c01000000000000000000000000000000000000000000000000000000000262000459640100000000026401000000009004565b620001c6635b5e139f7c01000000000000000000000000000000000000000000000000000000000262000459640100000000026401000000009004565b505033600c60006101000a81548173ffffffffffffffffffffffffffffffffffffffff021916908373ffffffffffffffffffffffffffffffffffffffff16021790555084848484620002176200059e565b80806020018060200185815260200180602001848103845288818151815260200191508051906020019080838360005b838110156200026457808201518184015260208101905062000247565b50505050905090810190601f168015620002925780820380516001836020036101000a031916815260200191505b50848103835287818151815260200191508051906020019080838360005b83811015620002cd578082015181840152602081019050620002b0565b50505050905090810190601f168015620002fb5780820380516001836020036101000a031916815260200191505b50848103825285818151815260200191508051906020019080838360005b838110156200033657808201518184015260208101905062000319565b50505050905090810190601f168015620003645780820380516001836020036101000a031916815260200191505b50975050505050505050604051809103906000f0801580156200038b573d6000803e3d6000fd5b50600f60006101000a81548173ffffffffffffffffffffffffffffffffffffffff021916908373ffffffffffffffffffffffffffffffffffffffff16021790555080600c60006101000a81548173ffffffffffffffffffffffffffffffffffffffff021916908373ffffffffffffffffffffffffffffffffffffffff16021790555080600e60006101000a81548173ffffffffffffffffffffffffffffffffffffffff021916908373ffffffffffffffffffffffffffffffffffffffff1602179055505050505050620005d7565b63ffffffff7c010000000000000000000000000000000000000000000000000000000002817bffffffffffffffffffffffffffffffffffffffffffffffffffffffff191614151515620004ab57600080fd5b6001600080837bffffffffffffffffffffffffffffffffffffffffffffffffffffffff19167bffffffffffffffffffffffffffffffffffffffffffffffffffffffff1916815260200190815260200160002060006101000a81548160ff02191690831515021790555050565b828054600181600116156101000203166002900490600052602060002090601f016020900481019282601f106200055a57805160ff19168380011785556200058b565b828001600101855582156200058b579182015b828111156200058a5782518255916020019190600101906200056d565b5b5090506200059a9190620005af565b5090565b6040516105d78062002ef583390190565b620005d491905b80821115620005d0576000816000905550600101620005b6565b5090565b90565b61290e80620005e76000396000f300608060405260043610610154576000357c0100000000000000000000000000000000000000000000000000000000900463ffffffff16806301ffc9a71461015957806306fdde03146101bd578063081812fc1461024d578063095ea7b3146102ba57806318160ddd1461030757806319fa8f50146103325780631d1438481461039b57806323b872dd146103f25780632f745c591461045f57806342842e0e146104c057806342966c681461052d5780634f558e791461055a5780634f6ccce71461059f5780636352211e146105e057806370a082311461064d578063715018a6146106a4578063896317b8146106bb5780638d75533f146107125780638da5cb5b146107e157806395d89b4114610838578063a22cb465146108c8578063b88d4fde14610917578063c87b56dd146109ca578063d0def52114610a70578063e985e9c514610af9578063f2fde38b14610b74575b600080fd5b34801561016557600080fd5b506101a360048036038101908080357bffffffffffffffffffffffffffffffffffffffffffffffffffffffff19169060200190929190505050610bb7565b604051808215151515815260200191505060405180910390f35b3480156101c957600080fd5b506101d2610c1e565b6040518080602001828103825283818151815260200191508051906020019080838360005b838110156102125780820151818401526020810190506101f7565b50505050905090810190601f16801561023f5780820380516001836020036101000a031916815260200191505b509250505060405180910390f35b34801561025957600080fd5b5061027860048036038101908080359060200190929190505050610cc0565b604051808273ffffffffffffffffffffffffffffffffffffffff1673ffffffffffffffffffffffffffffffffffffffff16815260200191505060405180910390f35b3480156102c657600080fd5b50610305600480360381019080803573ffffffffffffffffffffffffffffffffffffffff16906020019092919080359060200190929190505050610cfd565b005b34801561031357600080fd5b5061031c610e42565b6040518082815260200191505060405180910390f35b34801561033e57600080fd5b50610347610e4f565b60405180827bffffffffffffffffffffffffffffffffffffffffffffffffffffffff19167bffffffffffffffffffffffffffffffffffffffffffffffffffffffff1916815260200191505060405180910390f35b3480156103a757600080fd5b506103b0610e76565b604051808273ffffffffffffffffffffffffffffffffffffffff1673ffffffffffffffffffffffffffffffffffffffff16815260200191505060405180910390f35b3480156103fe57600080fd5b5061045d600480360381019080803573ffffffffffffffffffffffffffffffffffffffff169060200190929190803573ffffffffffffffffffffffffffffffffffffffff16906020019092919080359060200190929190505050610e9c565b005b34801561046b57600080fd5b506104aa600480360381019080803573ffffffffffffffffffffffffffffffffffffffff16906020019092919080359060200190929190505050610fa7565b6040518082815260200191505060405180910390f35b3480156104cc57600080fd5b5061052b600480360381019080803573ffffffffffffffffffffffffffffffffffffffff169060200190929190803573ffffffffffffffffffffffffffffffffffffffff1690602001909291908035906020019092919050505061101e565b005b34801561053957600080fd5b506105586004803603810190808035906020019092919050505061103f565b005b34801561056657600080fd5b506105856004803603810190808035906020019092919050505061104c565b604051808215151515815260200191505060405180910390f35b3480156105ab57600080fd5b506105ca600480360381019080803590602001909291905050506110be565b6040518082815260200191505060405180910390f35b3480156105ec57600080fd5b5061060b600480360381019080803590602001909291905050506110f6565b604051808273ffffffffffffffffffffffffffffffffffffffff1673ffffffffffffffffffffffffffffffffffffffff16815260200191505060405180910390f35b34801561065957600080fd5b5061068e600480360381019080803573ffffffffffffffffffffffffffffffffffffffff169060200190929190505050611174565b6040518082815260200191505060405180910390f35b3480156106b057600080fd5b506106b96111f8565b005b3480156106c757600080fd5b506106d06112fd565b604051808273ffffffffffffffffffffffffffffffffffffffff1673ffffffffffffffffffffffffffffffffffffffff16815260200191505060405180910390f35b34801561071e57600080fd5b506107df600480360381019080803573ffffffffffffffffffffffffffffffffffffffff169060200190929190803590602001908201803590602001908080601f0160208091040260200160405190810160405280939291908181526020018383808284378201915050505050509192919290803590602001908201803590602001908080601f0160208091040260200160405190810160405280939291908181526020018383808284378201915050505050509192919290505050611327565b005b3480156107ed57600080fd5b506107f6611458565b604051808273ffffffffffffffffffffffffffffffffffffffff1673ffffffffffffffffffffffffffffffffffffffff16815260200191505060405180910390f35b34801561084457600080fd5b5061084d61147e565b6040518080602001828103825283818151815260200191508051906020019080838360005b8381101561088d578082015181840152602081019050610872565b50505050905090810190601f1680156108ba5780820380516001836020036101000a031916815260200191505b509250505060405180910390f35b3480156108d457600080fd5b50610915600480360381019080803573ffffffffffffffffffffffffffffffffffffffff169060200190929190803515159060200190929190505050611520565b005b34801561092357600080fd5b506109c8600480360381019080803573ffffffffffffffffffffffffffffffffffffffff169060200190929190803573ffffffffffffffffffffffffffffffffffffffff16906020019092919080359060200190929190803590602001908201803590602001908080601f016020809104026020016040519081016040528093929190818152602001838380828437820191505050505050919291929050505061165c565b005b3480156109d657600080fd5b506109f560048036038101908080359060200190929190505050611684565b6040518080602001828103825283818151815260200191508051906020019080838360005b83811015610a35578082015181840152602081019050610a1a565b50505050905090810190601f168015610a625780820380516001836020036101000a031916815260200191505b509250505060405180910390f35b348015610a7c57600080fd5b50610af7600480360381019080803573ffffffffffffffffffffffffffffffffffffffff169060200190929190803590602001908201803590602001908080601f016020809104026020016040519081016040528093929190818152602001838380828437820191505050505050919291929050505061174d565b005b348015610b0557600080fd5b50610b5a600480360381019080803573ffffffffffffffffffffffffffffffffffffffff169060200190929190803573ffffffffffffffffffffffffffffffffffffffff1690602001909291905050506117b7565b604051808215151515815260200191505060405180910390f35b348015610b8057600080fd5b50610bb5600480360381019080803573ffffffffffffffffffffffffffffffffffffffff16906020019092919050505061184b565b005b6000806000837bffffffffffffffffffffffffffffffffffffffffffffffffffffffff19167bffffffffffffffffffffffffffffffffffffffffffffffffffffffff1916815260200190815260200160002060009054906101000a900460ff169050919050565b606060058054600181600116156101000203166002900480601f016020809104026020016040519081016040528092919081815260200182805460018160011615610100020316600290048015610cb65780601f10610c8b57610100808354040283529160200191610cb6565b820191906000526020600020905b815481529060010190602001808311610c9957829003601f168201915b5050505050905090565b60006002600083815260200190815260200160002060009054906101000a900473ffffffffffffffffffffffffffffffffffffffff169050919050565b6000610d08826110f6565b90508073ffffffffffffffffffffffffffffffffffffffff168373ffffffffffffffffffffffffffffffffffffffff1614151515610d4557600080fd5b8073ffffffffffffffffffffffffffffffffffffffff163373ffffffffffffffffffffffffffffffffffffffff161480610d855750610d8481336117b7565b5b1515610d9057600080fd5b826002600084815260200190815260200160002060006101000a81548173ffffffffffffffffffffffffffffffffffffffff021916908373ffffffffffffffffffffffffffffffffffffffff160217905550818373ffffffffffffffffffffffffffffffffffffffff168273ffffffffffffffffffffffffffffffffffffffff167f8c5be1e5ebec7d5bd14f71427d1e84f3dd0314c0f7b2291e5b200ac8c7c3b92560405160405180910390a4505050565b6000600980549050905090565b6301ffc9a77c01000000000000000000000000000000000000000000000000000000000281565b600e60009054906101000a900473ffffffffffffffffffffffffffffffffffffffff1681565b610ea633826118b3565b1515610eb157600080fd5b600073ffffffffffffffffffffffffffffffffffffffff168373ffffffffffffffffffffffffffffffffffffffff1614151515610eed57600080fd5b600073ffffffffffffffffffffffffffffffffffffffff168273ffffffffffffffffffffffffffffffffffffffff1614151515610f2957600080fd5b610f338382611948565b610f3d8382611a4b565b610f478282611c07565b808273ffffffffffffffffffffffffffffffffffffffff168473ffffffffffffffffffffffffffffffffffffffff167fddf252ad1be2c89b69c2b068fc378daa952ba7f163c4a11628f55a4df523b3ef60405160405180910390a4505050565b6000610fb283611174565b82101515610fbf57600080fd5b600760008473ffffffffffffffffffffffffffffffffffffffff1673ffffffffffffffffffffffffffffffffffffffff1681526020019081526020016000208281548110151561100b57fe5b9060005260206000200154905092915050565b61103a838383602060405190810160405280600081525061165c565b505050565b6110493382611cde565b50565b6000806001600084815260200190815260200160002060009054906101000a900473ffffffffffffffffffffffffffffffffffffffff169050600073ffffffffffffffffffffffffffffffffffffffff168173ffffffffffffffffffffffffffffffffffffffff161415915050919050565b60006110c8610e42565b821015156110d557600080fd5b6009828154811015156110e457fe5b90600052602060002001549050919050565b6000806001600084815260200190815260200160002060009054906101000a900473ffffffffffffffffffffffffffffffffffffffff169050600073ffffffffffffffffffffffffffffffffffffffff168173ffffffffffffffffffffffffffffffffffffffff161415151561116b57600080fd5b80915050919050565b60008073ffffffffffffffffffffffffffffffffffffffff168273ffffffffffffffffffffffffffffffffffffffff16141515156111b157600080fd5b600360008373ffffffffffffffffffffffffffffffffffffffff1673ffffffffffffffffffffffffffffffffffffffff168152602001908152602001600020549050919050565b600c60009054906101000a900473ffffffffffffffffffffffffffffffffffffffff1673ffffffffffffffffffffffffffffffffffffffff163373ffffffffffffffffffffffffffffffffffffffff1614151561125457600080fd5b600c60009054906101000a900473ffffffffffffffffffffffffffffffffffffffff1673ffffffffffffffffffffffffffffffffffffffff167ff8df31144d9c2f0f6b59d69b8b98abd5459d07f2742c4df920b25aae33c6482060405160405180910390a26000600c60006101000a81548173ffffffffffffffffffffffffffffffffffffffff021916908373ffffffffffffffffffffffffffffffffffffffff160217905550565b6000600f60009054906101000a900473ffffffffffffffffffffffffffffffffffffffff16905090565b6000808484604051808373ffffffffffffffffffffffffffffffffffffffff1673ffffffffffffffffffffffffffffffffffffffff166c0100000000000000000000000002815260140182805190602001908083835b6020831015156113a2578051825260208201915060208101905060208303925061137d565b6001836020036101000a03801982511681845116808217855250505050505090500192505050604051809103902091506113e9838360001916611e1690919063ffffffff16565b9050600c60009054906101000a900473ffffffffffffffffffffffffffffffffffffffff1673ffffffffffffffffffffffffffffffffffffffff168173ffffffffffffffffffffffffffffffffffffffff1614151561144757600080fd5b6114518585611f0e565b5050505050565b600c60009054906101000a900473ffffffffffffffffffffffffffffffffffffffff1681565b606060068054600181600116156101000203166002900480601f0160208091040260200160405190810160405280929190818152602001828054600181600116156101000203166002900480156115165780601f106114eb57610100808354040283529160200191611516565b820191906000526020600020905b8154815290600101906020018083116114f957829003601f168201915b5050505050905090565b3373ffffffffffffffffffffffffffffffffffffffff168273ffffffffffffffffffffffffffffffffffffffff161415151561155b57600080fd5b80600460003373ffffffffffffffffffffffffffffffffffffffff1673ffffffffffffffffffffffffffffffffffffffff16815260200190815260200160002060008473ffffffffffffffffffffffffffffffffffffffff1673ffffffffffffffffffffffffffffffffffffffff16815260200190815260200160002060006101000a81548160ff0219169083151502179055508173ffffffffffffffffffffffffffffffffffffffff163373ffffffffffffffffffffffffffffffffffffffff167f17307eab39ab6107e8899845ad3d59bd9653f200f220920489ca2b5937696c3183604051808215151515815260200191505060405180910390a35050565b611667848484610e9c565b61167384848484612029565b151561167e57600080fd5b50505050565b606061168f8261104c565b151561169a57600080fd5b600b60008381526020019081526020016000208054600181600116156101000203166002900480601f0160208091040260200160405190810160405280929190818152602001828054600181600116156101000203166002900480156117415780601f1061171657610100808354040283529160200191611741565b820191906000526020600020905b81548152906001019060200180831161172457829003601f168201915b50505050509050919050565b600c60009054906101000a900473ffffffffffffffffffffffffffffffffffffffff1673ffffffffffffffffffffffffffffffffffffffff163373ffffffffffffffffffffffffffffffffffffffff161415156117a957600080fd5b6117b38282611f0e565b5050565b6000600460008473ffffffffffffffffffffffffffffffffffffffff1673ffffffffffffffffffffffffffffffffffffffff16815260200190815260200160002060008373ffffffffffffffffffffffffffffffffffffffff1673ffffffffffffffffffffffffffffffffffffffff16815260200190815260200160002060009054906101000a900460ff16905092915050565b600c60009054906101000a900473ffffffffffffffffffffffffffffffffffffffff1673ffffffffffffffffffffffffffffffffffffffff163373ffffffffffffffffffffffffffffffffffffffff161415156118a757600080fd5b6118b08161224b565b50565b6000806118bf836110f6565b90508073ffffffffffffffffffffffffffffffffffffffff168473ffffffffffffffffffffffffffffffffffffffff16148061192e57508373ffffffffffffffffffffffffffffffffffffffff1661191684610cc0565b73ffffffffffffffffffffffffffffffffffffffff16145b8061193f575061193e81856117b7565b5b91505092915050565b8173ffffffffffffffffffffffffffffffffffffffff16611968826110f6565b73ffffffffffffffffffffffffffffffffffffffff1614151561198a57600080fd5b600073ffffffffffffffffffffffffffffffffffffffff166002600083815260200190815260200160002060009054906101000a900473ffffffffffffffffffffffffffffffffffffffff1673ffffffffffffffffffffffffffffffffffffffff16141515611a475760006002600083815260200190815260200160002060006101000a81548173ffffffffffffffffffffffffffffffffffffffff021916908373ffffffffffffffffffffffffffffffffffffffff1602179055505b5050565b6000806000611a5a8585612347565b60086000858152602001908152602001600020549250611ac66001600760008873ffffffffffffffffffffffffffffffffffffffff1673ffffffffffffffffffffffffffffffffffffffff1681526020019081526020016000208054905061247690919063ffffffff16565b9150600760008673ffffffffffffffffffffffffffffffffffffffff1673ffffffffffffffffffffffffffffffffffffffff16815260200190815260200160002082815481101515611b1457fe5b9060005260206000200154905080600760008773ffffffffffffffffffffffffffffffffffffffff1673ffffffffffffffffffffffffffffffffffffffff16815260200190815260200160002084815481101515611b6e57fe5b9060005260206000200181905550600760008673ffffffffffffffffffffffffffffffffffffffff1673ffffffffffffffffffffffffffffffffffffffff168152602001908152602001600020805480919060019003611bce91906127c9565b50600060086000868152602001908152602001600020819055508260086000838152602001908152602001600020819055505050505050565b6000611c13838361248f565b600760008473ffffffffffffffffffffffffffffffffffffffff1673ffffffffffffffffffffffffffffffffffffffff168152602001908152602001600020805490509050600760008473ffffffffffffffffffffffffffffffffffffffff1673ffffffffffffffffffffffffffffffffffffffff168152602001908152602001600020829080600181540180825580915050906001820390600052602060002001600090919290919091505550806008600084815260200190815260200160002081905550505050565b6000806000611ced85856125e9565b6000600b6000868152602001908152602001600020805460018160011615610100020316600290049050141515611d3e57600b60008581526020019081526020016000206000611d3d91906127f5565b5b600a6000858152602001908152602001600020549250611d6d600160098054905061247690919063ffffffff16565b9150600982815481101515611d7e57fe5b9060005260206000200154905080600984815481101515611d9b57fe5b90600052602060002001819055506000600983815481101515611dba57fe5b90600052602060002001819055506009805480919060019003611ddd91906127c9565b506000600a60008681526020019081526020016000208190555082600a6000838152602001908152602001600020819055505050505050565b60008060008060418551141515611e305760009350611f05565b6020850151925060408501519150606085015160001a9050601b8160ff161015611e5b57601b810190505b601b8160ff1614158015611e735750601c8160ff1614155b15611e815760009350611f05565b600186828585604051600081526020016040526040518085600019166000191681526020018460ff1660ff1681526020018360001916600019168152602001826000191660001916815260200194505050505060206040516020810390808403906000865af1158015611ef8573d6000803e3d6000fd5b5050506020604051035193505b50505092915050565b6000611f266001600d5461265d90919063ffffffff16565b9050611f318161104c565b158015611ffe5750600f60009054906101000a900473ffffffffffffffffffffffffffffffffffffffff1673ffffffffffffffffffffffffffffffffffffffff166319d1997a6040518163ffffffff167c0100000000000000000000000000000000000000000000000000000000028152600401602060405180830381600087803b158015611fbf57600080fd5b505af1158015611fd3573d6000803e3d6000fd5b505050506040513d6020811015611fe957600080fd5b81019080805190602001909291905050508111155b151561200957600080fd5b80600d8190555061201a8382612679565b61202481836126d0565b505050565b60008061204b8573ffffffffffffffffffffffffffffffffffffffff16612710565b151561205a5760019150612242565b8473ffffffffffffffffffffffffffffffffffffffff1663150b7a02338887876040518563ffffffff167c0100000000000000000000000000000000000000000000000000000000028152600401808573ffffffffffffffffffffffffffffffffffffffff1673ffffffffffffffffffffffffffffffffffffffff1681526020018473ffffffffffffffffffffffffffffffffffffffff1673ffffffffffffffffffffffffffffffffffffffff16815260200183815260200180602001828103825283818151815260200191508051906020019080838360005b8381101561214f578082015181840152602081019050612134565b50505050905090810190601f16801561217c5780820380516001836020036101000a031916815260200191505b5095505050505050602060405180830381600087803b15801561219e57600080fd5b505af11580156121b2573d6000803e3d6000fd5b505050506040513d60208110156121c857600080fd5b8101908080519060200190929190505050905063150b7a027c0100000000000000000000000000000000000000000000000000000000027bffffffffffffffffffffffffffffffffffffffffffffffffffffffff1916817bffffffffffffffffffffffffffffffffffffffffffffffffffffffff19161491505b50949350505050565b600073ffffffffffffffffffffffffffffffffffffffff168173ffffffffffffffffffffffffffffffffffffffff161415151561228757600080fd5b8073ffffffffffffffffffffffffffffffffffffffff16600c60009054906101000a900473ffffffffffffffffffffffffffffffffffffffff1673ffffffffffffffffffffffffffffffffffffffff167f8be0079c531659141344cd1fd0a4f28419497f9722a3daafe3b4186f6b6457e060405160405180910390a380600c60006101000a81548173ffffffffffffffffffffffffffffffffffffffff021916908373ffffffffffffffffffffffffffffffffffffffff16021790555050565b8173ffffffffffffffffffffffffffffffffffffffff16612367826110f6565b73ffffffffffffffffffffffffffffffffffffffff1614151561238957600080fd5b6123dc6001600360008573ffffffffffffffffffffffffffffffffffffffff1673ffffffffffffffffffffffffffffffffffffffff1681526020019081526020016000205461247690919063ffffffff16565b600360008473ffffffffffffffffffffffffffffffffffffffff1673ffffffffffffffffffffffffffffffffffffffff1681526020019081526020016000208190555060006001600083815260200190815260200160002060006101000a81548173ffffffffffffffffffffffffffffffffffffffff021916908373ffffffffffffffffffffffffffffffffffffffff1602179055505050565b600082821115151561248457fe5b818303905092915050565b600073ffffffffffffffffffffffffffffffffffffffff166001600083815260200190815260200160002060009054906101000a900473ffffffffffffffffffffffffffffffffffffffff1673ffffffffffffffffffffffffffffffffffffffff161415156124fd57600080fd5b816001600083815260200190815260200160002060006101000a81548173ffffffffffffffffffffffffffffffffffffffff021916908373ffffffffffffffffffffffffffffffffffffffff1602179055506125a26001600360008573ffffffffffffffffffffffffffffffffffffffff1673ffffffffffffffffffffffffffffffffffffffff1681526020019081526020016000205461265d90919063ffffffff16565b600360008473ffffffffffffffffffffffffffffffffffffffff1673ffffffffffffffffffffffffffffffffffffffff168152602001908152602001600020819055505050565b6125f38282611948565b6125fd8282611a4b565b80600073ffffffffffffffffffffffffffffffffffffffff168373ffffffffffffffffffffffffffffffffffffffff167fddf252ad1be2c89b69c2b068fc378daa952ba7f163c4a11628f55a4df523b3ef60405160405180910390a45050565b6000818301905082811015151561267057fe5b80905092915050565b6126838282612723565b600980549050600a60008381526020019081526020016000208190555060098190806001815401808255809150509060018203906000526020600020016000909192909190915055505050565b6126d98261104c565b15156126e457600080fd5b80600b6000848152602001908152602001600020908051906020019061270b92919061283d565b505050565b600080823b905060008111915050919050565b600073ffffffffffffffffffffffffffffffffffffffff168273ffffffffffffffffffffffffffffffffffffffff161415151561275f57600080fd5b6127698282611c07565b808273ffffffffffffffffffffffffffffffffffffffff16600073ffffffffffffffffffffffffffffffffffffffff167fddf252ad1be2c89b69c2b068fc378daa952ba7f163c4a11628f55a4df523b3ef60405160405180910390a45050565b8154818355818111156127f0578183600052602060002091820191016127ef91906128bd565b5b505050565b50805460018160011615610100020316600290046000825580601f1061281b575061283a565b601f01602090049060005260206000209081019061283991906128bd565b5b50565b828054600181600116156101000203166002900490600052602060002090601f016020900481019282601f1061287e57805160ff19168380011785556128ac565b828001600101855582156128ac579182015b828111156128ab578251825591602001919060010190612890565b5b5090506128b991906128bd565b5090565b6128df91905b808211156128db5760008160009055506001016128c3565b5090565b905600a165627a7a7230582050967f04c020f034cbaa9a97f217507b21d284c77ff1d7ceccbf81ae204620b10029608060405234801561001057600080fd5b506040516105d73803806105d78339810180604052810190808051820192919060200180518201929190602001805190602001909291908051820192919050505083600090805190602001906100679291906100d5565b50826001908051906020019061007e9291906100d5565b5080600390805190602001906100959291906100d5565b50600082146100a457816100c6565b7fffffffffffffffffffffffffffffffffffffffffffffffffffffffffffffffff5b6002819055505050505061017a565b828054600181600116156101000203166002900490600052602060002090601f016020900481019282601f1061011657805160ff1916838001178555610144565b82800160010185558215610144579182015b82811115610143578251825591602001919060010190610128565b5b5090506101519190610155565b5090565b61017791905b8082111561017357600081600090555060010161015b565b5090565b90565b61044e806101896000396000f300608060405260043610610062576000357c0100000000000000000000000000000000000000000000000000000000900463ffffffff16806306fdde031461006757806319d1997a146100f757806395d89b4114610122578063eac989f8146101b2575b600080fd5b34801561007357600080fd5b5061007c610242565b6040518080602001828103825283818151815260200191508051906020019080838360005b838110156100bc5780820151818401526020810190506100a1565b50505050905090810190601f1680156100e95780820380516001836020036101000a031916815260200191505b509250505060405180910390f35b34801561010357600080fd5b5061010c6102e0565b6040518082815260200191505060405180910390f35b34801561012e57600080fd5b506101376102e6565b6040518080602001828103825283818151815260200191508051906020019080838360005b8381101561017757808201518184015260208101905061015c565b50505050905090810190601f1680156101a45780820380516001836020036101000a031916815260200191505b509250505060405180910390f35b3480156101be57600080fd5b506101c7610384565b6040518080602001828103825283818151815260200191508051906020019080838360005b838110156102075780820151818401526020810190506101ec565b50505050905090810190601f1680156102345780820380516001836020036101000a031916815260200191505b509250505060405180910390f35b60008054600181600116156101000203166002900480601f0160208091040260200160405190810160405280929190818152602001828054600181600116156101000203166002900480156102d85780601f106102ad576101008083540402835291602001916102d8565b820191906000526020600020905b8154815290600101906020018083116102bb57829003601f168201915b505050505081565b60025481565b60018054600181600116156101000203166002900480601f01602080910402602001604051908101604052809291908181526020018280546001816001161561010002031660029004801561037c5780601f106103515761010080835404028352916020019161037c565b820191906000526020600020905b81548152906001019060200180831161035f57829003601f168201915b505050505081565b60038054600181600116156101000203166002900480601f01602080910402602001604051908101604052809291908181526020018280546001816001161561010002031660029004801561041a5780601f106103ef5761010080835404028352916020019161041a565b820191906000526020600020905b8154815290600101906020018083116103fd57829003601f168201915b5050505050815600a165627a7a72305820dede5a109421afd86578a47a00dde54c5d203246642eaca5a260b433f2f8845a0029",
  "source": "pragma solidity ^0.4.19;\r\n\r\nimport 'openzeppelin-solidity/contracts/token/ERC721/ERC721Token.sol';\r\nimport 'openzeppelin-solidity/contracts/ownership/Ownable.sol';\r\nimport 'openzeppelin-solidity/contracts/ECRecovery.sol';\r\n\r\ncontract AssetType {\r\n\r\n    // Asset type name\r\n    string public name;\r\n\r\n    // Asset type symbol\r\n    string public symbol;\r\n\r\n    //SupplyLimit\r\n    uint256 public supplyLimit;\r\n\r\n    // Asset type metadata uri,Pointing to a json file\r\n    string public uri;\r\n\r\n    constructor(string _name, string _symbol, uint256 _supplyLimit, string _uri) public {\r\n        name = _name;\r\n        symbol = _symbol;\r\n        uri = _uri;\r\n        supplyLimit = (_supplyLimit == 0 ? 2 ** 256 - 1 : _supplyLimit);\r\n    }\r\n}\r\n\r\ncontract StandardAsset is ERC721Token, Ownable {\r\n\r\n    using ECRecovery for bytes32;\r\n\r\n    uint256 internal id_;\r\n\r\n    //token  issuer\r\n    address public issuer;\r\n\r\n\r\n    AssetType private assetType;\r\n\r\n    /**\r\n     * @dev Constructor function\r\n     */\r\n    constructor(string _name, string _symbol, uint256 _supplyLimit, string _classURI, address _owner) public ERC721Token(_name, _symbol) {\r\n        assetType = new AssetType(_name, _symbol, _supplyLimit, _classURI);\r\n        owner = _owner;\r\n        issuer = _owner;\r\n\r\n    }\r\n\r\n    /**\r\n      * @dev create a new token\r\n      * @dev Reverts if the given token ID already exists\r\n      * @param _to address the beneficiary that will own the minted token\r\n      * @param _tokenURI token uri\r\n      */\r\n    function mint(address _to, string _tokenURI) onlyOwner public {\r\n        _mint(_to, _tokenURI);\r\n    }\r\n    /**\r\n      * @dev Internal function to mint a new token\r\n      * Reverts if the given token ID already exists\r\n      * @param _to address the beneficiary that will own the minted token\r\n      */\r\n    function _mint(address _to, string _tokenURI) internal {\r\n        uint256 tokenId = id_.add(1);\r\n        require(!exists(tokenId) && tokenId <= assetType.supplyLimit());\r\n        id_ = tokenId;\r\n        super._mint(_to, tokenId);\r\n        super._setTokenURI(tokenId, _tokenURI);\r\n    }\r\n\r\n    /**\r\n     * @dev create a new token\r\n     * @dev Reverts if the given token ID already exists\r\n     * @param _to address the beneficiary that will own the minted token\r\n     * @param _tokenURI token uri\r\n     */\r\n    function mint(address _to, string _tokenURI,bytes _sig) public {\r\n        bytes32 hash = keccak256(_to, _tokenURI);\r\n        address addr = hash.recover(_sig);\r\n        require(addr == owner);\r\n        _mint(_to, _tokenURI);\r\n    }\r\n\r\n    /**\r\n     * @dev  burn a specific token by its owner\r\n     * @dev Reverts if the token does not exist\r\n     * @param _tokenId uint256 ID of the token being burned by the msg.sender\r\n     */\r\n    function burn(uint256 _tokenId) public {\r\n        super._burn(msg.sender, _tokenId);\r\n    }\r\n\r\n\r\n    function getAssetType() public view returns (AssetType){\r\n        return assetType;\r\n    }\r\n\r\n\r\n}\r\n",
  "sourcePath": "G:\\GitRepository\\udap\\uc3\\contracts\\StandardAsset.sol",
  "compiler": {
    "name": "solc",
    "version": "0.4.24+commit.e67f0147.Emscripten.clang"
  },
  "schemaVersion": "2.0.1",
  "updatedAt": "2018-08-31T03:43:22.814Z"
}